{"contracts/Land.sol":{"Land":{"abi":[{"inputs":[],"stateMutability":"nonpayable","type":"constructor"},{"anonymous":false,"inputs":[{"indexed":true,"internalType":"uint256","name":"_landId","type":"uint256"}],"name":"AddingLand","type":"event"},{"anonymous":false,"inputs":[{"indexed":false,"internalType":"address","name":"_sellerId","type":"address"}],"name":"Landrequested","type":"event"},{"anonymous":false,"inputs":[{"indexed":false,"internalType":"address","name":"_registrationId","type":"address"}],"name":"Registration","type":"event"},{"anonymous":false,"inputs":[{"indexed":false,"internalType":"address","name":"_id","type":"address"}],"name":"Rejected","type":"event"},{"anonymous":false,"inputs":[{"indexed":false,"internalType":"address","name":"_id","type":"address"}],"name":"Verified","type":"event"},{"anonymous":false,"inputs":[{"indexed":false,"internalType":"address","name":"_buyerId","type":"address"}],"name":"requestApproved","type":"event"},{"inputs":[{"internalType":"address","name":"","type":"address"}],"name":"BuyerMapping","outputs":[{"internalType":"address","name":"id","type":"address"},{"internalType":"string","name":"name","type":"string"},{"internalType":"uint256","name":"age","type":"uint256"},{"internalType":"string","name":"city","type":"string"},{"internalType":"string","name":"aadharNumber","type":"string"},{"internalType":"string","name":"panNumber","type":"string"},{"internalType":"string","name":"document","type":"string"},{"internalType":"string","name":"email","type":"string"}],"stateMutability":"view","type":"function"},{"inputs":[{"internalType":"address","name":"","type":"address"}],"name":"BuyerRejection","outputs":[{"internalType":"bool","name":"","type":"bool"}],"stateMutability":"view","type":"function"},{"inputs":[{"internalType":"address","name":"","type":"address"}],"name":"BuyerVerification","outputs":[{"internalType":"bool","name":"","type":"bool"}],"stateMutability":"view","type":"function"},{"inputs":[{"internalType":"uint256","name":"","type":"uint256"}],"name":"InspectorMapping","outputs":[{"internalType":"uint256","name":"id","type":"uint256"},{"internalType":"string","name":"name","type":"string"},{"internalType":"uint256","name":"age","type":"uint256"},{"internalType":"string","name":"designation","type":"string"}],"stateMutability":"view","type":"function"},{"inputs":[{"internalType":"uint256","name":"","type":"uint256"}],"name":"LandOwner","outputs":[{"internalType":"address","name":"","type":"address"}],"stateMutability":"view","type":"function"},{"inputs":[{"internalType":"uint256","name":"_landId","type":"uint256"},{"internalType":"address","name":"_newOwner","type":"address"}],"name":"LandOwnershipTransfer","outputs":[],"stateMutability":"nonpayable","type":"function"},{"inputs":[{"internalType":"uint256","name":"","type":"uint256"}],"name":"LandVerification","outputs":[{"internalType":"bool","name":"","type":"bool"}],"stateMutability":"view","type":"function"},{"inputs":[],"name":"Land_Inspector","outputs":[{"internalType":"address","name":"","type":"address"}],"stateMutability":"view","type":"function"},{"inputs":[{"internalType":"uint256","name":"","type":"uint256"}],"name":"PaymentReceived","outputs":[{"internalType":"bool","name":"","type":"bool"}],"stateMutability":"view","type":"function"},{"inputs":[{"internalType":"address","name":"","type":"address"}],"name":"RegisteredAddressMapping","outputs":[{"internalType":"bool","name":"","type":"bool"}],"stateMutability":"view","type":"function"},{"inputs":[{"internalType":"address","name":"","type":"address"}],"name":"RegisteredBuyerMapping","outputs":[{"internalType":"bool","name":"","type":"bool"}],"stateMutability":"view","type":"function"},{"inputs":[{"internalType":"address","name":"","type":"address"}],"name":"RegisteredSellerMapping","outputs":[{"internalType":"bool","name":"","type":"bool"}],"stateMutability":"view","type":"function"},{"inputs":[{"internalType":"uint256","name":"","type":"uint256"}],"name":"RequestStatus","outputs":[{"internalType":"bool","name":"","type":"bool"}],"stateMutability":"view","type":"function"},{"inputs":[{"internalType":"uint256","name":"","type":"uint256"}],"name":"RequestedLands","outputs":[{"internalType":"bool","name":"","type":"bool"}],"stateMutability":"view","type":"function"},{"inputs":[{"internalType":"uint256","name":"","type":"uint256"}],"name":"RequestsMapping","outputs":[{"internalType":"uint256","name":"reqId","type":"uint256"},{"internalType":"address","name":"sellerId","type":"address"},{"internalType":"address","name":"buyerId","type":"address"},{"internalType":"uint256","name":"landId","type":"uint256"}],"stateMutability":"view","type":"function"},{"inputs":[{"internalType":"address","name":"","type":"address"}],"name":"SellerMapping","outputs":[{"internalType":"address","name":"id","type":"address"},{"internalType":"string","name":"name","type":"string"},{"internalType":"uint256","name":"age","type":"uint256"},{"internalType":"string","name":"aadharNumber","type":"string"},{"internalType":"string","name":"panNumber","type":"string"},{"internalType":"string","name":"landsOwned","type":"string"},{"internalType":"string","name":"document","type":"string"}],"stateMutability":"view","type":"function"},{"inputs":[{"internalType":"address","name":"","type":"address"}],"name":"SellerRejection","outputs":[{"internalType":"bool","name":"","type":"bool"}],"stateMutability":"view","type":"function"},{"inputs":[{"internalType":"address","name":"","type":"address"}],"name":"SellerVerification","outputs":[{"internalType":"bool","name":"","type":"bool"}],"stateMutability":"view","type":"function"},{"inputs":[{"internalType":"uint256","name":"_area","type":"uint256"},{"internalType":"string","name":"_city","type":"string"},{"internalType":"string","name":"_state","type":"string"},{"internalType":"uint256","name":"landPrice","type":"uint256"},{"internalType":"uint256","name":"_propertyPID","type":"uint256"},{"internalType":"uint256","name":"_surveyNum","type":"uint256"},{"internalType":"string","name":"_ipfsHash","type":"string"},{"internalType":"string","name":"_document","type":"string"}],"name":"addLand","outputs":[],"stateMutability":"nonpayable","type":"function"},{"inputs":[{"internalType":"uint256","name":"_reqId","type":"uint256"}],"name":"approveRequest","outputs":[],"stateMutability":"nonpayable","type":"function"},{"inputs":[{"internalType":"uint256","name":"","type":"uint256"}],"name":"buyers","outputs":[{"internalType":"address","name":"","type":"address"}],"stateMutability":"view","type":"function"},{"inputs":[],"name":"buyersCount","outputs":[{"internalType":"uint256","name":"","type":"uint256"}],"stateMutability":"view","type":"function"},{"inputs":[{"internalType":"uint256","name":"i","type":"uint256"}],"name":"getArea","outputs":[{"internalType":"uint256","name":"","type":"uint256"}],"stateMutability":"view","type":"function"},{"inputs":[],"name":"getBuyer","outputs":[{"internalType":"address[]","name":"","type":"address[]"}],"stateMutability":"view","type":"function"},{"inputs":[{"internalType":"address","name":"i","type":"address"}],"name":"getBuyerDetails","outputs":[{"internalType":"string","name":"","type":"string"},{"internalType":"string","name":"","type":"string"},{"internalType":"string","name":"","type":"string"},{"internalType":"string","name":"","type":"string"},{"internalType":"string","name":"","type":"string"},{"internalType":"uint256","name":"","type":"uint256"},{"internalType":"string","name":"","type":"string"}],"stateMutability":"view","type":"function"},{"inputs":[],"name":"getBuyersCount","outputs":[{"internalType":"uint256","name":"","type":"uint256"}],"stateMutability":"view","type":"function"},{"inputs":[{"internalType":"uint256","name":"i","type":"uint256"}],"name":"getCity","outputs":[{"internalType":"string","name":"","type":"string"}],"stateMutability":"view","type":"function"},{"inputs":[{"internalType":"uint256","name":"i","type":"uint256"}],"name":"getDocument","outputs":[{"internalType":"string","name":"","type":"string"}],"stateMutability":"view","type":"function"},{"inputs":[{"internalType":"uint256","name":"i","type":"uint256"}],"name":"getImage","outputs":[{"internalType":"string","name":"","type":"string"}],"stateMutability":"view","type":"function"},{"inputs":[{"internalType":"uint256","name":"id","type":"uint256"}],"name":"getLandOwner","outputs":[{"internalType":"address","name":"","type":"address"}],"stateMutability":"view","type":"function"},{"inputs":[],"name":"getLandsCount","outputs":[{"internalType":"uint256","name":"","type":"uint256"}],"stateMutability":"view","type":"function"},{"inputs":[{"internalType":"uint256","name":"i","type":"uint256"}],"name":"getPID","outputs":[{"internalType":"uint256","name":"","type":"uint256"}],"stateMutability":"view","type":"function"},{"inputs":[{"internalType":"uint256","name":"i","type":"uint256"}],"name":"getPrice","outputs":[{"internalType":"uint256","name":"","type":"uint256"}],"stateMutability":"view","type":"function"},{"inputs":[{"internalType":"uint256","name":"i","type":"uint256"}],"name":"getRequestDetails","outputs":[{"internalType":"address","name":"","type":"address"},{"internalType":"address","name":"","type":"address"},{"internalType":"uint256","name":"","type":"uint256"},{"internalType":"bool","name":"","type":"bool"}],"stateMutability":"view","type":"function"},{"inputs":[],"name":"getRequestsCount","outputs":[{"internalType":"uint256","name":"","type":"uint256"}],"stateMutability":"view","type":"function"},{"inputs":[],"name":"getSeller","outputs":[{"internalType":"address[]","name":"","type":"address[]"}],"stateMutability":"view","type":"function"},{"inputs":[{"internalType":"address","name":"i","type":"address"}],"name":"getSellerDetails","outputs":[{"internalType":"string","name":"","type":"string"},{"internalType":"uint256","name":"","type":"uint256"},{"internalType":"string","name":"","type":"string"},{"internalType":"string","name":"","type":"string"},{"internalType":"string","name":"","type":"string"},{"internalType":"string","name":"","type":"string"}],"stateMutability":"view","type":"function"},{"inputs":[],"name":"getSellersCount","outputs":[{"internalType":"uint256","name":"","type":"uint256"}],"stateMutability":"view","type":"function"},{"inputs":[{"internalType":"uint256","name":"i","type":"uint256"}],"name":"getState","outputs":[{"internalType":"string","name":"","type":"string"}],"stateMutability":"view","type":"function"},{"inputs":[{"internalType":"uint256","name":"i","type":"uint256"}],"name":"getSurveyNumber","outputs":[{"internalType":"uint256","name":"","type":"uint256"}],"stateMutability":"view","type":"function"},{"inputs":[],"name":"inspectorsCount","outputs":[{"internalType":"uint256","name":"","type":"uint256"}],"stateMutability":"view","type":"function"},{"inputs":[{"internalType":"uint256","name":"_id","type":"uint256"}],"name":"isApproved","outputs":[{"internalType":"bool","name":"","type":"bool"}],"stateMutability":"view","type":"function"},{"inputs":[{"internalType":"address","name":"_id","type":"address"}],"name":"isBuyer","outputs":[{"internalType":"bool","name":"","type":"bool"}],"stateMutability":"view","type":"function"},{"inputs":[{"internalType":"address","name":"_id","type":"address"}],"name":"isLandInspector","outputs":[{"internalType":"bool","name":"","type":"bool"}],"stateMutability":"view","type":"function"},{"inputs":[{"internalType":"uint256","name":"_id","type":"uint256"}],"name":"isLandVerified","outputs":[{"internalType":"bool","name":"","type":"bool"}],"stateMutability":"view","type":"function"},{"inputs":[{"internalType":"uint256","name":"_landId","type":"uint256"}],"name":"isPaid","outputs":[{"internalType":"bool","name":"","type":"bool"}],"stateMutability":"view","type":"function"},{"inputs":[{"internalType":"address","name":"_id","type":"address"}],"name":"isRegistered","outputs":[{"internalType":"bool","name":"","type":"bool"}],"stateMutability":"view","type":"function"},{"inputs":[{"internalType":"address","name":"_id","type":"address"}],"name":"isRejected","outputs":[{"internalType":"bool","name":"","type":"bool"}],"stateMutability":"view","type":"function"},{"inputs":[{"internalType":"uint256","name":"_id","type":"uint256"}],"name":"isRequested","outputs":[{"internalType":"bool","name":"","type":"bool"}],"stateMutability":"view","type":"function"},{"inputs":[{"internalType":"address","name":"_id","type":"address"}],"name":"isSeller","outputs":[{"internalType":"bool","name":"","type":"bool"}],"stateMutability":"view","type":"function"},{"inputs":[{"internalType":"address","name":"_id","type":"address"}],"name":"isVerified","outputs":[{"internalType":"bool","name":"","type":"bool"}],"stateMutability":"view","type":"function"},{"inputs":[{"internalType":"uint256","name":"","type":"uint256"}],"name":"lands","outputs":[{"internalType":"uint256","name":"id","type":"uint256"},{"internalType":"uint256","name":"area","type":"uint256"},{"internalType":"string","name":"city","type":"string"},{"internalType":"string","name":"state","type":"string"},{"internalType":"uint256","name":"landPrice","type":"uint256"},{"internalType":"uint256","name":"propertyPID","type":"uint256"},{"internalType":"uint256","name":"physicalSurveyNumber","type":"uint256"},{"internalType":"string","name":"ipfsHash","type":"string"},{"internalType":"string","name":"document","type":"string"}],"stateMutability":"view","type":"function"},{"inputs":[],"name":"landsCount","outputs":[{"internalType":"uint256","name":"","type":"uint256"}],"stateMutability":"view","type":"function"},{"inputs":[{"internalType":"address payable","name":"_receiver","type":"address"},{"internalType":"uint256","name":"_landId","type":"uint256"}],"name":"payment","outputs":[],"stateMutability":"payable","type":"function"},{"inputs":[{"internalType":"string","name":"_name","type":"string"},{"internalType":"uint256","name":"_age","type":"uint256"},{"internalType":"string","name":"_city","type":"string"},{"internalType":"string","name":"_aadharNumber","type":"string"},{"internalType":"string","name":"_panNumber","type":"string"},{"internalType":"string","name":"_document","type":"string"},{"internalType":"string","name":"_email","type":"string"}],"name":"registerBuyer","outputs":[],"stateMutability":"nonpayable","type":"function"},{"inputs":[{"internalType":"string","name":"_name","type":"string"},{"internalType":"uint256","name":"_age","type":"uint256"},{"internalType":"string","name":"_aadharNumber","type":"string"},{"internalType":"string","name":"_panNumber","type":"string"},{"internalType":"string","name":"_landsOwned","type":"string"},{"internalType":"string","name":"_document","type":"string"}],"name":"registerSeller","outputs":[],"stateMutability":"nonpayable","type":"function"},{"inputs":[{"internalType":"address","name":"_buyerId","type":"address"}],"name":"rejectBuyer","outputs":[],"stateMutability":"nonpayable","type":"function"},{"inputs":[{"internalType":"address","name":"_sellerId","type":"address"}],"name":"rejectSeller","outputs":[],"stateMutability":"nonpayable","type":"function"},{"inputs":[{"internalType":"address","name":"_sellerId","type":"address"},{"internalType":"uint256","name":"_landId","type":"uint256"}],"name":"requestLand","outputs":[],"stateMutability":"nonpayable","type":"function"},{"inputs":[],"name":"requestsCount","outputs":[{"internalType":"uint256","name":"","type":"uint256"}],"stateMutability":"view","type":"function"},{"inputs":[{"internalType":"uint256","name":"","type":"uint256"}],"name":"sellers","outputs":[{"internalType":"address","name":"","type":"address"}],"stateMutability":"view","type":"function"},{"inputs":[],"name":"sellersCount","outputs":[{"internalType":"uint256","name":"","type":"uint256"}],"stateMutability":"view","type":"function"},{"inputs":[{"internalType":"string","name":"_name","type":"string"},{"internalType":"uint256","name":"_age","type":"uint256"},{"internalType":"string","name":"_city","type":"string"},{"internalType":"string","name":"_aadharNumber","type":"string"},{"internalType":"string","name":"_email","type":"string"},{"internalType":"string","name":"_panNumber","type":"string"}],"name":"updateBuyer","outputs":[],"stateMutability":"nonpayable","type":"function"},{"inputs":[{"internalType":"string","name":"_name","type":"string"},{"internalType":"uint256","name":"_age","type":"uint256"},{"internalType":"string","name":"_aadharNumber","type":"string"},{"internalType":"string","name":"_panNumber","type":"string"},{"internalType":"string","name":"_landsOwned","type":"string"}],"name":"updateSeller","outputs":[],"stateMutability":"nonpayable","type":"function"},{"inputs":[{"internalType":"address","name":"_buyerId","type":"address"}],"name":"verifyBuyer","outputs":[],"stateMutability":"nonpayable","type":"function"},{"inputs":[{"internalType":"uint256","name":"_landId","type":"uint256"}],"name":"verifyLand","outputs":[],"stateMutability":"nonpayable","type":"function"},{"inputs":[{"internalType":"address","name":"_sellerId","type":"address"}],"name":"verifySeller","outputs":[],"stateMutability":"nonpayable","type":"function"}],"evm":{"bytecode":{"linkReferences":{},"object":"60806040523480156200001157600080fd5b50601180546001600160a01b03191633179055604080518082018252600b81526a496e73706563746f72203160a81b6020808301919091528251808401909352600e83526d2a32b439b4b61026b0b730b3b2b960911b908301526200007991602d906200007f565b620002a1565b6015805490600062000091836200010c565b90915550506040805160808101825260155480825260208083018781528385018790526060840186905260009283526001918290529390912082518155925191929190820190620000e39082620001d5565b506040820151600282015560608201516003820190620001049082620001d5565b505050505050565b6000600182016200012d57634e487b7160e01b600052601160045260246000fd5b5060010190565b634e487b7160e01b600052604160045260246000fd5b600181811c908216806200015f57607f821691505b6020821081036200018057634e487b7160e01b600052602260045260246000fd5b50919050565b601f821115620001d057600081815260208120601f850160051c81016020861015620001af5750805b601f850160051c820191505b818110156200010457828155600101620001bb565b505050565b81516001600160401b03811115620001f157620001f162000134565b62000209816200020284546200014a565b8462000186565b602080601f831160018114620002415760008415620002285750858301515b600019600386901b1c1916600185901b17855562000104565b600085815260208120601f198616915b82811015620002725788860151825594840194600190910190840162000251565b5085821015620002915787850151600019600388901b60f8161c191681555b5050505050600190811b01905550565b61370080620002b16000396000f3fe6080604052600436106104145760003560e01c8063a47d4c0211610228578063dd9d122d11610128578063e7572230116100bb578063f34d4c631161008a578063f58f85b51161006f578063f58f85b514610e3f578063f9c43bdf14610e6f578063fbfa4b7f14610e8f57600080fd5b8063f34d4c6314610d95578063f3f0c21814610e1f57600080fd5b8063e757223014610d10578063ee95feaf14610d40578063f0d3a9df14610d60578063f2aa821814610d7557600080fd5b8063e1ecc794116100f7578063e1ecc79414610c6b578063e261f1e514610c8b578063e4b2611514610cc0578063e530c40014610cf057600080fd5b8063dd9d122d14610bd3578063dec091ad14610be8578063def936c314610c1b578063e165af8714610c4b57600080fd5b8063bed403c7116101bb578063cee26ed51161018a578063d71306511161016f578063d713065114610b7e578063d7d1bbdb14610b9e578063dbd0e1b614610bbe57600080fd5b8063cee26ed514610b3e578063d1760e6014610b5e57600080fd5b8063bed403c714610abe578063c3c5a54714610ade578063c560b4e514610afe578063cd392a8314610b1e57600080fd5b8063b0a5dcd3116101f7578063b0a5dcd3146109d7578063b3c8fe8514610a56578063b9209e3314610a88578063ba49a08c14610aa857600080fd5b8063a47d4c0214610913578063a4a0f6c014610943578063a6dc41fb14610973578063ab517074146109a357600080fd5b8063601e7c34116103335780637910867b116102c65780639338364811610295578063989376b41161027a578063989376b4146108975780639ae9711e146108c75780639dc1bfa9146108dd57600080fd5b80639338364814610861578063941e24261461088157600080fd5b80637910867b146107c157806383546501146107e15780638965cde11461081157806389d213541461083157600080fd5b806367a09c231161030257806367a09c231461073b5780636814800b1461074e57806368cfe6ee1461076e5780636cbf6cf8146107a157600080fd5b8063601e7c3414610689578063603daf9a146106b957806363f17143146106db5780636490c7a81461070b57600080fd5b80632607aafa116103ab57806344c9af281161037a57806344c9af28146105f957806348a46bd3146106195780634daa9dae146106395780634e2cba091461066957600080fd5b80632607aafa146105775780632a55feec146105a45780633410452a146105c45780633f9b250a146105d957600080fd5b8063170f3909116103e7578063170f3909146104c35780631869a38b146104fb5780631a07f76e146105315780631c9afd0f1461056157600080fd5b806307d56ac01461041957806311ce462c1461045c578063155fec721461047e57806316d9d666146104ae575b600080fd5b34801561042557600080fd5b50610449610434366004612d3a565b60009081526020819052604090206005015490565b6040519081526020015b60405180910390f35b34801561046857600080fd5b5061047c610477366004612df6565b610ea5565b005b34801561048a57600080fd5b5061049e610499366004612d3a565b610f84565b6040519015158152602001610453565b3480156104ba57600080fd5b50601454610449565b3480156104cf57600080fd5b506011546104e3906001600160a01b031681565b6040516001600160a01b039091168152602001610453565b34801561050757600080fd5b506104e3610516366004612d3a565b6000908152600d60205260409020546001600160a01b031690565b34801561053d57600080fd5b5061049e61054c366004612d3a565b60106020526000908152604090205460ff1681565b34801561056d57600080fd5b5061044960145481565b34801561058357600080fd5b50610597610592366004612d3a565b610fa8565b6040516104539190612f16565b3480156105b057600080fd5b5061049e6105bf366004612f48565b61104d565b3480156105d057600080fd5b50601854610449565b3480156105e557600080fd5b506105976105f4366004612d3a565b611076565b34801561060557600080fd5b50610597610614366004612d3a565b611096565b34801561062557600080fd5b5061049e610634366004612f48565b6110b6565b34801561064557600080fd5b5061049e610654366004612d3a565b600f6020526000908152604090205460ff1681565b34801561067557600080fd5b5061047c610684366004612f65565b611102565b34801561069557600080fd5b5061049e6106a4366004612f48565b60066020526000908152604090205460ff1681565b3480156106c557600080fd5b506106ce6112d7565b6040516104539190613065565b3480156106e757600080fd5b5061049e6106f6366004612f48565b60096020526000908152604090205460ff1681565b34801561071757600080fd5b50610449610726366004612d3a565b60009081526020819052604090206001015490565b61047c6107493660046130b2565b611339565b34801561075a57600080fd5b5061047c610769366004612f48565b61138b565b34801561077a57600080fd5b5061078e610789366004612f48565b6113f8565b60405161045397969594939291906130de565b3480156107ad57600080fd5b5061049e6107bc366004612d3a565b6117a3565b3480156107cd57600080fd5b5061049e6107dc366004612d3a565b6117c2565b3480156107ed57600080fd5b5061049e6107fc366004612d3a565b600c6020526000908152604090205460ff1681565b34801561081d57600080fd5b5061047c61082c366004612f48565b6117e1565b34801561083d57600080fd5b5061049e61084c366004612d3a565b600e6020526000908152604090205460ff1681565b34801561086d57600080fd5b5061047c61087c366004612df6565b611847565b34801561088d57600080fd5b5061044960155481565b3480156108a357600080fd5b5061049e6108b2366004612f48565b600b6020526000908152604090205460ff1681565b3480156108d357600080fd5b5061044960165481565b3480156108e957600080fd5b506104e36108f8366004612d3a565b600d602052600090815260409020546001600160a01b031681565b34801561091f57600080fd5b5061049e61092e366004612f48565b60076020526000908152604090205460ff1681565b34801561094f57600080fd5b5061044961095e366004612d3a565b60009081526020819052604090206006015490565b34801561097f57600080fd5b5061049e61098e366004612f48565b600a6020526000908152604090205460ff1681565b3480156109af57600080fd5b506109c36109be366004612f48565b6119fe565b604051610453989796959493929190613167565b3480156109e357600080fd5b50610a266109f2366004612d3a565b600460205260009081526040902080546001820154600283015460039093015491926001600160a01b039182169291169084565b60405161045394939291909384526001600160a01b03928316602085015291166040830152606082015260800190565b348015610a6257600080fd5b50610a76610a71366004612f48565b611d79565b60405161045396959493929190613203565b348015610a9457600080fd5b5061049e610aa3366004612f48565b612091565b348015610ab457600080fd5b5061044960175481565b348015610aca57600080fd5b5061047c610ad9366004613277565b6120dc565b348015610aea57600080fd5b5061049e610af9366004612f48565b61211c565b348015610b0a57600080fd5b5061047c610b193660046132a7565b612145565b348015610b2a57600080fd5b5061049e610b39366004612d3a565b612207565b348015610b4a57600080fd5b506104e3610b59366004612d3a565b612226565b348015610b6a57600080fd5b5061047c610b79366004612f48565b612250565b348015610b8a57600080fd5b50610597610b99366004612d3a565b6122b6565b348015610baa57600080fd5b5061047c610bb9366004612d3a565b6122d6565b348015610bca57600080fd5b506106ce612313565b348015610bdf57600080fd5b50601654610449565b348015610bf457600080fd5b50610c08610c03366004612f48565b612373565b604051610453979695949392919061335e565b348015610c2757600080fd5b50610c3b610c36366004612d3a565b612660565b60405161045394939291906133d4565b348015610c5757600080fd5b5061049e610c66366004612f48565b612798565b348015610c7757600080fd5b5061047c610c86366004612f48565b6127c0565b348015610c9757600080fd5b50610cab610ca6366004612d3a565b612826565b60405161045399989796959493929190613410565b348015610ccc57600080fd5b5061049e610cdb366004612f48565b60086020526000908152604090205460ff1681565b348015610cfc57600080fd5b5061047c610d0b36600461348f565b612a8d565b348015610d1c57600080fd5b50610449610d2b366004612d3a565b60009081526020819052604090206004015490565b348015610d4c57600080fd5b5061049e610d5b366004612f48565b612bc5565b348015610d6c57600080fd5b50601754610449565b348015610d8157600080fd5b506104e3610d90366004612d3a565b612bee565b348015610da157600080fd5b50610df2610db0366004612d3a565b600090815260046020908152604080832060018101546002820154600390920154600e90945291909320546001600160a01b0391821694919093169260ff1690565b604080516001600160a01b0395861681529490931660208501529183015215156060820152608001610453565b348015610e2b57600080fd5b5061047c610e3a3660046130b2565b612bfe565b348015610e4b57600080fd5b5061049e610e5a366004612f48565b60056020526000908152604090205460ff1681565b348015610e7b57600080fd5b5061047c610e8a366004612d3a565b612d0d565b348015610e9b57600080fd5b5061044960185481565b3360009081526005602052604090205460ff168015610eda5750336000818152600360205260409020546001600160a01b0316145b610ee357600080fd5b336000908152600360205260409020600101610eff87826135e3565b503360009081526003602081905260409091206002810187905501610f2485826135e3565b50336000908152600360205260409020600401610f4184826135e3565b50336000908152600360205260409020600701610f5e83826135e3565b50336000908152600360205260409020600501610f7b82826135e3565b50505050505050565b6000818152600f602052604081205460ff1615610fa357506001919050565b919050565b6000818152602081905260409020600701805460609190610fc890613563565b80601f0160208091040260200160405190810160405280929190818152602001828054610ff490613563565b80156110415780601f1061101657610100808354040283529160200191611041565b820191906000526020600020905b81548152906001019060200180831161102457829003601f168201915b50505050509050919050565b6001600160a01b03811660009081526007602052604081205460ff1615610fa357506001919050565b6000818152602081905260409020600801805460609190610fc890613563565b6000818152602081905260409020600301805460609190610fc890613563565b6001600160a01b03811660009081526009602052604081205460ff16806110f557506001600160a01b0382166000908152600b602052604090205460ff165b15610fa357506001919050565b3360009081526005602052604090205460ff161561111f57600080fd5b3360009081526005602090815260408083208054600160ff19918216811790925560079093529083208054909216179055601780549161115e836136a3565b909155505060408051610100810182523380825260208083018b81528385018b9052606084018a90526080840189905260a0840188905260c0840187905260e0840186905260009283526003909152929020815181546001600160a01b0319166001600160a01b03909116178155915190919060018201906111e090826135e3565b5060408201516002820155606082015160038201906111ff90826135e3565b506080820151600482019061121490826135e3565b5060a0820151600582019061122990826135e3565b5060c0820151600682019061123e90826135e3565b5060e0820151600782019061125390826135e3565b5050601380546001810182556000919091527f66de8ffda797e3de9c05e8fc57b3bf0ec28a930d40b0d285d93c06501cf6a0900180546001600160a01b031916339081179091556040519081527f478f5152d8fc568db3f8de9fb402fd9d98a1a7541ecfe434e59cf574fbfc5524915060200160405180910390a150505050505050565b6060601380548060200260200160405190810160405280929190818152602001828054801561132f57602002820191906000526020600020905b81546001600160a01b03168152600190910190602001808311611311575b5050505050905090565b600081815260106020526040808220805460ff19166001179055516001600160a01b038416913480156108fc02929091818181858888f19350505050158015611386573d6000803e3d6000fd5b505050565b61139433612798565b61139d57600080fd5b6001600160a01b0381166000818152600a6020908152604091829020805460ff1916600117905590519182527f6a6455914f452787eb3985452aceedc1000fb545e394eb3b370e3d08958e0a5b91015b60405180910390a150565b6001600160a01b0381166000908152600360208190526040822060028101546001820180546060958695869586958695939486949383019260058101926006820192600783019260040190879061144e90613563565b80601f016020809104026020016040519081016040528092919081815260200182805461147a90613563565b80156114c75780601f1061149c576101008083540402835291602001916114c7565b820191906000526020600020905b8154815290600101906020018083116114aa57829003601f168201915b505050505096508580546114da90613563565b80601f016020809104026020016040519081016040528092919081815260200182805461150690613563565b80156115535780601f1061152857610100808354040283529160200191611553565b820191906000526020600020905b81548152906001019060200180831161153657829003601f168201915b5050505050955084805461156690613563565b80601f016020809104026020016040519081016040528092919081815260200182805461159290613563565b80156115df5780601f106115b4576101008083540402835291602001916115df565b820191906000526020600020905b8154815290600101906020018083116115c257829003601f168201915b505050505094508380546115f290613563565b80601f016020809104026020016040519081016040528092919081815260200182805461161e90613563565b801561166b5780601f106116405761010080835404028352916020019161166b565b820191906000526020600020905b81548152906001019060200180831161164e57829003601f168201915b5050505050935082805461167e90613563565b80601f01602080910402602001604051908101604052809291908181526020018280546116aa90613563565b80156116f75780601f106116cc576101008083540402835291602001916116f7565b820191906000526020600020905b8154815290600101906020018083116116da57829003601f168201915b5050505050925080805461170a90613563565b80601f016020809104026020016040519081016040528092919081815260200182805461173690613563565b80156117835780601f1061175857610100808354040283529160200191611783565b820191906000526020600020905b81548152906001019060200180831161176657829003601f168201915b505050505090509650965096509650965096509650919395979092949650565b6000818152600c602052604081205460ff1615610fa357506001919050565b6000818152600e602052604081205460ff1615610fa357506001919050565b6117ea33612798565b6117f357600080fd5b6001600160a01b0381166000818152600b6020908152604091829020805460ff1916600117905590519182527faf77f8960cf590e245ec8b6d41c193a5dcacad8986ae4eb57ac9e5be7b6af03191016113ed565b3360009081526005602052604090205460ff161561186457600080fd5b3360009081526005602090815260408083208054600160ff1991821681179092556006909352908320805490921617905560168054916118a3836136a3565b90915550506040805160e0810182523380825260208083018a81528385018a9052606084018990526080840188905260a0840187905260c0840186905260009283526002909152929020815181546001600160a01b0319166001600160a01b039091161781559151909190600182019061191d90826135e3565b50604082015160028201556060820151600382019061193c90826135e3565b506080820151600482019061195190826135e3565b5060a0820151600582019061196690826135e3565b5060c0820151600682019061197b90826135e3565b5050601280546001810182556000919091527fbb8a6a4669ba250d26cd7a459eca9d215f8307e33aebe50379bc5a3617ec34440180546001600160a01b031916339081179091556040519081527f478f5152d8fc568db3f8de9fb402fd9d98a1a7541ecfe434e59cf574fbfc5524915060200160405180910390a1505050505050565b600360205260009081526040902080546001820180546001600160a01b039092169291611a2a90613563565b80601f0160208091040260200160405190810160405280929190818152602001828054611a5690613563565b8015611aa35780601f10611a7857610100808354040283529160200191611aa3565b820191906000526020600020905b815481529060010190602001808311611a8657829003601f168201915b505050505090806002015490806003018054611abe90613563565b80601f0160208091040260200160405190810160405280929190818152602001828054611aea90613563565b8015611b375780601f10611b0c57610100808354040283529160200191611b37565b820191906000526020600020905b815481529060010190602001808311611b1a57829003601f168201915b505050505090806004018054611b4c90613563565b80601f0160208091040260200160405190810160405280929190818152602001828054611b7890613563565b8015611bc55780601f10611b9a57610100808354040283529160200191611bc5565b820191906000526020600020905b815481529060010190602001808311611ba857829003601f168201915b505050505090806005018054611bda90613563565b80601f0160208091040260200160405190810160405280929190818152602001828054611c0690613563565b8015611c535780601f10611c2857610100808354040283529160200191611c53565b820191906000526020600020905b815481529060010190602001808311611c3657829003601f168201915b505050505090806006018054611c6890613563565b80601f0160208091040260200160405190810160405280929190818152602001828054611c9490613563565b8015611ce15780601f10611cb657610100808354040283529160200191611ce1565b820191906000526020600020905b815481529060010190602001808311611cc457829003601f168201915b505050505090806007018054611cf690613563565b80601f0160208091040260200160405190810160405280929190818152602001828054611d2290613563565b8015611d6f5780601f10611d4457610100808354040283529160200191611d6f565b820191906000526020600020905b815481529060010190602001808311611d5257829003601f168201915b5050505050905088565b6001600160a01b03811660009081526002602081905260408220908101546001820180546060949385938493849384939192916003810191600482019160058101916006909101908690611dcc90613563565b80601f0160208091040260200160405190810160405280929190818152602001828054611df890613563565b8015611e455780601f10611e1a57610100808354040283529160200191611e45565b820191906000526020600020905b815481529060010190602001808311611e2857829003601f168201915b50505050509550838054611e5890613563565b80601f0160208091040260200160405190810160405280929190818152602001828054611e8490613563565b8015611ed15780601f10611ea657610100808354040283529160200191611ed1565b820191906000526020600020905b815481529060010190602001808311611eb457829003601f168201915b50505050509350828054611ee490613563565b80601f0160208091040260200160405190810160405280929190818152602001828054611f1090613563565b8015611f5d5780601f10611f3257610100808354040283529160200191611f5d565b820191906000526020600020905b815481529060010190602001808311611f4057829003601f168201915b50505050509250818054611f7090613563565b80601f0160208091040260200160405190810160405280929190818152602001828054611f9c90613563565b8015611fe95780601f10611fbe57610100808354040283529160200191611fe9565b820191906000526020600020905b815481529060010190602001808311611fcc57829003601f168201915b50505050509150808054611ffc90613563565b80601f016020809104026020016040519081016040528092919081815260200182805461202890613563565b80156120755780601f1061204a57610100808354040283529160200191612075565b820191906000526020600020905b81548152906001019060200180831161205857829003601f168201915b5050505050905095509550955095509550955091939550919395565b6001600160a01b03811660009081526008602052604081205460ff16806110f557506001600160a01b0382166000908152600a602052604090205460ff1615610fa357506001919050565b6120e533612798565b6120ee57600080fd5b6000918252600d602052604090912080546001600160a01b0319166001600160a01b03909216919091179055565b6001600160a01b03811660009081526005602052604081205460ff1615610fa357506001919050565b3360009081526005602052604090205460ff16801561217a5750336000818152600260205260409020546001600160a01b0316145b61218357600080fd5b33600090815260026020526040902060010161219f86826135e3565b503360009081526002602081905260409091209081018590556003016121c584826135e3565b503360009081526002602052604090206004016121e283826135e3565b503360009081526002602052604090206005016121ff82826135e3565b505050505050565b60008181526010602052604081205460ff1615610fa357506001919050565b6012818154811061223657600080fd5b6000918252602090912001546001600160a01b0316905081565b61225933612798565b61226257600080fd5b6001600160a01b038116600081815260086020908152604091829020805460ff1916600117905590519182527f6a6455914f452787eb3985452aceedc1000fb545e394eb3b370e3d08958e0a5b91016113ed565b6000818152602081905260409020600201805460609190610fc890613563565b6122df33612bc5565b80156122ef57506122ef33612091565b6122f857600080fd5b6000908152600e60205260409020805460ff19166001179055565b6060601280548060200260200160405190810160405280929190818152602001828054801561132f576020028201919060005260206000209081546001600160a01b03168152600190910190602001808311611311575050505050905090565b600260205260009081526040902080546001820180546001600160a01b03909216929161239f90613563565b80601f01602080910402602001604051908101604052809291908181526020018280546123cb90613563565b80156124185780601f106123ed57610100808354040283529160200191612418565b820191906000526020600020905b8154815290600101906020018083116123fb57829003601f168201915b50505050509080600201549080600301805461243390613563565b80601f016020809104026020016040519081016040528092919081815260200182805461245f90613563565b80156124ac5780601f10612481576101008083540402835291602001916124ac565b820191906000526020600020905b81548152906001019060200180831161248f57829003601f168201915b5050505050908060040180546124c190613563565b80601f01602080910402602001604051908101604052809291908181526020018280546124ed90613563565b801561253a5780601f1061250f5761010080835404028352916020019161253a565b820191906000526020600020905b81548152906001019060200180831161251d57829003601f168201915b50505050509080600501805461254f90613563565b80601f016020809104026020016040519081016040528092919081815260200182805461257b90613563565b80156125c85780601f1061259d576101008083540402835291602001916125c8565b820191906000526020600020905b8154815290600101906020018083116125ab57829003601f168201915b5050505050908060060180546125dd90613563565b80601f016020809104026020016040519081016040528092919081815260200182805461260990613563565b80156126565780601f1061262b57610100808354040283529160200191612656565b820191906000526020600020905b81548152906001019060200180831161263957829003601f168201915b5050505050905087565b60016020819052600091825260409091208054918101805461268190613563565b80601f01602080910402602001604051908101604052809291908181526020018280546126ad90613563565b80156126fa5780601f106126cf576101008083540402835291602001916126fa565b820191906000526020600020905b8154815290600101906020018083116126dd57829003601f168201915b50505050509080600201549080600301805461271590613563565b80601f016020809104026020016040519081016040528092919081815260200182805461274190613563565b801561278e5780601f106127635761010080835404028352916020019161278e565b820191906000526020600020905b81548152906001019060200180831161277157829003601f168201915b5050505050905084565b6011546000906001600160a01b038084169116036127b857506001919050565b506000919050565b6127c933612798565b6127d257600080fd5b6001600160a01b038116600081815260096020908152604091829020805460ff1916600117905590519182527faf77f8960cf590e245ec8b6d41c193a5dcacad8986ae4eb57ac9e5be7b6af03191016113ed565b6000602081905290815260409020805460018201546002830180549293919261284e90613563565b80601f016020809104026020016040519081016040528092919081815260200182805461287a90613563565b80156128c75780601f1061289c576101008083540402835291602001916128c7565b820191906000526020600020905b8154815290600101906020018083116128aa57829003601f168201915b5050505050908060030180546128dc90613563565b80601f016020809104026020016040519081016040528092919081815260200182805461290890613563565b80156129555780601f1061292a57610100808354040283529160200191612955565b820191906000526020600020905b81548152906001019060200180831161293857829003601f168201915b50505050509080600401549080600501549080600601549080600701805461297c90613563565b80601f01602080910402602001604051908101604052809291908181526020018280546129a890613563565b80156129f55780601f106129ca576101008083540402835291602001916129f5565b820191906000526020600020905b8154815290600101906020018083116129d857829003601f168201915b505050505090806008018054612a0a90613563565b80601f0160208091040260200160405190810160405280929190818152602001828054612a3690613563565b8015612a835780601f10612a5857610100808354040283529160200191612a83565b820191906000526020600020905b815481529060010190602001808311612a6657829003601f168201915b5050505050905089565b612a9633612bc5565b8015612aa65750612aa633612091565b612aaf57600080fd5b60148054906000612abf836136a3565b9091555050604080516101208101825260145480825260208083018c81528385018c8152606085018c9052608085018b905260a085018a905260c0850189905260e085018890526101008501879052600093845291839052939091208251815592516001840155519091906002820190612b3990826135e3565b5060608201516003820190612b4e90826135e3565b506080820151600482015560a0820151600582015560c0820151600682015560e08201516007820190612b8190826135e3565b506101008201516008820190612b9790826135e3565b50506014546000908152600d6020526040902080546001600160a01b03191633179055505050505050505050565b6001600160a01b03811660009081526006602052604081205460ff1615610fa357506001919050565b6013818154811061223657600080fd5b612c073361104d565b8015612c175750612c1733612091565b612c2057600080fd5b60188054906000612c30836136a3565b909155505060408051608081018252601880548083526001600160a01b03868116602080860182815233878901908152606088018a81526000968752600484528987209851895591516001808a0180549288166001600160a01b0319938416179055915160028a018054919097169116179094555160039096019590955583548352600e8552858320805460ff1990811690915593548352600f85529185902080549093161790915591519182527fc67eb70629da758128cec22f7e36ad0676066ad4df9b66e8ba58a30c1ab4075b910160405180910390a15050565b612d1633612798565b612d1f57600080fd5b6000908152600c60205260409020805460ff19166001179055565b600060208284031215612d4c57600080fd5b5035919050565b634e487b7160e01b600052604160045260246000fd5b600082601f830112612d7a57600080fd5b813567ffffffffffffffff80821115612d9557612d95612d53565b604051601f8301601f19908116603f01168101908282118183101715612dbd57612dbd612d53565b81604052838152866020858801011115612dd657600080fd5b836020870160208301376000602085830101528094505050505092915050565b60008060008060008060c08789031215612e0f57600080fd5b863567ffffffffffffffff80821115612e2757600080fd5b612e338a838b01612d69565b9750602089013596506040890135915080821115612e5057600080fd5b612e5c8a838b01612d69565b95506060890135915080821115612e7257600080fd5b612e7e8a838b01612d69565b94506080890135915080821115612e9457600080fd5b612ea08a838b01612d69565b935060a0890135915080821115612eb657600080fd5b50612ec389828a01612d69565b9150509295509295509295565b6000815180845260005b81811015612ef657602081850181015186830182015201612eda565b506000602082860101526020601f19601f83011685010191505092915050565b602081526000612f296020830184612ed0565b9392505050565b6001600160a01b0381168114612f4557600080fd5b50565b600060208284031215612f5a57600080fd5b8135612f2981612f30565b600080600080600080600060e0888a031215612f8057600080fd5b873567ffffffffffffffff80821115612f9857600080fd5b612fa48b838c01612d69565b985060208a0135975060408a0135915080821115612fc157600080fd5b612fcd8b838c01612d69565b965060608a0135915080821115612fe357600080fd5b612fef8b838c01612d69565b955060808a013591508082111561300557600080fd5b6130118b838c01612d69565b945060a08a013591508082111561302757600080fd5b6130338b838c01612d69565b935060c08a013591508082111561304957600080fd5b506130568a828b01612d69565b91505092959891949750929550565b6020808252825182820181905260009190848201906040850190845b818110156130a65783516001600160a01b031683529284019291840191600101613081565b50909695505050505050565b600080604083850312156130c557600080fd5b82356130d081612f30565b946020939093013593505050565b60e0815260006130f160e083018a612ed0565b8281036020840152613103818a612ed0565b905082810360408401526131178189612ed0565b9050828103606084015261312b8188612ed0565b9050828103608084015261313f8187612ed0565b90508460a084015282810360c08401526131598185612ed0565b9a9950505050505050505050565b60006101006001600160a01b038b16835280602084015261318a8184018b612ed0565b905088604084015282810360608401526131a48189612ed0565b905082810360808401526131b88188612ed0565b905082810360a08401526131cc8187612ed0565b905082810360c08401526131e08186612ed0565b905082810360e08401526131f48185612ed0565b9b9a5050505050505050505050565b60c08152600061321660c0830189612ed0565b876020840152828103604084015261322e8188612ed0565b905082810360608401526132428187612ed0565b905082810360808401526132568186612ed0565b905082810360a084015261326a8185612ed0565b9998505050505050505050565b6000806040838503121561328a57600080fd5b82359150602083013561329c81612f30565b809150509250929050565b600080600080600060a086880312156132bf57600080fd5b853567ffffffffffffffff808211156132d757600080fd5b6132e389838a01612d69565b965060208801359550604088013591508082111561330057600080fd5b61330c89838a01612d69565b9450606088013591508082111561332257600080fd5b61332e89838a01612d69565b9350608088013591508082111561334457600080fd5b5061335188828901612d69565b9150509295509295909350565b6001600160a01b038816815260e06020820152600061338060e0830189612ed0565b87604084015282810360608401526133988188612ed0565b905082810360808401526133ac8187612ed0565b905082810360a08401526133c08186612ed0565b905082810360c08401526131598185612ed0565b8481526080602082015260006133ed6080830186612ed0565b84604084015282810360608401526134058185612ed0565b979650505050505050565b60006101208b83528a60208401528060408401526134308184018b612ed0565b90508281036060840152613444818a612ed0565b90508760808401528660a08401528560c084015282810360e084015261346a8186612ed0565b905082810361010084015261347f8185612ed0565b9c9b505050505050505050505050565b600080600080600080600080610100898b0312156134ac57600080fd5b88359750602089013567ffffffffffffffff808211156134cb57600080fd5b6134d78c838d01612d69565b985060408b01359150808211156134ed57600080fd5b6134f98c838d01612d69565b975060608b0135965060808b0135955060a08b0135945060c08b013591508082111561352457600080fd5b6135308c838d01612d69565b935060e08b013591508082111561354657600080fd5b506135538b828c01612d69565b9150509295985092959890939650565b600181811c9082168061357757607f821691505b60208210810361359757634e487b7160e01b600052602260045260246000fd5b50919050565b601f82111561138657600081815260208120601f850160051c810160208610156135c45750805b601f850160051c820191505b818110156121ff578281556001016135d0565b815167ffffffffffffffff8111156135fd576135fd612d53565b6136118161360b8454613563565b8461359d565b602080601f831160018114613646576000841561362e5750858301515b600019600386901b1c1916600185901b1785556121ff565b600085815260208120601f198616915b8281101561367557888601518255948401946001909101908401613656565b50858210156136935787850151600019600388901b60f8161c191681555b5050505050600190811b01905550565b6000600182016136c357634e487b7160e01b600052601160045260246000fd5b506001019056fea264697066735822122007fa1b07f34a840543a633e5c5b8552f36faff70e45d8499b1f3be3c7c51972664736f6c63430008130033","opcodes":"PUSH1 0x80 PUSH1 0x40 MSTORE CALLVALUE DUP1 ISZERO PUSH3 0x11 JUMPI PUSH1 0x0 DUP1 REVERT JUMPDEST POP PUSH1 0x11 DUP1 SLOAD PUSH1 0x1 PUSH1 0x1 PUSH1 0xA0 SHL SUB NOT AND CALLER OR SWAP1 SSTORE PUSH1 0x40 DUP1 MLOAD DUP1 DUP3 ADD DUP3 MSTORE PUSH1 0xB DUP2 MSTORE PUSH11 0x496E73706563746F722031 PUSH1 0xA8 SHL PUSH1 0x20 DUP1 DUP4 ADD SWAP2 SWAP1 SWAP2 MSTORE DUP3 MLOAD DUP1 DUP5 ADD SWAP1 SWAP4 MSTORE PUSH1 0xE DUP4 MSTORE PUSH14 0x2A32B439B4B61026B0B730B3B2B9 PUSH1 0x91 SHL SWAP1 DUP4 ADD MSTORE PUSH3 0x79 SWAP2 PUSH1 0x2D SWAP1 PUSH3 0x7F JUMP JUMPDEST PUSH3 0x2A1 JUMP JUMPDEST PUSH1 0x15 DUP1 SLOAD SWAP1 PUSH1 0x0 PUSH3 0x91 DUP4 PUSH3 0x10C JUMP JUMPDEST SWAP1 SWAP2 SSTORE POP POP PUSH1 0x40 DUP1 MLOAD PUSH1 0x80 DUP2 ADD DUP3 MSTORE PUSH1 0x15 SLOAD DUP1 DUP3 MSTORE PUSH1 0x20 DUP1 DUP4 ADD DUP8 DUP2 MSTORE DUP4 DUP6 ADD DUP8 SWAP1 MSTORE PUSH1 0x60 DUP5 ADD DUP7 SWAP1 MSTORE PUSH1 0x0 SWAP3 DUP4 MSTORE PUSH1 0x1 SWAP2 DUP3 SWAP1 MSTORE SWAP4 SWAP1 SWAP2 KECCAK256 DUP3 MLOAD DUP2 SSTORE SWAP3 MLOAD SWAP2 SWAP3 SWAP2 SWAP1 DUP3 ADD SWAP1 PUSH3 0xE3 SWAP1 DUP3 PUSH3 0x1D5 JUMP JUMPDEST POP PUSH1 0x40 DUP3 ADD MLOAD PUSH1 0x2 DUP3 ADD SSTORE PUSH1 0x60 DUP3 ADD MLOAD PUSH1 0x3 DUP3 ADD SWAP1 PUSH3 0x104 SWAP1 DUP3 PUSH3 0x1D5 JUMP JUMPDEST POP POP POP POP POP POP JUMP JUMPDEST PUSH1 0x0 PUSH1 0x1 DUP3 ADD PUSH3 0x12D JUMPI PUSH4 0x4E487B71 PUSH1 0xE0 SHL PUSH1 0x0 MSTORE PUSH1 0x11 PUSH1 0x4 MSTORE PUSH1 0x24 PUSH1 0x0 REVERT JUMPDEST POP PUSH1 0x1 ADD SWAP1 JUMP JUMPDEST PUSH4 0x4E487B71 PUSH1 0xE0 SHL PUSH1 0x0 MSTORE PUSH1 0x41 PUSH1 0x4 MSTORE PUSH1 0x24 PUSH1 0x0 REVERT JUMPDEST PUSH1 0x1 DUP2 DUP2 SHR SWAP1 DUP3 AND DUP1 PUSH3 0x15F JUMPI PUSH1 0x7F DUP3 AND SWAP2 POP JUMPDEST PUSH1 0x20 DUP3 LT DUP2 SUB PUSH3 0x180 JUMPI PUSH4 0x4E487B71 PUSH1 0xE0 SHL PUSH1 0x0 MSTORE PUSH1 0x22 PUSH1 0x4 MSTORE PUSH1 0x24 PUSH1 0x0 REVERT JUMPDEST POP SWAP2 SWAP1 POP JUMP JUMPDEST PUSH1 0x1F DUP3 GT ISZERO PUSH3 0x1D0 JUMPI PUSH1 0x0 DUP2 DUP2 MSTORE PUSH1 0x20 DUP2 KECCAK256 PUSH1 0x1F DUP6 ADD PUSH1 0x5 SHR DUP2 ADD PUSH1 0x20 DUP7 LT ISZERO PUSH3 0x1AF JUMPI POP DUP1 JUMPDEST PUSH1 0x1F DUP6 ADD PUSH1 0x5 SHR DUP3 ADD SWAP2 POP JUMPDEST DUP2 DUP2 LT ISZERO PUSH3 0x104 JUMPI DUP3 DUP2 SSTORE PUSH1 0x1 ADD PUSH3 0x1BB JUMP JUMPDEST POP POP POP JUMP JUMPDEST DUP2 MLOAD PUSH1 0x1 PUSH1 0x1 PUSH1 0x40 SHL SUB DUP2 GT ISZERO PUSH3 0x1F1 JUMPI PUSH3 0x1F1 PUSH3 0x134 JUMP JUMPDEST PUSH3 0x209 DUP2 PUSH3 0x202 DUP5 SLOAD PUSH3 0x14A JUMP JUMPDEST DUP5 PUSH3 0x186 JUMP JUMPDEST PUSH1 0x20 DUP1 PUSH1 0x1F DUP4 GT PUSH1 0x1 DUP2 EQ PUSH3 0x241 JUMPI PUSH1 0x0 DUP5 ISZERO PUSH3 0x228 JUMPI POP DUP6 DUP4 ADD MLOAD JUMPDEST PUSH1 0x0 NOT PUSH1 0x3 DUP7 SWAP1 SHL SHR NOT AND PUSH1 0x1 DUP6 SWAP1 SHL OR DUP6 SSTORE PUSH3 0x104 JUMP JUMPDEST PUSH1 0x0 DUP6 DUP2 MSTORE PUSH1 0x20 DUP2 KECCAK256 PUSH1 0x1F NOT DUP7 AND SWAP2 JUMPDEST DUP3 DUP2 LT ISZERO PUSH3 0x272 JUMPI DUP9 DUP7 ADD MLOAD DUP3 SSTORE SWAP5 DUP5 ADD SWAP5 PUSH1 0x1 SWAP1 SWAP2 ADD SWAP1 DUP5 ADD PUSH3 0x251 JUMP JUMPDEST POP DUP6 DUP3 LT ISZERO PUSH3 0x291 JUMPI DUP8 DUP6 ADD MLOAD PUSH1 0x0 NOT PUSH1 0x3 DUP9 SWAP1 SHL PUSH1 0xF8 AND SHR NOT AND DUP2 SSTORE JUMPDEST POP POP POP POP POP PUSH1 0x1 SWAP1 DUP2 SHL ADD SWAP1 SSTORE POP JUMP JUMPDEST PUSH2 0x3700 DUP1 PUSH3 0x2B1 PUSH1 0x0 CODECOPY PUSH1 0x0 RETURN INVALID PUSH1 0x80 PUSH1 0x40 MSTORE PUSH1 0x4 CALLDATASIZE LT PUSH2 0x414 JUMPI PUSH1 0x0 CALLDATALOAD PUSH1 0xE0 SHR DUP1 PUSH4 0xA47D4C02 GT PUSH2 0x228 JUMPI DUP1 PUSH4 0xDD9D122D GT PUSH2 0x128 JUMPI DUP1 PUSH4 0xE7572230 GT PUSH2 0xBB JUMPI DUP1 PUSH4 0xF34D4C63 GT PUSH2 0x8A JUMPI DUP1 PUSH4 0xF58F85B5 GT PUSH2 0x6F JUMPI DUP1 PUSH4 0xF58F85B5 EQ PUSH2 0xE3F JUMPI DUP1 PUSH4 0xF9C43BDF EQ PUSH2 0xE6F JUMPI DUP1 PUSH4 0xFBFA4B7F EQ PUSH2 0xE8F JUMPI PUSH1 0x0 DUP1 REVERT JUMPDEST DUP1 PUSH4 0xF34D4C63 EQ PUSH2 0xD95 JUMPI DUP1 PUSH4 0xF3F0C218 EQ PUSH2 0xE1F JUMPI PUSH1 0x0 DUP1 REVERT JUMPDEST DUP1 PUSH4 0xE7572230 EQ PUSH2 0xD10 JUMPI DUP1 PUSH4 0xEE95FEAF EQ PUSH2 0xD40 JUMPI DUP1 PUSH4 0xF0D3A9DF EQ PUSH2 0xD60 JUMPI DUP1 PUSH4 0xF2AA8218 EQ PUSH2 0xD75 JUMPI PUSH1 0x0 DUP1 REVERT JUMPDEST DUP1 PUSH4 0xE1ECC794 GT PUSH2 0xF7 JUMPI DUP1 PUSH4 0xE1ECC794 EQ PUSH2 0xC6B JUMPI DUP1 PUSH4 0xE261F1E5 EQ PUSH2 0xC8B JUMPI DUP1 PUSH4 0xE4B26115 EQ PUSH2 0xCC0 JUMPI DUP1 PUSH4 0xE530C400 EQ PUSH2 0xCF0 JUMPI PUSH1 0x0 DUP1 REVERT JUMPDEST DUP1 PUSH4 0xDD9D122D EQ PUSH2 0xBD3 JUMPI DUP1 PUSH4 0xDEC091AD EQ PUSH2 0xBE8 JUMPI DUP1 PUSH4 0xDEF936C3 EQ PUSH2 0xC1B JUMPI DUP1 PUSH4 0xE165AF87 EQ PUSH2 0xC4B JUMPI PUSH1 0x0 DUP1 REVERT JUMPDEST DUP1 PUSH4 0xBED403C7 GT PUSH2 0x1BB JUMPI DUP1 PUSH4 0xCEE26ED5 GT PUSH2 0x18A JUMPI DUP1 PUSH4 0xD7130651 GT PUSH2 0x16F JUMPI DUP1 PUSH4 0xD7130651 EQ PUSH2 0xB7E JUMPI DUP1 PUSH4 0xD7D1BBDB EQ PUSH2 0xB9E JUMPI DUP1 PUSH4 0xDBD0E1B6 EQ PUSH2 0xBBE JUMPI PUSH1 0x0 DUP1 REVERT JUMPDEST DUP1 PUSH4 0xCEE26ED5 EQ PUSH2 0xB3E JUMPI DUP1 PUSH4 0xD1760E60 EQ PUSH2 0xB5E JUMPI PUSH1 0x0 DUP1 REVERT JUMPDEST DUP1 PUSH4 0xBED403C7 EQ PUSH2 0xABE JUMPI DUP1 PUSH4 0xC3C5A547 EQ PUSH2 0xADE JUMPI DUP1 PUSH4 0xC560B4E5 EQ PUSH2 0xAFE JUMPI DUP1 PUSH4 0xCD392A83 EQ PUSH2 0xB1E JUMPI PUSH1 0x0 DUP1 REVERT JUMPDEST DUP1 PUSH4 0xB0A5DCD3 GT PUSH2 0x1F7 JUMPI DUP1 PUSH4 0xB0A5DCD3 EQ PUSH2 0x9D7 JUMPI DUP1 PUSH4 0xB3C8FE85 EQ PUSH2 0xA56 JUMPI DUP1 PUSH4 0xB9209E33 EQ PUSH2 0xA88 JUMPI DUP1 PUSH4 0xBA49A08C EQ PUSH2 0xAA8 JUMPI PUSH1 0x0 DUP1 REVERT JUMPDEST DUP1 PUSH4 0xA47D4C02 EQ PUSH2 0x913 JUMPI DUP1 PUSH4 0xA4A0F6C0 EQ PUSH2 0x943 JUMPI DUP1 PUSH4 0xA6DC41FB EQ PUSH2 0x973 JUMPI DUP1 PUSH4 0xAB517074 EQ PUSH2 0x9A3 JUMPI PUSH1 0x0 DUP1 REVERT JUMPDEST DUP1 PUSH4 0x601E7C34 GT PUSH2 0x333 JUMPI DUP1 PUSH4 0x7910867B GT PUSH2 0x2C6 JUMPI DUP1 PUSH4 0x93383648 GT PUSH2 0x295 JUMPI DUP1 PUSH4 0x989376B4 GT PUSH2 0x27A JUMPI DUP1 PUSH4 0x989376B4 EQ PUSH2 0x897 JUMPI DUP1 PUSH4 0x9AE9711E EQ PUSH2 0x8C7 JUMPI DUP1 PUSH4 0x9DC1BFA9 EQ PUSH2 0x8DD JUMPI PUSH1 0x0 DUP1 REVERT JUMPDEST DUP1 PUSH4 0x93383648 EQ PUSH2 0x861 JUMPI DUP1 PUSH4 0x941E2426 EQ PUSH2 0x881 JUMPI PUSH1 0x0 DUP1 REVERT JUMPDEST DUP1 PUSH4 0x7910867B EQ PUSH2 0x7C1 JUMPI DUP1 PUSH4 0x83546501 EQ PUSH2 0x7E1 JUMPI DUP1 PUSH4 0x8965CDE1 EQ PUSH2 0x811 JUMPI DUP1 PUSH4 0x89D21354 EQ PUSH2 0x831 JUMPI PUSH1 0x0 DUP1 REVERT JUMPDEST DUP1 PUSH4 0x67A09C23 GT PUSH2 0x302 JUMPI DUP1 PUSH4 0x67A09C23 EQ PUSH2 0x73B JUMPI DUP1 PUSH4 0x6814800B EQ PUSH2 0x74E JUMPI DUP1 PUSH4 0x68CFE6EE EQ PUSH2 0x76E JUMPI DUP1 PUSH4 0x6CBF6CF8 EQ PUSH2 0x7A1 JUMPI PUSH1 0x0 DUP1 REVERT JUMPDEST DUP1 PUSH4 0x601E7C34 EQ PUSH2 0x689 JUMPI DUP1 PUSH4 0x603DAF9A EQ PUSH2 0x6B9 JUMPI DUP1 PUSH4 0x63F17143 EQ PUSH2 0x6DB JUMPI DUP1 PUSH4 0x6490C7A8 EQ PUSH2 0x70B JUMPI PUSH1 0x0 DUP1 REVERT JUMPDEST DUP1 PUSH4 0x2607AAFA GT PUSH2 0x3AB JUMPI DUP1 PUSH4 0x44C9AF28 GT PUSH2 0x37A JUMPI DUP1 PUSH4 0x44C9AF28 EQ PUSH2 0x5F9 JUMPI DUP1 PUSH4 0x48A46BD3 EQ PUSH2 0x619 JUMPI DUP1 PUSH4 0x4DAA9DAE EQ PUSH2 0x639 JUMPI DUP1 PUSH4 0x4E2CBA09 EQ PUSH2 0x669 JUMPI PUSH1 0x0 DUP1 REVERT JUMPDEST DUP1 PUSH4 0x2607AAFA EQ PUSH2 0x577 JUMPI DUP1 PUSH4 0x2A55FEEC EQ PUSH2 0x5A4 JUMPI DUP1 PUSH4 0x3410452A EQ PUSH2 0x5C4 JUMPI DUP1 PUSH4 0x3F9B250A EQ PUSH2 0x5D9 JUMPI PUSH1 0x0 DUP1 REVERT JUMPDEST DUP1 PUSH4 0x170F3909 GT PUSH2 0x3E7 JUMPI DUP1 PUSH4 0x170F3909 EQ PUSH2 0x4C3 JUMPI DUP1 PUSH4 0x1869A38B EQ PUSH2 0x4FB JUMPI DUP1 PUSH4 0x1A07F76E EQ PUSH2 0x531 JUMPI DUP1 PUSH4 0x1C9AFD0F EQ PUSH2 0x561 JUMPI PUSH1 0x0 DUP1 REVERT JUMPDEST DUP1 PUSH4 0x7D56AC0 EQ PUSH2 0x419 JUMPI DUP1 PUSH4 0x11CE462C EQ PUSH2 0x45C JUMPI DUP1 PUSH4 0x155FEC72 EQ PUSH2 0x47E JUMPI DUP1 PUSH4 0x16D9D666 EQ PUSH2 0x4AE JUMPI JUMPDEST PUSH1 0x0 DUP1 REVERT JUMPDEST CALLVALUE DUP1 ISZERO PUSH2 0x425 JUMPI PUSH1 0x0 DUP1 REVERT JUMPDEST POP PUSH2 0x449 PUSH2 0x434 CALLDATASIZE PUSH1 0x4 PUSH2 0x2D3A JUMP JUMPDEST PUSH1 0x0 SWAP1 DUP2 MSTORE PUSH1 0x20 DUP2 SWAP1 MSTORE PUSH1 0x40 SWAP1 KECCAK256 PUSH1 0x5 ADD SLOAD SWAP1 JUMP JUMPDEST PUSH1 0x40 MLOAD SWAP1 DUP2 MSTORE PUSH1 0x20 ADD JUMPDEST PUSH1 0x40 MLOAD DUP1 SWAP2 SUB SWAP1 RETURN JUMPDEST CALLVALUE DUP1 ISZERO PUSH2 0x468 JUMPI PUSH1 0x0 DUP1 REVERT JUMPDEST POP PUSH2 0x47C PUSH2 0x477 CALLDATASIZE PUSH1 0x4 PUSH2 0x2DF6 JUMP JUMPDEST PUSH2 0xEA5 JUMP JUMPDEST STOP JUMPDEST CALLVALUE DUP1 ISZERO PUSH2 0x48A JUMPI PUSH1 0x0 DUP1 REVERT JUMPDEST POP PUSH2 0x49E PUSH2 0x499 CALLDATASIZE PUSH1 0x4 PUSH2 0x2D3A JUMP JUMPDEST PUSH2 0xF84 JUMP JUMPDEST PUSH1 0x40 MLOAD SWAP1 ISZERO ISZERO DUP2 MSTORE PUSH1 0x20 ADD PUSH2 0x453 JUMP JUMPDEST CALLVALUE DUP1 ISZERO PUSH2 0x4BA JUMPI PUSH1 0x0 DUP1 REVERT JUMPDEST POP PUSH1 0x14 SLOAD PUSH2 0x449 JUMP JUMPDEST CALLVALUE DUP1 ISZERO PUSH2 0x4CF JUMPI PUSH1 0x0 DUP1 REVERT JUMPDEST POP PUSH1 0x11 SLOAD PUSH2 0x4E3 SWAP1 PUSH1 0x1 PUSH1 0x1 PUSH1 0xA0 SHL SUB AND DUP2 JUMP JUMPDEST PUSH1 0x40 MLOAD PUSH1 0x1 PUSH1 0x1 PUSH1 0xA0 SHL SUB SWAP1 SWAP2 AND DUP2 MSTORE PUSH1 0x20 ADD PUSH2 0x453 JUMP JUMPDEST CALLVALUE DUP1 ISZERO PUSH2 0x507 JUMPI PUSH1 0x0 DUP1 REVERT JUMPDEST POP PUSH2 0x4E3 PUSH2 0x516 CALLDATASIZE PUSH1 0x4 PUSH2 0x2D3A JUMP JUMPDEST PUSH1 0x0 SWAP1 DUP2 MSTORE PUSH1 0xD PUSH1 0x20 MSTORE PUSH1 0x40 SWAP1 KECCAK256 SLOAD PUSH1 0x1 PUSH1 0x1 PUSH1 0xA0 SHL SUB AND SWAP1 JUMP JUMPDEST CALLVALUE DUP1 ISZERO PUSH2 0x53D JUMPI PUSH1 0x0 DUP1 REVERT JUMPDEST POP PUSH2 0x49E PUSH2 0x54C CALLDATASIZE PUSH1 0x4 PUSH2 0x2D3A JUMP JUMPDEST PUSH1 0x10 PUSH1 0x20 MSTORE PUSH1 0x0 SWAP1 DUP2 MSTORE PUSH1 0x40 SWAP1 KECCAK256 SLOAD PUSH1 0xFF AND DUP2 JUMP JUMPDEST CALLVALUE DUP1 ISZERO PUSH2 0x56D JUMPI PUSH1 0x0 DUP1 REVERT JUMPDEST POP PUSH2 0x449 PUSH1 0x14 SLOAD DUP2 JUMP JUMPDEST CALLVALUE DUP1 ISZERO PUSH2 0x583 JUMPI PUSH1 0x0 DUP1 REVERT JUMPDEST POP PUSH2 0x597 PUSH2 0x592 CALLDATASIZE PUSH1 0x4 PUSH2 0x2D3A JUMP JUMPDEST PUSH2 0xFA8 JUMP JUMPDEST PUSH1 0x40 MLOAD PUSH2 0x453 SWAP2 SWAP1 PUSH2 0x2F16 JUMP JUMPDEST CALLVALUE DUP1 ISZERO PUSH2 0x5B0 JUMPI PUSH1 0x0 DUP1 REVERT JUMPDEST POP PUSH2 0x49E PUSH2 0x5BF CALLDATASIZE PUSH1 0x4 PUSH2 0x2F48 JUMP JUMPDEST PUSH2 0x104D JUMP JUMPDEST CALLVALUE DUP1 ISZERO PUSH2 0x5D0 JUMPI PUSH1 0x0 DUP1 REVERT JUMPDEST POP PUSH1 0x18 SLOAD PUSH2 0x449 JUMP JUMPDEST CALLVALUE DUP1 ISZERO PUSH2 0x5E5 JUMPI PUSH1 0x0 DUP1 REVERT JUMPDEST POP PUSH2 0x597 PUSH2 0x5F4 CALLDATASIZE PUSH1 0x4 PUSH2 0x2D3A JUMP JUMPDEST PUSH2 0x1076 JUMP JUMPDEST CALLVALUE DUP1 ISZERO PUSH2 0x605 JUMPI PUSH1 0x0 DUP1 REVERT JUMPDEST POP PUSH2 0x597 PUSH2 0x614 CALLDATASIZE PUSH1 0x4 PUSH2 0x2D3A JUMP JUMPDEST PUSH2 0x1096 JUMP JUMPDEST CALLVALUE DUP1 ISZERO PUSH2 0x625 JUMPI PUSH1 0x0 DUP1 REVERT JUMPDEST POP PUSH2 0x49E PUSH2 0x634 CALLDATASIZE PUSH1 0x4 PUSH2 0x2F48 JUMP JUMPDEST PUSH2 0x10B6 JUMP JUMPDEST CALLVALUE DUP1 ISZERO PUSH2 0x645 JUMPI PUSH1 0x0 DUP1 REVERT JUMPDEST POP PUSH2 0x49E PUSH2 0x654 CALLDATASIZE PUSH1 0x4 PUSH2 0x2D3A JUMP JUMPDEST PUSH1 0xF PUSH1 0x20 MSTORE PUSH1 0x0 SWAP1 DUP2 MSTORE PUSH1 0x40 SWAP1 KECCAK256 SLOAD PUSH1 0xFF AND DUP2 JUMP JUMPDEST CALLVALUE DUP1 ISZERO PUSH2 0x675 JUMPI PUSH1 0x0 DUP1 REVERT JUMPDEST POP PUSH2 0x47C PUSH2 0x684 CALLDATASIZE PUSH1 0x4 PUSH2 0x2F65 JUMP JUMPDEST PUSH2 0x1102 JUMP JUMPDEST CALLVALUE DUP1 ISZERO PUSH2 0x695 JUMPI PUSH1 0x0 DUP1 REVERT JUMPDEST POP PUSH2 0x49E PUSH2 0x6A4 CALLDATASIZE PUSH1 0x4 PUSH2 0x2F48 JUMP JUMPDEST PUSH1 0x6 PUSH1 0x20 MSTORE PUSH1 0x0 SWAP1 DUP2 MSTORE PUSH1 0x40 SWAP1 KECCAK256 SLOAD PUSH1 0xFF AND DUP2 JUMP JUMPDEST CALLVALUE DUP1 ISZERO PUSH2 0x6C5 JUMPI PUSH1 0x0 DUP1 REVERT JUMPDEST POP PUSH2 0x6CE PUSH2 0x12D7 JUMP JUMPDEST PUSH1 0x40 MLOAD PUSH2 0x453 SWAP2 SWAP1 PUSH2 0x3065 JUMP JUMPDEST CALLVALUE DUP1 ISZERO PUSH2 0x6E7 JUMPI PUSH1 0x0 DUP1 REVERT JUMPDEST POP PUSH2 0x49E PUSH2 0x6F6 CALLDATASIZE PUSH1 0x4 PUSH2 0x2F48 JUMP JUMPDEST PUSH1 0x9 PUSH1 0x20 MSTORE PUSH1 0x0 SWAP1 DUP2 MSTORE PUSH1 0x40 SWAP1 KECCAK256 SLOAD PUSH1 0xFF AND DUP2 JUMP JUMPDEST CALLVALUE DUP1 ISZERO PUSH2 0x717 JUMPI PUSH1 0x0 DUP1 REVERT JUMPDEST POP PUSH2 0x449 PUSH2 0x726 CALLDATASIZE PUSH1 0x4 PUSH2 0x2D3A JUMP JUMPDEST PUSH1 0x0 SWAP1 DUP2 MSTORE PUSH1 0x20 DUP2 SWAP1 MSTORE PUSH1 0x40 SWAP1 KECCAK256 PUSH1 0x1 ADD SLOAD SWAP1 JUMP JUMPDEST PUSH2 0x47C PUSH2 0x749 CALLDATASIZE PUSH1 0x4 PUSH2 0x30B2 JUMP JUMPDEST PUSH2 0x1339 JUMP JUMPDEST CALLVALUE DUP1 ISZERO PUSH2 0x75A JUMPI PUSH1 0x0 DUP1 REVERT JUMPDEST POP PUSH2 0x47C PUSH2 0x769 CALLDATASIZE PUSH1 0x4 PUSH2 0x2F48 JUMP JUMPDEST PUSH2 0x138B JUMP JUMPDEST CALLVALUE DUP1 ISZERO PUSH2 0x77A JUMPI PUSH1 0x0 DUP1 REVERT JUMPDEST POP PUSH2 0x78E PUSH2 0x789 CALLDATASIZE PUSH1 0x4 PUSH2 0x2F48 JUMP JUMPDEST PUSH2 0x13F8 JUMP JUMPDEST PUSH1 0x40 MLOAD PUSH2 0x453 SWAP8 SWAP7 SWAP6 SWAP5 SWAP4 SWAP3 SWAP2 SWAP1 PUSH2 0x30DE JUMP JUMPDEST CALLVALUE DUP1 ISZERO PUSH2 0x7AD JUMPI PUSH1 0x0 DUP1 REVERT JUMPDEST POP PUSH2 0x49E PUSH2 0x7BC CALLDATASIZE PUSH1 0x4 PUSH2 0x2D3A JUMP JUMPDEST PUSH2 0x17A3 JUMP JUMPDEST CALLVALUE DUP1 ISZERO PUSH2 0x7CD JUMPI PUSH1 0x0 DUP1 REVERT JUMPDEST POP PUSH2 0x49E PUSH2 0x7DC CALLDATASIZE PUSH1 0x4 PUSH2 0x2D3A JUMP JUMPDEST PUSH2 0x17C2 JUMP JUMPDEST CALLVALUE DUP1 ISZERO PUSH2 0x7ED JUMPI PUSH1 0x0 DUP1 REVERT JUMPDEST POP PUSH2 0x49E PUSH2 0x7FC CALLDATASIZE PUSH1 0x4 PUSH2 0x2D3A JUMP JUMPDEST PUSH1 0xC PUSH1 0x20 MSTORE PUSH1 0x0 SWAP1 DUP2 MSTORE PUSH1 0x40 SWAP1 KECCAK256 SLOAD PUSH1 0xFF AND DUP2 JUMP JUMPDEST CALLVALUE DUP1 ISZERO PUSH2 0x81D JUMPI PUSH1 0x0 DUP1 REVERT JUMPDEST POP PUSH2 0x47C PUSH2 0x82C CALLDATASIZE PUSH1 0x4 PUSH2 0x2F48 JUMP JUMPDEST PUSH2 0x17E1 JUMP JUMPDEST CALLVALUE DUP1 ISZERO PUSH2 0x83D JUMPI PUSH1 0x0 DUP1 REVERT JUMPDEST POP PUSH2 0x49E PUSH2 0x84C CALLDATASIZE PUSH1 0x4 PUSH2 0x2D3A JUMP JUMPDEST PUSH1 0xE PUSH1 0x20 MSTORE PUSH1 0x0 SWAP1 DUP2 MSTORE PUSH1 0x40 SWAP1 KECCAK256 SLOAD PUSH1 0xFF AND DUP2 JUMP JUMPDEST CALLVALUE DUP1 ISZERO PUSH2 0x86D JUMPI PUSH1 0x0 DUP1 REVERT JUMPDEST POP PUSH2 0x47C PUSH2 0x87C CALLDATASIZE PUSH1 0x4 PUSH2 0x2DF6 JUMP JUMPDEST PUSH2 0x1847 JUMP JUMPDEST CALLVALUE DUP1 ISZERO PUSH2 0x88D JUMPI PUSH1 0x0 DUP1 REVERT JUMPDEST POP PUSH2 0x449 PUSH1 0x15 SLOAD DUP2 JUMP JUMPDEST CALLVALUE DUP1 ISZERO PUSH2 0x8A3 JUMPI PUSH1 0x0 DUP1 REVERT JUMPDEST POP PUSH2 0x49E PUSH2 0x8B2 CALLDATASIZE PUSH1 0x4 PUSH2 0x2F48 JUMP JUMPDEST PUSH1 0xB PUSH1 0x20 MSTORE PUSH1 0x0 SWAP1 DUP2 MSTORE PUSH1 0x40 SWAP1 KECCAK256 SLOAD PUSH1 0xFF AND DUP2 JUMP JUMPDEST CALLVALUE DUP1 ISZERO PUSH2 0x8D3 JUMPI PUSH1 0x0 DUP1 REVERT JUMPDEST POP PUSH2 0x449 PUSH1 0x16 SLOAD DUP2 JUMP JUMPDEST CALLVALUE DUP1 ISZERO PUSH2 0x8E9 JUMPI PUSH1 0x0 DUP1 REVERT JUMPDEST POP PUSH2 0x4E3 PUSH2 0x8F8 CALLDATASIZE PUSH1 0x4 PUSH2 0x2D3A JUMP JUMPDEST PUSH1 0xD PUSH1 0x20 MSTORE PUSH1 0x0 SWAP1 DUP2 MSTORE PUSH1 0x40 SWAP1 KECCAK256 SLOAD PUSH1 0x1 PUSH1 0x1 PUSH1 0xA0 SHL SUB AND DUP2 JUMP JUMPDEST CALLVALUE DUP1 ISZERO PUSH2 0x91F JUMPI PUSH1 0x0 DUP1 REVERT JUMPDEST POP PUSH2 0x49E PUSH2 0x92E CALLDATASIZE PUSH1 0x4 PUSH2 0x2F48 JUMP JUMPDEST PUSH1 0x7 PUSH1 0x20 MSTORE PUSH1 0x0 SWAP1 DUP2 MSTORE PUSH1 0x40 SWAP1 KECCAK256 SLOAD PUSH1 0xFF AND DUP2 JUMP JUMPDEST CALLVALUE DUP1 ISZERO PUSH2 0x94F JUMPI PUSH1 0x0 DUP1 REVERT JUMPDEST POP PUSH2 0x449 PUSH2 0x95E CALLDATASIZE PUSH1 0x4 PUSH2 0x2D3A JUMP JUMPDEST PUSH1 0x0 SWAP1 DUP2 MSTORE PUSH1 0x20 DUP2 SWAP1 MSTORE PUSH1 0x40 SWAP1 KECCAK256 PUSH1 0x6 ADD SLOAD SWAP1 JUMP JUMPDEST CALLVALUE DUP1 ISZERO PUSH2 0x97F JUMPI PUSH1 0x0 DUP1 REVERT JUMPDEST POP PUSH2 0x49E PUSH2 0x98E CALLDATASIZE PUSH1 0x4 PUSH2 0x2F48 JUMP JUMPDEST PUSH1 0xA PUSH1 0x20 MSTORE PUSH1 0x0 SWAP1 DUP2 MSTORE PUSH1 0x40 SWAP1 KECCAK256 SLOAD PUSH1 0xFF AND DUP2 JUMP JUMPDEST CALLVALUE DUP1 ISZERO PUSH2 0x9AF JUMPI PUSH1 0x0 DUP1 REVERT JUMPDEST POP PUSH2 0x9C3 PUSH2 0x9BE CALLDATASIZE PUSH1 0x4 PUSH2 0x2F48 JUMP JUMPDEST PUSH2 0x19FE JUMP JUMPDEST PUSH1 0x40 MLOAD PUSH2 0x453 SWAP9 SWAP8 SWAP7 SWAP6 SWAP5 SWAP4 SWAP3 SWAP2 SWAP1 PUSH2 0x3167 JUMP JUMPDEST CALLVALUE DUP1 ISZERO PUSH2 0x9E3 JUMPI PUSH1 0x0 DUP1 REVERT JUMPDEST POP PUSH2 0xA26 PUSH2 0x9F2 CALLDATASIZE PUSH1 0x4 PUSH2 0x2D3A JUMP JUMPDEST PUSH1 0x4 PUSH1 0x20 MSTORE PUSH1 0x0 SWAP1 DUP2 MSTORE PUSH1 0x40 SWAP1 KECCAK256 DUP1 SLOAD PUSH1 0x1 DUP3 ADD SLOAD PUSH1 0x2 DUP4 ADD SLOAD PUSH1 0x3 SWAP1 SWAP4 ADD SLOAD SWAP2 SWAP3 PUSH1 0x1 PUSH1 0x1 PUSH1 0xA0 SHL SUB SWAP2 DUP3 AND SWAP3 SWAP2 AND SWAP1 DUP5 JUMP JUMPDEST PUSH1 0x40 MLOAD PUSH2 0x453 SWAP5 SWAP4 SWAP3 SWAP2 SWAP1 SWAP4 DUP5 MSTORE PUSH1 0x1 PUSH1 0x1 PUSH1 0xA0 SHL SUB SWAP3 DUP4 AND PUSH1 0x20 DUP6 ADD MSTORE SWAP2 AND PUSH1 0x40 DUP4 ADD MSTORE PUSH1 0x60 DUP3 ADD MSTORE PUSH1 0x80 ADD SWAP1 JUMP JUMPDEST CALLVALUE DUP1 ISZERO PUSH2 0xA62 JUMPI PUSH1 0x0 DUP1 REVERT JUMPDEST POP PUSH2 0xA76 PUSH2 0xA71 CALLDATASIZE PUSH1 0x4 PUSH2 0x2F48 JUMP JUMPDEST PUSH2 0x1D79 JUMP JUMPDEST PUSH1 0x40 MLOAD PUSH2 0x453 SWAP7 SWAP6 SWAP5 SWAP4 SWAP3 SWAP2 SWAP1 PUSH2 0x3203 JUMP JUMPDEST CALLVALUE DUP1 ISZERO PUSH2 0xA94 JUMPI PUSH1 0x0 DUP1 REVERT JUMPDEST POP PUSH2 0x49E PUSH2 0xAA3 CALLDATASIZE PUSH1 0x4 PUSH2 0x2F48 JUMP JUMPDEST PUSH2 0x2091 JUMP JUMPDEST CALLVALUE DUP1 ISZERO PUSH2 0xAB4 JUMPI PUSH1 0x0 DUP1 REVERT JUMPDEST POP PUSH2 0x449 PUSH1 0x17 SLOAD DUP2 JUMP JUMPDEST CALLVALUE DUP1 ISZERO PUSH2 0xACA JUMPI PUSH1 0x0 DUP1 REVERT JUMPDEST POP PUSH2 0x47C PUSH2 0xAD9 CALLDATASIZE PUSH1 0x4 PUSH2 0x3277 JUMP JUMPDEST PUSH2 0x20DC JUMP JUMPDEST CALLVALUE DUP1 ISZERO PUSH2 0xAEA JUMPI PUSH1 0x0 DUP1 REVERT JUMPDEST POP PUSH2 0x49E PUSH2 0xAF9 CALLDATASIZE PUSH1 0x4 PUSH2 0x2F48 JUMP JUMPDEST PUSH2 0x211C JUMP JUMPDEST CALLVALUE DUP1 ISZERO PUSH2 0xB0A JUMPI PUSH1 0x0 DUP1 REVERT JUMPDEST POP PUSH2 0x47C PUSH2 0xB19 CALLDATASIZE PUSH1 0x4 PUSH2 0x32A7 JUMP JUMPDEST PUSH2 0x2145 JUMP JUMPDEST CALLVALUE DUP1 ISZERO PUSH2 0xB2A JUMPI PUSH1 0x0 DUP1 REVERT JUMPDEST POP PUSH2 0x49E PUSH2 0xB39 CALLDATASIZE PUSH1 0x4 PUSH2 0x2D3A JUMP JUMPDEST PUSH2 0x2207 JUMP JUMPDEST CALLVALUE DUP1 ISZERO PUSH2 0xB4A JUMPI PUSH1 0x0 DUP1 REVERT JUMPDEST POP PUSH2 0x4E3 PUSH2 0xB59 CALLDATASIZE PUSH1 0x4 PUSH2 0x2D3A JUMP JUMPDEST PUSH2 0x2226 JUMP JUMPDEST CALLVALUE DUP1 ISZERO PUSH2 0xB6A JUMPI PUSH1 0x0 DUP1 REVERT JUMPDEST POP PUSH2 0x47C PUSH2 0xB79 CALLDATASIZE PUSH1 0x4 PUSH2 0x2F48 JUMP JUMPDEST PUSH2 0x2250 JUMP JUMPDEST CALLVALUE DUP1 ISZERO PUSH2 0xB8A JUMPI PUSH1 0x0 DUP1 REVERT JUMPDEST POP PUSH2 0x597 PUSH2 0xB99 CALLDATASIZE PUSH1 0x4 PUSH2 0x2D3A JUMP JUMPDEST PUSH2 0x22B6 JUMP JUMPDEST CALLVALUE DUP1 ISZERO PUSH2 0xBAA JUMPI PUSH1 0x0 DUP1 REVERT JUMPDEST POP PUSH2 0x47C PUSH2 0xBB9 CALLDATASIZE PUSH1 0x4 PUSH2 0x2D3A JUMP JUMPDEST PUSH2 0x22D6 JUMP JUMPDEST CALLVALUE DUP1 ISZERO PUSH2 0xBCA JUMPI PUSH1 0x0 DUP1 REVERT JUMPDEST POP PUSH2 0x6CE PUSH2 0x2313 JUMP JUMPDEST CALLVALUE DUP1 ISZERO PUSH2 0xBDF JUMPI PUSH1 0x0 DUP1 REVERT JUMPDEST POP PUSH1 0x16 SLOAD PUSH2 0x449 JUMP JUMPDEST CALLVALUE DUP1 ISZERO PUSH2 0xBF4 JUMPI PUSH1 0x0 DUP1 REVERT JUMPDEST POP PUSH2 0xC08 PUSH2 0xC03 CALLDATASIZE PUSH1 0x4 PUSH2 0x2F48 JUMP JUMPDEST PUSH2 0x2373 JUMP JUMPDEST PUSH1 0x40 MLOAD PUSH2 0x453 SWAP8 SWAP7 SWAP6 SWAP5 SWAP4 SWAP3 SWAP2 SWAP1 PUSH2 0x335E JUMP JUMPDEST CALLVALUE DUP1 ISZERO PUSH2 0xC27 JUMPI PUSH1 0x0 DUP1 REVERT JUMPDEST POP PUSH2 0xC3B PUSH2 0xC36 CALLDATASIZE PUSH1 0x4 PUSH2 0x2D3A JUMP JUMPDEST PUSH2 0x2660 JUMP JUMPDEST PUSH1 0x40 MLOAD PUSH2 0x453 SWAP5 SWAP4 SWAP3 SWAP2 SWAP1 PUSH2 0x33D4 JUMP JUMPDEST CALLVALUE DUP1 ISZERO PUSH2 0xC57 JUMPI PUSH1 0x0 DUP1 REVERT JUMPDEST POP PUSH2 0x49E PUSH2 0xC66 CALLDATASIZE PUSH1 0x4 PUSH2 0x2F48 JUMP JUMPDEST PUSH2 0x2798 JUMP JUMPDEST CALLVALUE DUP1 ISZERO PUSH2 0xC77 JUMPI PUSH1 0x0 DUP1 REVERT JUMPDEST POP PUSH2 0x47C PUSH2 0xC86 CALLDATASIZE PUSH1 0x4 PUSH2 0x2F48 JUMP JUMPDEST PUSH2 0x27C0 JUMP JUMPDEST CALLVALUE DUP1 ISZERO PUSH2 0xC97 JUMPI PUSH1 0x0 DUP1 REVERT JUMPDEST POP PUSH2 0xCAB PUSH2 0xCA6 CALLDATASIZE PUSH1 0x4 PUSH2 0x2D3A JUMP JUMPDEST PUSH2 0x2826 JUMP JUMPDEST PUSH1 0x40 MLOAD PUSH2 0x453 SWAP10 SWAP9 SWAP8 SWAP7 SWAP6 SWAP5 SWAP4 SWAP3 SWAP2 SWAP1 PUSH2 0x3410 JUMP JUMPDEST CALLVALUE DUP1 ISZERO PUSH2 0xCCC JUMPI PUSH1 0x0 DUP1 REVERT JUMPDEST POP PUSH2 0x49E PUSH2 0xCDB CALLDATASIZE PUSH1 0x4 PUSH2 0x2F48 JUMP JUMPDEST PUSH1 0x8 PUSH1 0x20 MSTORE PUSH1 0x0 SWAP1 DUP2 MSTORE PUSH1 0x40 SWAP1 KECCAK256 SLOAD PUSH1 0xFF AND DUP2 JUMP JUMPDEST CALLVALUE DUP1 ISZERO PUSH2 0xCFC JUMPI PUSH1 0x0 DUP1 REVERT JUMPDEST POP PUSH2 0x47C PUSH2 0xD0B CALLDATASIZE PUSH1 0x4 PUSH2 0x348F JUMP JUMPDEST PUSH2 0x2A8D JUMP JUMPDEST CALLVALUE DUP1 ISZERO PUSH2 0xD1C JUMPI PUSH1 0x0 DUP1 REVERT JUMPDEST POP PUSH2 0x449 PUSH2 0xD2B CALLDATASIZE PUSH1 0x4 PUSH2 0x2D3A JUMP JUMPDEST PUSH1 0x0 SWAP1 DUP2 MSTORE PUSH1 0x20 DUP2 SWAP1 MSTORE PUSH1 0x40 SWAP1 KECCAK256 PUSH1 0x4 ADD SLOAD SWAP1 JUMP JUMPDEST CALLVALUE DUP1 ISZERO PUSH2 0xD4C JUMPI PUSH1 0x0 DUP1 REVERT JUMPDEST POP PUSH2 0x49E PUSH2 0xD5B CALLDATASIZE PUSH1 0x4 PUSH2 0x2F48 JUMP JUMPDEST PUSH2 0x2BC5 JUMP JUMPDEST CALLVALUE DUP1 ISZERO PUSH2 0xD6C JUMPI PUSH1 0x0 DUP1 REVERT JUMPDEST POP PUSH1 0x17 SLOAD PUSH2 0x449 JUMP JUMPDEST CALLVALUE DUP1 ISZERO PUSH2 0xD81 JUMPI PUSH1 0x0 DUP1 REVERT JUMPDEST POP PUSH2 0x4E3 PUSH2 0xD90 CALLDATASIZE PUSH1 0x4 PUSH2 0x2D3A JUMP JUMPDEST PUSH2 0x2BEE JUMP JUMPDEST CALLVALUE DUP1 ISZERO PUSH2 0xDA1 JUMPI PUSH1 0x0 DUP1 REVERT JUMPDEST POP PUSH2 0xDF2 PUSH2 0xDB0 CALLDATASIZE PUSH1 0x4 PUSH2 0x2D3A JUMP JUMPDEST PUSH1 0x0 SWAP1 DUP2 MSTORE PUSH1 0x4 PUSH1 0x20 SWAP1 DUP2 MSTORE PUSH1 0x40 DUP1 DUP4 KECCAK256 PUSH1 0x1 DUP2 ADD SLOAD PUSH1 0x2 DUP3 ADD SLOAD PUSH1 0x3 SWAP1 SWAP3 ADD SLOAD PUSH1 0xE SWAP1 SWAP5 MSTORE SWAP2 SWAP1 SWAP4 KECCAK256 SLOAD PUSH1 0x1 PUSH1 0x1 PUSH1 0xA0 SHL SUB SWAP2 DUP3 AND SWAP5 SWAP2 SWAP1 SWAP4 AND SWAP3 PUSH1 0xFF AND SWAP1 JUMP JUMPDEST PUSH1 0x40 DUP1 MLOAD PUSH1 0x1 PUSH1 0x1 PUSH1 0xA0 SHL SUB SWAP6 DUP7 AND DUP2 MSTORE SWAP5 SWAP1 SWAP4 AND PUSH1 0x20 DUP6 ADD MSTORE SWAP2 DUP4 ADD MSTORE ISZERO ISZERO PUSH1 0x60 DUP3 ADD MSTORE PUSH1 0x80 ADD PUSH2 0x453 JUMP JUMPDEST CALLVALUE DUP1 ISZERO PUSH2 0xE2B JUMPI PUSH1 0x0 DUP1 REVERT JUMPDEST POP PUSH2 0x47C PUSH2 0xE3A CALLDATASIZE PUSH1 0x4 PUSH2 0x30B2 JUMP JUMPDEST PUSH2 0x2BFE JUMP JUMPDEST CALLVALUE DUP1 ISZERO PUSH2 0xE4B JUMPI PUSH1 0x0 DUP1 REVERT JUMPDEST POP PUSH2 0x49E PUSH2 0xE5A CALLDATASIZE PUSH1 0x4 PUSH2 0x2F48 JUMP JUMPDEST PUSH1 0x5 PUSH1 0x20 MSTORE PUSH1 0x0 SWAP1 DUP2 MSTORE PUSH1 0x40 SWAP1 KECCAK256 SLOAD PUSH1 0xFF AND DUP2 JUMP JUMPDEST CALLVALUE DUP1 ISZERO PUSH2 0xE7B JUMPI PUSH1 0x0 DUP1 REVERT JUMPDEST POP PUSH2 0x47C PUSH2 0xE8A CALLDATASIZE PUSH1 0x4 PUSH2 0x2D3A JUMP JUMPDEST PUSH2 0x2D0D JUMP JUMPDEST CALLVALUE DUP1 ISZERO PUSH2 0xE9B JUMPI PUSH1 0x0 DUP1 REVERT JUMPDEST POP PUSH2 0x449 PUSH1 0x18 SLOAD DUP2 JUMP JUMPDEST CALLER PUSH1 0x0 SWAP1 DUP2 MSTORE PUSH1 0x5 PUSH1 0x20 MSTORE PUSH1 0x40 SWAP1 KECCAK256 SLOAD PUSH1 0xFF AND DUP1 ISZERO PUSH2 0xEDA JUMPI POP CALLER PUSH1 0x0 DUP2 DUP2 MSTORE PUSH1 0x3 PUSH1 0x20 MSTORE PUSH1 0x40 SWAP1 KECCAK256 SLOAD PUSH1 0x1 PUSH1 0x1 PUSH1 0xA0 SHL SUB AND EQ JUMPDEST PUSH2 0xEE3 JUMPI PUSH1 0x0 DUP1 REVERT JUMPDEST CALLER PUSH1 0x0 SWAP1 DUP2 MSTORE PUSH1 0x3 PUSH1 0x20 MSTORE PUSH1 0x40 SWAP1 KECCAK256 PUSH1 0x1 ADD PUSH2 0xEFF DUP8 DUP3 PUSH2 0x35E3 JUMP JUMPDEST POP CALLER PUSH1 0x0 SWAP1 DUP2 MSTORE PUSH1 0x3 PUSH1 0x20 DUP2 SWAP1 MSTORE PUSH1 0x40 SWAP1 SWAP2 KECCAK256 PUSH1 0x2 DUP2 ADD DUP8 SWAP1 SSTORE ADD PUSH2 0xF24 DUP6 DUP3 PUSH2 0x35E3 JUMP JUMPDEST POP CALLER PUSH1 0x0 SWAP1 DUP2 MSTORE PUSH1 0x3 PUSH1 0x20 MSTORE PUSH1 0x40 SWAP1 KECCAK256 PUSH1 0x4 ADD PUSH2 0xF41 DUP5 DUP3 PUSH2 0x35E3 JUMP JUMPDEST POP CALLER PUSH1 0x0 SWAP1 DUP2 MSTORE PUSH1 0x3 PUSH1 0x20 MSTORE PUSH1 0x40 SWAP1 KECCAK256 PUSH1 0x7 ADD PUSH2 0xF5E DUP4 DUP3 PUSH2 0x35E3 JUMP JUMPDEST POP CALLER PUSH1 0x0 SWAP1 DUP2 MSTORE PUSH1 0x3 PUSH1 0x20 MSTORE PUSH1 0x40 SWAP1 KECCAK256 PUSH1 0x5 ADD PUSH2 0xF7B DUP3 DUP3 PUSH2 0x35E3 JUMP JUMPDEST POP POP POP POP POP POP POP JUMP JUMPDEST PUSH1 0x0 DUP2 DUP2 MSTORE PUSH1 0xF PUSH1 0x20 MSTORE PUSH1 0x40 DUP2 KECCAK256 SLOAD PUSH1 0xFF AND ISZERO PUSH2 0xFA3 JUMPI POP PUSH1 0x1 SWAP2 SWAP1 POP JUMP JUMPDEST SWAP2 SWAP1 POP JUMP JUMPDEST PUSH1 0x0 DUP2 DUP2 MSTORE PUSH1 0x20 DUP2 SWAP1 MSTORE PUSH1 0x40 SWAP1 KECCAK256 PUSH1 0x7 ADD DUP1 SLOAD PUSH1 0x60 SWAP2 SWAP1 PUSH2 0xFC8 SWAP1 PUSH2 0x3563 JUMP JUMPDEST DUP1 PUSH1 0x1F ADD PUSH1 0x20 DUP1 SWAP2 DIV MUL PUSH1 0x20 ADD PUSH1 0x40 MLOAD SWAP1 DUP2 ADD PUSH1 0x40 MSTORE DUP1 SWAP3 SWAP2 SWAP1 DUP2 DUP2 MSTORE PUSH1 0x20 ADD DUP3 DUP1 SLOAD PUSH2 0xFF4 SWAP1 PUSH2 0x3563 JUMP JUMPDEST DUP1 ISZERO PUSH2 0x1041 JUMPI DUP1 PUSH1 0x1F LT PUSH2 0x1016 JUMPI PUSH2 0x100 DUP1 DUP4 SLOAD DIV MUL DUP4 MSTORE SWAP2 PUSH1 0x20 ADD SWAP2 PUSH2 0x1041 JUMP JUMPDEST DUP3 ADD SWAP2 SWAP1 PUSH1 0x0 MSTORE PUSH1 0x20 PUSH1 0x0 KECCAK256 SWAP1 JUMPDEST DUP2 SLOAD DUP2 MSTORE SWAP1 PUSH1 0x1 ADD SWAP1 PUSH1 0x20 ADD DUP1 DUP4 GT PUSH2 0x1024 JUMPI DUP3 SWAP1 SUB PUSH1 0x1F AND DUP3 ADD SWAP2 JUMPDEST POP POP POP POP POP SWAP1 POP SWAP2 SWAP1 POP JUMP JUMPDEST PUSH1 0x1 PUSH1 0x1 PUSH1 0xA0 SHL SUB DUP2 AND PUSH1 0x0 SWAP1 DUP2 MSTORE PUSH1 0x7 PUSH1 0x20 MSTORE PUSH1 0x40 DUP2 KECCAK256 SLOAD PUSH1 0xFF AND ISZERO PUSH2 0xFA3 JUMPI POP PUSH1 0x1 SWAP2 SWAP1 POP JUMP JUMPDEST PUSH1 0x0 DUP2 DUP2 MSTORE PUSH1 0x20 DUP2 SWAP1 MSTORE PUSH1 0x40 SWAP1 KECCAK256 PUSH1 0x8 ADD DUP1 SLOAD PUSH1 0x60 SWAP2 SWAP1 PUSH2 0xFC8 SWAP1 PUSH2 0x3563 JUMP JUMPDEST PUSH1 0x0 DUP2 DUP2 MSTORE PUSH1 0x20 DUP2 SWAP1 MSTORE PUSH1 0x40 SWAP1 KECCAK256 PUSH1 0x3 ADD DUP1 SLOAD PUSH1 0x60 SWAP2 SWAP1 PUSH2 0xFC8 SWAP1 PUSH2 0x3563 JUMP JUMPDEST PUSH1 0x1 PUSH1 0x1 PUSH1 0xA0 SHL SUB DUP2 AND PUSH1 0x0 SWAP1 DUP2 MSTORE PUSH1 0x9 PUSH1 0x20 MSTORE PUSH1 0x40 DUP2 KECCAK256 SLOAD PUSH1 0xFF AND DUP1 PUSH2 0x10F5 JUMPI POP PUSH1 0x1 PUSH1 0x1 PUSH1 0xA0 SHL SUB DUP3 AND PUSH1 0x0 SWAP1 DUP2 MSTORE PUSH1 0xB PUSH1 0x20 MSTORE PUSH1 0x40 SWAP1 KECCAK256 SLOAD PUSH1 0xFF AND JUMPDEST ISZERO PUSH2 0xFA3 JUMPI POP PUSH1 0x1 SWAP2 SWAP1 POP JUMP JUMPDEST CALLER PUSH1 0x0 SWAP1 DUP2 MSTORE PUSH1 0x5 PUSH1 0x20 MSTORE PUSH1 0x40 SWAP1 KECCAK256 SLOAD PUSH1 0xFF AND ISZERO PUSH2 0x111F JUMPI PUSH1 0x0 DUP1 REVERT JUMPDEST CALLER PUSH1 0x0 SWAP1 DUP2 MSTORE PUSH1 0x5 PUSH1 0x20 SWAP1 DUP2 MSTORE PUSH1 0x40 DUP1 DUP4 KECCAK256 DUP1 SLOAD PUSH1 0x1 PUSH1 0xFF NOT SWAP2 DUP3 AND DUP2 OR SWAP1 SWAP3 SSTORE PUSH1 0x7 SWAP1 SWAP4 MSTORE SWAP1 DUP4 KECCAK256 DUP1 SLOAD SWAP1 SWAP3 AND OR SWAP1 SSTORE PUSH1 0x17 DUP1 SLOAD SWAP2 PUSH2 0x115E DUP4 PUSH2 0x36A3 JUMP JUMPDEST SWAP1 SWAP2 SSTORE POP POP PUSH1 0x40 DUP1 MLOAD PUSH2 0x100 DUP2 ADD DUP3 MSTORE CALLER DUP1 DUP3 MSTORE PUSH1 0x20 DUP1 DUP4 ADD DUP12 DUP2 MSTORE DUP4 DUP6 ADD DUP12 SWAP1 MSTORE PUSH1 0x60 DUP5 ADD DUP11 SWAP1 MSTORE PUSH1 0x80 DUP5 ADD DUP10 SWAP1 MSTORE PUSH1 0xA0 DUP5 ADD DUP9 SWAP1 MSTORE PUSH1 0xC0 DUP5 ADD DUP8 SWAP1 MSTORE PUSH1 0xE0 DUP5 ADD DUP7 SWAP1 MSTORE PUSH1 0x0 SWAP3 DUP4 MSTORE PUSH1 0x3 SWAP1 SWAP2 MSTORE SWAP3 SWAP1 KECCAK256 DUP2 MLOAD DUP2 SLOAD PUSH1 0x1 PUSH1 0x1 PUSH1 0xA0 SHL SUB NOT AND PUSH1 0x1 PUSH1 0x1 PUSH1 0xA0 SHL SUB SWAP1 SWAP2 AND OR DUP2 SSTORE SWAP2 MLOAD SWAP1 SWAP2 SWAP1 PUSH1 0x1 DUP3 ADD SWAP1 PUSH2 0x11E0 SWAP1 DUP3 PUSH2 0x35E3 JUMP JUMPDEST POP PUSH1 0x40 DUP3 ADD MLOAD PUSH1 0x2 DUP3 ADD SSTORE PUSH1 0x60 DUP3 ADD MLOAD PUSH1 0x3 DUP3 ADD SWAP1 PUSH2 0x11FF SWAP1 DUP3 PUSH2 0x35E3 JUMP JUMPDEST POP PUSH1 0x80 DUP3 ADD MLOAD PUSH1 0x4 DUP3 ADD SWAP1 PUSH2 0x1214 SWAP1 DUP3 PUSH2 0x35E3 JUMP JUMPDEST POP PUSH1 0xA0 DUP3 ADD MLOAD PUSH1 0x5 DUP3 ADD SWAP1 PUSH2 0x1229 SWAP1 DUP3 PUSH2 0x35E3 JUMP JUMPDEST POP PUSH1 0xC0 DUP3 ADD MLOAD PUSH1 0x6 DUP3 ADD SWAP1 PUSH2 0x123E SWAP1 DUP3 PUSH2 0x35E3 JUMP JUMPDEST POP PUSH1 0xE0 DUP3 ADD MLOAD PUSH1 0x7 DUP3 ADD SWAP1 PUSH2 0x1253 SWAP1 DUP3 PUSH2 0x35E3 JUMP JUMPDEST POP POP PUSH1 0x13 DUP1 SLOAD PUSH1 0x1 DUP2 ADD DUP3 SSTORE PUSH1 0x0 SWAP2 SWAP1 SWAP2 MSTORE PUSH32 0x66DE8FFDA797E3DE9C05E8FC57B3BF0EC28A930D40B0D285D93C06501CF6A090 ADD DUP1 SLOAD PUSH1 0x1 PUSH1 0x1 PUSH1 0xA0 SHL SUB NOT AND CALLER SWAP1 DUP2 OR SWAP1 SWAP2 SSTORE PUSH1 0x40 MLOAD SWAP1 DUP2 MSTORE PUSH32 0x478F5152D8FC568DB3F8DE9FB402FD9D98A1A7541ECFE434E59CF574FBFC5524 SWAP2 POP PUSH1 0x20 ADD PUSH1 0x40 MLOAD DUP1 SWAP2 SUB SWAP1 LOG1 POP POP POP POP POP POP POP JUMP JUMPDEST PUSH1 0x60 PUSH1 0x13 DUP1 SLOAD DUP1 PUSH1 0x20 MUL PUSH1 0x20 ADD PUSH1 0x40 MLOAD SWAP1 DUP2 ADD PUSH1 0x40 MSTORE DUP1 SWAP3 SWAP2 SWAP1 DUP2 DUP2 MSTORE PUSH1 0x20 ADD DUP3 DUP1 SLOAD DUP1 ISZERO PUSH2 0x132F JUMPI PUSH1 0x20 MUL DUP3 ADD SWAP2 SWAP1 PUSH1 0x0 MSTORE PUSH1 0x20 PUSH1 0x0 KECCAK256 SWAP1 JUMPDEST DUP2 SLOAD PUSH1 0x1 PUSH1 0x1 PUSH1 0xA0 SHL SUB AND DUP2 MSTORE PUSH1 0x1 SWAP1 SWAP2 ADD SWAP1 PUSH1 0x20 ADD DUP1 DUP4 GT PUSH2 0x1311 JUMPI JUMPDEST POP POP POP POP POP SWAP1 POP SWAP1 JUMP JUMPDEST PUSH1 0x0 DUP2 DUP2 MSTORE PUSH1 0x10 PUSH1 0x20 MSTORE PUSH1 0x40 DUP1 DUP3 KECCAK256 DUP1 SLOAD PUSH1 0xFF NOT AND PUSH1 0x1 OR SWAP1 SSTORE MLOAD PUSH1 0x1 PUSH1 0x1 PUSH1 0xA0 SHL SUB DUP5 AND SWAP2 CALLVALUE DUP1 ISZERO PUSH2 0x8FC MUL SWAP3 SWAP1 SWAP2 DUP2 DUP2 DUP2 DUP6 DUP9 DUP9 CALL SWAP4 POP POP POP POP ISZERO DUP1 ISZERO PUSH2 0x1386 JUMPI RETURNDATASIZE PUSH1 0x0 DUP1 RETURNDATACOPY RETURNDATASIZE PUSH1 0x0 REVERT JUMPDEST POP POP POP JUMP JUMPDEST PUSH2 0x1394 CALLER PUSH2 0x2798 JUMP JUMPDEST PUSH2 0x139D JUMPI PUSH1 0x0 DUP1 REVERT JUMPDEST PUSH1 0x1 PUSH1 0x1 PUSH1 0xA0 SHL SUB DUP2 AND PUSH1 0x0 DUP2 DUP2 MSTORE PUSH1 0xA PUSH1 0x20 SWAP1 DUP2 MSTORE PUSH1 0x40 SWAP2 DUP3 SWAP1 KECCAK256 DUP1 SLOAD PUSH1 0xFF NOT AND PUSH1 0x1 OR SWAP1 SSTORE SWAP1 MLOAD SWAP2 DUP3 MSTORE PUSH32 0x6A6455914F452787EB3985452ACEEDC1000FB545E394EB3B370E3D08958E0A5B SWAP2 ADD JUMPDEST PUSH1 0x40 MLOAD DUP1 SWAP2 SUB SWAP1 LOG1 POP JUMP JUMPDEST PUSH1 0x1 PUSH1 0x1 PUSH1 0xA0 SHL SUB DUP2 AND PUSH1 0x0 SWAP1 DUP2 MSTORE PUSH1 0x3 PUSH1 0x20 DUP2 SWAP1 MSTORE PUSH1 0x40 DUP3 KECCAK256 PUSH1 0x2 DUP2 ADD SLOAD PUSH1 0x1 DUP3 ADD DUP1 SLOAD PUSH1 0x60 SWAP6 DUP7 SWAP6 DUP7 SWAP6 DUP7 SWAP6 DUP7 SWAP6 SWAP4 SWAP5 DUP7 SWAP5 SWAP4 DUP4 ADD SWAP3 PUSH1 0x5 DUP2 ADD SWAP3 PUSH1 0x6 DUP3 ADD SWAP3 PUSH1 0x7 DUP4 ADD SWAP3 PUSH1 0x4 ADD SWAP1 DUP8 SWAP1 PUSH2 0x144E SWAP1 PUSH2 0x3563 JUMP JUMPDEST DUP1 PUSH1 0x1F ADD PUSH1 0x20 DUP1 SWAP2 DIV MUL PUSH1 0x20 ADD PUSH1 0x40 MLOAD SWAP1 DUP2 ADD PUSH1 0x40 MSTORE DUP1 SWAP3 SWAP2 SWAP1 DUP2 DUP2 MSTORE PUSH1 0x20 ADD DUP3 DUP1 SLOAD PUSH2 0x147A SWAP1 PUSH2 0x3563 JUMP JUMPDEST DUP1 ISZERO PUSH2 0x14C7 JUMPI DUP1 PUSH1 0x1F LT PUSH2 0x149C JUMPI PUSH2 0x100 DUP1 DUP4 SLOAD DIV MUL DUP4 MSTORE SWAP2 PUSH1 0x20 ADD SWAP2 PUSH2 0x14C7 JUMP JUMPDEST DUP3 ADD SWAP2 SWAP1 PUSH1 0x0 MSTORE PUSH1 0x20 PUSH1 0x0 KECCAK256 SWAP1 JUMPDEST DUP2 SLOAD DUP2 MSTORE SWAP1 PUSH1 0x1 ADD SWAP1 PUSH1 0x20 ADD DUP1 DUP4 GT PUSH2 0x14AA JUMPI DUP3 SWAP1 SUB PUSH1 0x1F AND DUP3 ADD SWAP2 JUMPDEST POP POP POP POP POP SWAP7 POP DUP6 DUP1 SLOAD PUSH2 0x14DA SWAP1 PUSH2 0x3563 JUMP JUMPDEST DUP1 PUSH1 0x1F ADD PUSH1 0x20 DUP1 SWAP2 DIV MUL PUSH1 0x20 ADD PUSH1 0x40 MLOAD SWAP1 DUP2 ADD PUSH1 0x40 MSTORE DUP1 SWAP3 SWAP2 SWAP1 DUP2 DUP2 MSTORE PUSH1 0x20 ADD DUP3 DUP1 SLOAD PUSH2 0x1506 SWAP1 PUSH2 0x3563 JUMP JUMPDEST DUP1 ISZERO PUSH2 0x1553 JUMPI DUP1 PUSH1 0x1F LT PUSH2 0x1528 JUMPI PUSH2 0x100 DUP1 DUP4 SLOAD DIV MUL DUP4 MSTORE SWAP2 PUSH1 0x20 ADD SWAP2 PUSH2 0x1553 JUMP JUMPDEST DUP3 ADD SWAP2 SWAP1 PUSH1 0x0 MSTORE PUSH1 0x20 PUSH1 0x0 KECCAK256 SWAP1 JUMPDEST DUP2 SLOAD DUP2 MSTORE SWAP1 PUSH1 0x1 ADD SWAP1 PUSH1 0x20 ADD DUP1 DUP4 GT PUSH2 0x1536 JUMPI DUP3 SWAP1 SUB PUSH1 0x1F AND DUP3 ADD SWAP2 JUMPDEST POP POP POP POP POP SWAP6 POP DUP5 DUP1 SLOAD PUSH2 0x1566 SWAP1 PUSH2 0x3563 JUMP JUMPDEST DUP1 PUSH1 0x1F ADD PUSH1 0x20 DUP1 SWAP2 DIV MUL PUSH1 0x20 ADD PUSH1 0x40 MLOAD SWAP1 DUP2 ADD PUSH1 0x40 MSTORE DUP1 SWAP3 SWAP2 SWAP1 DUP2 DUP2 MSTORE PUSH1 0x20 ADD DUP3 DUP1 SLOAD PUSH2 0x1592 SWAP1 PUSH2 0x3563 JUMP JUMPDEST DUP1 ISZERO PUSH2 0x15DF JUMPI DUP1 PUSH1 0x1F LT PUSH2 0x15B4 JUMPI PUSH2 0x100 DUP1 DUP4 SLOAD DIV MUL DUP4 MSTORE SWAP2 PUSH1 0x20 ADD SWAP2 PUSH2 0x15DF JUMP JUMPDEST DUP3 ADD SWAP2 SWAP1 PUSH1 0x0 MSTORE PUSH1 0x20 PUSH1 0x0 KECCAK256 SWAP1 JUMPDEST DUP2 SLOAD DUP2 MSTORE SWAP1 PUSH1 0x1 ADD SWAP1 PUSH1 0x20 ADD DUP1 DUP4 GT PUSH2 0x15C2 JUMPI DUP3 SWAP1 SUB PUSH1 0x1F AND DUP3 ADD SWAP2 JUMPDEST POP POP POP POP POP SWAP5 POP DUP4 DUP1 SLOAD PUSH2 0x15F2 SWAP1 PUSH2 0x3563 JUMP JUMPDEST DUP1 PUSH1 0x1F ADD PUSH1 0x20 DUP1 SWAP2 DIV MUL PUSH1 0x20 ADD PUSH1 0x40 MLOAD SWAP1 DUP2 ADD PUSH1 0x40 MSTORE DUP1 SWAP3 SWAP2 SWAP1 DUP2 DUP2 MSTORE PUSH1 0x20 ADD DUP3 DUP1 SLOAD PUSH2 0x161E SWAP1 PUSH2 0x3563 JUMP JUMPDEST DUP1 ISZERO PUSH2 0x166B JUMPI DUP1 PUSH1 0x1F LT PUSH2 0x1640 JUMPI PUSH2 0x100 DUP1 DUP4 SLOAD DIV MUL DUP4 MSTORE SWAP2 PUSH1 0x20 ADD SWAP2 PUSH2 0x166B JUMP JUMPDEST DUP3 ADD SWAP2 SWAP1 PUSH1 0x0 MSTORE PUSH1 0x20 PUSH1 0x0 KECCAK256 SWAP1 JUMPDEST DUP2 SLOAD DUP2 MSTORE SWAP1 PUSH1 0x1 ADD SWAP1 PUSH1 0x20 ADD DUP1 DUP4 GT PUSH2 0x164E JUMPI DUP3 SWAP1 SUB PUSH1 0x1F AND DUP3 ADD SWAP2 JUMPDEST POP POP POP POP POP SWAP4 POP DUP3 DUP1 SLOAD PUSH2 0x167E SWAP1 PUSH2 0x3563 JUMP JUMPDEST DUP1 PUSH1 0x1F ADD PUSH1 0x20 DUP1 SWAP2 DIV MUL PUSH1 0x20 ADD PUSH1 0x40 MLOAD SWAP1 DUP2 ADD PUSH1 0x40 MSTORE DUP1 SWAP3 SWAP2 SWAP1 DUP2 DUP2 MSTORE PUSH1 0x20 ADD DUP3 DUP1 SLOAD PUSH2 0x16AA SWAP1 PUSH2 0x3563 JUMP JUMPDEST DUP1 ISZERO PUSH2 0x16F7 JUMPI DUP1 PUSH1 0x1F LT PUSH2 0x16CC JUMPI PUSH2 0x100 DUP1 DUP4 SLOAD DIV MUL DUP4 MSTORE SWAP2 PUSH1 0x20 ADD SWAP2 PUSH2 0x16F7 JUMP JUMPDEST DUP3 ADD SWAP2 SWAP1 PUSH1 0x0 MSTORE PUSH1 0x20 PUSH1 0x0 KECCAK256 SWAP1 JUMPDEST DUP2 SLOAD DUP2 MSTORE SWAP1 PUSH1 0x1 ADD SWAP1 PUSH1 0x20 ADD DUP1 DUP4 GT PUSH2 0x16DA JUMPI DUP3 SWAP1 SUB PUSH1 0x1F AND DUP3 ADD SWAP2 JUMPDEST POP POP POP POP POP SWAP3 POP DUP1 DUP1 SLOAD PUSH2 0x170A SWAP1 PUSH2 0x3563 JUMP JUMPDEST DUP1 PUSH1 0x1F ADD PUSH1 0x20 DUP1 SWAP2 DIV MUL PUSH1 0x20 ADD PUSH1 0x40 MLOAD SWAP1 DUP2 ADD PUSH1 0x40 MSTORE DUP1 SWAP3 SWAP2 SWAP1 DUP2 DUP2 MSTORE PUSH1 0x20 ADD DUP3 DUP1 SLOAD PUSH2 0x1736 SWAP1 PUSH2 0x3563 JUMP JUMPDEST DUP1 ISZERO PUSH2 0x1783 JUMPI DUP1 PUSH1 0x1F LT PUSH2 0x1758 JUMPI PUSH2 0x100 DUP1 DUP4 SLOAD DIV MUL DUP4 MSTORE SWAP2 PUSH1 0x20 ADD SWAP2 PUSH2 0x1783 JUMP JUMPDEST DUP3 ADD SWAP2 SWAP1 PUSH1 0x0 MSTORE PUSH1 0x20 PUSH1 0x0 KECCAK256 SWAP1 JUMPDEST DUP2 SLOAD DUP2 MSTORE SWAP1 PUSH1 0x1 ADD SWAP1 PUSH1 0x20 ADD DUP1 DUP4 GT PUSH2 0x1766 JUMPI DUP3 SWAP1 SUB PUSH1 0x1F AND DUP3 ADD SWAP2 JUMPDEST POP POP POP POP POP SWAP1 POP SWAP7 POP SWAP7 POP SWAP7 POP SWAP7 POP SWAP7 POP SWAP7 POP SWAP7 POP SWAP2 SWAP4 SWAP6 SWAP8 SWAP1 SWAP3 SWAP5 SWAP7 POP JUMP JUMPDEST PUSH1 0x0 DUP2 DUP2 MSTORE PUSH1 0xC PUSH1 0x20 MSTORE PUSH1 0x40 DUP2 KECCAK256 SLOAD PUSH1 0xFF AND ISZERO PUSH2 0xFA3 JUMPI POP PUSH1 0x1 SWAP2 SWAP1 POP JUMP JUMPDEST PUSH1 0x0 DUP2 DUP2 MSTORE PUSH1 0xE PUSH1 0x20 MSTORE PUSH1 0x40 DUP2 KECCAK256 SLOAD PUSH1 0xFF AND ISZERO PUSH2 0xFA3 JUMPI POP PUSH1 0x1 SWAP2 SWAP1 POP JUMP JUMPDEST PUSH2 0x17EA CALLER PUSH2 0x2798 JUMP JUMPDEST PUSH2 0x17F3 JUMPI PUSH1 0x0 DUP1 REVERT JUMPDEST PUSH1 0x1 PUSH1 0x1 PUSH1 0xA0 SHL SUB DUP2 AND PUSH1 0x0 DUP2 DUP2 MSTORE PUSH1 0xB PUSH1 0x20 SWAP1 DUP2 MSTORE PUSH1 0x40 SWAP2 DUP3 SWAP1 KECCAK256 DUP1 SLOAD PUSH1 0xFF NOT AND PUSH1 0x1 OR SWAP1 SSTORE SWAP1 MLOAD SWAP2 DUP3 MSTORE PUSH32 0xAF77F8960CF590E245EC8B6D41C193A5DCACAD8986AE4EB57AC9E5BE7B6AF031 SWAP2 ADD PUSH2 0x13ED JUMP JUMPDEST CALLER PUSH1 0x0 SWAP1 DUP2 MSTORE PUSH1 0x5 PUSH1 0x20 MSTORE PUSH1 0x40 SWAP1 KECCAK256 SLOAD PUSH1 0xFF AND ISZERO PUSH2 0x1864 JUMPI PUSH1 0x0 DUP1 REVERT JUMPDEST CALLER PUSH1 0x0 SWAP1 DUP2 MSTORE PUSH1 0x5 PUSH1 0x20 SWAP1 DUP2 MSTORE PUSH1 0x40 DUP1 DUP4 KECCAK256 DUP1 SLOAD PUSH1 0x1 PUSH1 0xFF NOT SWAP2 DUP3 AND DUP2 OR SWAP1 SWAP3 SSTORE PUSH1 0x6 SWAP1 SWAP4 MSTORE SWAP1 DUP4 KECCAK256 DUP1 SLOAD SWAP1 SWAP3 AND OR SWAP1 SSTORE PUSH1 0x16 DUP1 SLOAD SWAP2 PUSH2 0x18A3 DUP4 PUSH2 0x36A3 JUMP JUMPDEST SWAP1 SWAP2 SSTORE POP POP PUSH1 0x40 DUP1 MLOAD PUSH1 0xE0 DUP2 ADD DUP3 MSTORE CALLER DUP1 DUP3 MSTORE PUSH1 0x20 DUP1 DUP4 ADD DUP11 DUP2 MSTORE DUP4 DUP6 ADD DUP11 SWAP1 MSTORE PUSH1 0x60 DUP5 ADD DUP10 SWAP1 MSTORE PUSH1 0x80 DUP5 ADD DUP9 SWAP1 MSTORE PUSH1 0xA0 DUP5 ADD DUP8 SWAP1 MSTORE PUSH1 0xC0 DUP5 ADD DUP7 SWAP1 MSTORE PUSH1 0x0 SWAP3 DUP4 MSTORE PUSH1 0x2 SWAP1 SWAP2 MSTORE SWAP3 SWAP1 KECCAK256 DUP2 MLOAD DUP2 SLOAD PUSH1 0x1 PUSH1 0x1 PUSH1 0xA0 SHL SUB NOT AND PUSH1 0x1 PUSH1 0x1 PUSH1 0xA0 SHL SUB SWAP1 SWAP2 AND OR DUP2 SSTORE SWAP2 MLOAD SWAP1 SWAP2 SWAP1 PUSH1 0x1 DUP3 ADD SWAP1 PUSH2 0x191D SWAP1 DUP3 PUSH2 0x35E3 JUMP JUMPDEST POP PUSH1 0x40 DUP3 ADD MLOAD PUSH1 0x2 DUP3 ADD SSTORE PUSH1 0x60 DUP3 ADD MLOAD PUSH1 0x3 DUP3 ADD SWAP1 PUSH2 0x193C SWAP1 DUP3 PUSH2 0x35E3 JUMP JUMPDEST POP PUSH1 0x80 DUP3 ADD MLOAD PUSH1 0x4 DUP3 ADD SWAP1 PUSH2 0x1951 SWAP1 DUP3 PUSH2 0x35E3 JUMP JUMPDEST POP PUSH1 0xA0 DUP3 ADD MLOAD PUSH1 0x5 DUP3 ADD SWAP1 PUSH2 0x1966 SWAP1 DUP3 PUSH2 0x35E3 JUMP JUMPDEST POP PUSH1 0xC0 DUP3 ADD MLOAD PUSH1 0x6 DUP3 ADD SWAP1 PUSH2 0x197B SWAP1 DUP3 PUSH2 0x35E3 JUMP JUMPDEST POP POP PUSH1 0x12 DUP1 SLOAD PUSH1 0x1 DUP2 ADD DUP3 SSTORE PUSH1 0x0 SWAP2 SWAP1 SWAP2 MSTORE PUSH32 0xBB8A6A4669BA250D26CD7A459ECA9D215F8307E33AEBE50379BC5A3617EC3444 ADD DUP1 SLOAD PUSH1 0x1 PUSH1 0x1 PUSH1 0xA0 SHL SUB NOT AND CALLER SWAP1 DUP2 OR SWAP1 SWAP2 SSTORE PUSH1 0x40 MLOAD SWAP1 DUP2 MSTORE PUSH32 0x478F5152D8FC568DB3F8DE9FB402FD9D98A1A7541ECFE434E59CF574FBFC5524 SWAP2 POP PUSH1 0x20 ADD PUSH1 0x40 MLOAD DUP1 SWAP2 SUB SWAP1 LOG1 POP POP POP POP POP POP JUMP JUMPDEST PUSH1 0x3 PUSH1 0x20 MSTORE PUSH1 0x0 SWAP1 DUP2 MSTORE PUSH1 0x40 SWAP1 KECCAK256 DUP1 SLOAD PUSH1 0x1 DUP3 ADD DUP1 SLOAD PUSH1 0x1 PUSH1 0x1 PUSH1 0xA0 SHL SUB SWAP1 SWAP3 AND SWAP3 SWAP2 PUSH2 0x1A2A SWAP1 PUSH2 0x3563 JUMP JUMPDEST DUP1 PUSH1 0x1F ADD PUSH1 0x20 DUP1 SWAP2 DIV MUL PUSH1 0x20 ADD PUSH1 0x40 MLOAD SWAP1 DUP2 ADD PUSH1 0x40 MSTORE DUP1 SWAP3 SWAP2 SWAP1 DUP2 DUP2 MSTORE PUSH1 0x20 ADD DUP3 DUP1 SLOAD PUSH2 0x1A56 SWAP1 PUSH2 0x3563 JUMP JUMPDEST DUP1 ISZERO PUSH2 0x1AA3 JUMPI DUP1 PUSH1 0x1F LT PUSH2 0x1A78 JUMPI PUSH2 0x100 DUP1 DUP4 SLOAD DIV MUL DUP4 MSTORE SWAP2 PUSH1 0x20 ADD SWAP2 PUSH2 0x1AA3 JUMP JUMPDEST DUP3 ADD SWAP2 SWAP1 PUSH1 0x0 MSTORE PUSH1 0x20 PUSH1 0x0 KECCAK256 SWAP1 JUMPDEST DUP2 SLOAD DUP2 MSTORE SWAP1 PUSH1 0x1 ADD SWAP1 PUSH1 0x20 ADD DUP1 DUP4 GT PUSH2 0x1A86 JUMPI DUP3 SWAP1 SUB PUSH1 0x1F AND DUP3 ADD SWAP2 JUMPDEST POP POP POP POP POP SWAP1 DUP1 PUSH1 0x2 ADD SLOAD SWAP1 DUP1 PUSH1 0x3 ADD DUP1 SLOAD PUSH2 0x1ABE SWAP1 PUSH2 0x3563 JUMP JUMPDEST DUP1 PUSH1 0x1F ADD PUSH1 0x20 DUP1 SWAP2 DIV MUL PUSH1 0x20 ADD PUSH1 0x40 MLOAD SWAP1 DUP2 ADD PUSH1 0x40 MSTORE DUP1 SWAP3 SWAP2 SWAP1 DUP2 DUP2 MSTORE PUSH1 0x20 ADD DUP3 DUP1 SLOAD PUSH2 0x1AEA SWAP1 PUSH2 0x3563 JUMP JUMPDEST DUP1 ISZERO PUSH2 0x1B37 JUMPI DUP1 PUSH1 0x1F LT PUSH2 0x1B0C JUMPI PUSH2 0x100 DUP1 DUP4 SLOAD DIV MUL DUP4 MSTORE SWAP2 PUSH1 0x20 ADD SWAP2 PUSH2 0x1B37 JUMP JUMPDEST DUP3 ADD SWAP2 SWAP1 PUSH1 0x0 MSTORE PUSH1 0x20 PUSH1 0x0 KECCAK256 SWAP1 JUMPDEST DUP2 SLOAD DUP2 MSTORE SWAP1 PUSH1 0x1 ADD SWAP1 PUSH1 0x20 ADD DUP1 DUP4 GT PUSH2 0x1B1A JUMPI DUP3 SWAP1 SUB PUSH1 0x1F AND DUP3 ADD SWAP2 JUMPDEST POP POP POP POP POP SWAP1 DUP1 PUSH1 0x4 ADD DUP1 SLOAD PUSH2 0x1B4C SWAP1 PUSH2 0x3563 JUMP JUMPDEST DUP1 PUSH1 0x1F ADD PUSH1 0x20 DUP1 SWAP2 DIV MUL PUSH1 0x20 ADD PUSH1 0x40 MLOAD SWAP1 DUP2 ADD PUSH1 0x40 MSTORE DUP1 SWAP3 SWAP2 SWAP1 DUP2 DUP2 MSTORE PUSH1 0x20 ADD DUP3 DUP1 SLOAD PUSH2 0x1B78 SWAP1 PUSH2 0x3563 JUMP JUMPDEST DUP1 ISZERO PUSH2 0x1BC5 JUMPI DUP1 PUSH1 0x1F LT PUSH2 0x1B9A JUMPI PUSH2 0x100 DUP1 DUP4 SLOAD DIV MUL DUP4 MSTORE SWAP2 PUSH1 0x20 ADD SWAP2 PUSH2 0x1BC5 JUMP JUMPDEST DUP3 ADD SWAP2 SWAP1 PUSH1 0x0 MSTORE PUSH1 0x20 PUSH1 0x0 KECCAK256 SWAP1 JUMPDEST DUP2 SLOAD DUP2 MSTORE SWAP1 PUSH1 0x1 ADD SWAP1 PUSH1 0x20 ADD DUP1 DUP4 GT PUSH2 0x1BA8 JUMPI DUP3 SWAP1 SUB PUSH1 0x1F AND DUP3 ADD SWAP2 JUMPDEST POP POP POP POP POP SWAP1 DUP1 PUSH1 0x5 ADD DUP1 SLOAD PUSH2 0x1BDA SWAP1 PUSH2 0x3563 JUMP JUMPDEST DUP1 PUSH1 0x1F ADD PUSH1 0x20 DUP1 SWAP2 DIV MUL PUSH1 0x20 ADD PUSH1 0x40 MLOAD SWAP1 DUP2 ADD PUSH1 0x40 MSTORE DUP1 SWAP3 SWAP2 SWAP1 DUP2 DUP2 MSTORE PUSH1 0x20 ADD DUP3 DUP1 SLOAD PUSH2 0x1C06 SWAP1 PUSH2 0x3563 JUMP JUMPDEST DUP1 ISZERO PUSH2 0x1C53 JUMPI DUP1 PUSH1 0x1F LT PUSH2 0x1C28 JUMPI PUSH2 0x100 DUP1 DUP4 SLOAD DIV MUL DUP4 MSTORE SWAP2 PUSH1 0x20 ADD SWAP2 PUSH2 0x1C53 JUMP JUMPDEST DUP3 ADD SWAP2 SWAP1 PUSH1 0x0 MSTORE PUSH1 0x20 PUSH1 0x0 KECCAK256 SWAP1 JUMPDEST DUP2 SLOAD DUP2 MSTORE SWAP1 PUSH1 0x1 ADD SWAP1 PUSH1 0x20 ADD DUP1 DUP4 GT PUSH2 0x1C36 JUMPI DUP3 SWAP1 SUB PUSH1 0x1F AND DUP3 ADD SWAP2 JUMPDEST POP POP POP POP POP SWAP1 DUP1 PUSH1 0x6 ADD DUP1 SLOAD PUSH2 0x1C68 SWAP1 PUSH2 0x3563 JUMP JUMPDEST DUP1 PUSH1 0x1F ADD PUSH1 0x20 DUP1 SWAP2 DIV MUL PUSH1 0x20 ADD PUSH1 0x40 MLOAD SWAP1 DUP2 ADD PUSH1 0x40 MSTORE DUP1 SWAP3 SWAP2 SWAP1 DUP2 DUP2 MSTORE PUSH1 0x20 ADD DUP3 DUP1 SLOAD PUSH2 0x1C94 SWAP1 PUSH2 0x3563 JUMP JUMPDEST DUP1 ISZERO PUSH2 0x1CE1 JUMPI DUP1 PUSH1 0x1F LT PUSH2 0x1CB6 JUMPI PUSH2 0x100 DUP1 DUP4 SLOAD DIV MUL DUP4 MSTORE SWAP2 PUSH1 0x20 ADD SWAP2 PUSH2 0x1CE1 JUMP JUMPDEST DUP3 ADD SWAP2 SWAP1 PUSH1 0x0 MSTORE PUSH1 0x20 PUSH1 0x0 KECCAK256 SWAP1 JUMPDEST DUP2 SLOAD DUP2 MSTORE SWAP1 PUSH1 0x1 ADD SWAP1 PUSH1 0x20 ADD DUP1 DUP4 GT PUSH2 0x1CC4 JUMPI DUP3 SWAP1 SUB PUSH1 0x1F AND DUP3 ADD SWAP2 JUMPDEST POP POP POP POP POP SWAP1 DUP1 PUSH1 0x7 ADD DUP1 SLOAD PUSH2 0x1CF6 SWAP1 PUSH2 0x3563 JUMP JUMPDEST DUP1 PUSH1 0x1F ADD PUSH1 0x20 DUP1 SWAP2 DIV MUL PUSH1 0x20 ADD PUSH1 0x40 MLOAD SWAP1 DUP2 ADD PUSH1 0x40 MSTORE DUP1 SWAP3 SWAP2 SWAP1 DUP2 DUP2 MSTORE PUSH1 0x20 ADD DUP3 DUP1 SLOAD PUSH2 0x1D22 SWAP1 PUSH2 0x3563 JUMP JUMPDEST DUP1 ISZERO PUSH2 0x1D6F JUMPI DUP1 PUSH1 0x1F LT PUSH2 0x1D44 JUMPI PUSH2 0x100 DUP1 DUP4 SLOAD DIV MUL DUP4 MSTORE SWAP2 PUSH1 0x20 ADD SWAP2 PUSH2 0x1D6F JUMP JUMPDEST DUP3 ADD SWAP2 SWAP1 PUSH1 0x0 MSTORE PUSH1 0x20 PUSH1 0x0 KECCAK256 SWAP1 JUMPDEST DUP2 SLOAD DUP2 MSTORE SWAP1 PUSH1 0x1 ADD SWAP1 PUSH1 0x20 ADD DUP1 DUP4 GT PUSH2 0x1D52 JUMPI DUP3 SWAP1 SUB PUSH1 0x1F AND DUP3 ADD SWAP2 JUMPDEST POP POP POP POP POP SWAP1 POP DUP9 JUMP JUMPDEST PUSH1 0x1 PUSH1 0x1 PUSH1 0xA0 SHL SUB DUP2 AND PUSH1 0x0 SWAP1 DUP2 MSTORE PUSH1 0x2 PUSH1 0x20 DUP2 SWAP1 MSTORE PUSH1 0x40 DUP3 KECCAK256 SWAP1 DUP2 ADD SLOAD PUSH1 0x1 DUP3 ADD DUP1 SLOAD PUSH1 0x60 SWAP5 SWAP4 DUP6 SWAP4 DUP5 SWAP4 DUP5 SWAP4 DUP5 SWAP4 SWAP2 SWAP3 SWAP2 PUSH1 0x3 DUP2 ADD SWAP2 PUSH1 0x4 DUP3 ADD SWAP2 PUSH1 0x5 DUP2 ADD SWAP2 PUSH1 0x6 SWAP1 SWAP2 ADD SWAP1 DUP7 SWAP1 PUSH2 0x1DCC SWAP1 PUSH2 0x3563 JUMP JUMPDEST DUP1 PUSH1 0x1F ADD PUSH1 0x20 DUP1 SWAP2 DIV MUL PUSH1 0x20 ADD PUSH1 0x40 MLOAD SWAP1 DUP2 ADD PUSH1 0x40 MSTORE DUP1 SWAP3 SWAP2 SWAP1 DUP2 DUP2 MSTORE PUSH1 0x20 ADD DUP3 DUP1 SLOAD PUSH2 0x1DF8 SWAP1 PUSH2 0x3563 JUMP JUMPDEST DUP1 ISZERO PUSH2 0x1E45 JUMPI DUP1 PUSH1 0x1F LT PUSH2 0x1E1A JUMPI PUSH2 0x100 DUP1 DUP4 SLOAD DIV MUL DUP4 MSTORE SWAP2 PUSH1 0x20 ADD SWAP2 PUSH2 0x1E45 JUMP JUMPDEST DUP3 ADD SWAP2 SWAP1 PUSH1 0x0 MSTORE PUSH1 0x20 PUSH1 0x0 KECCAK256 SWAP1 JUMPDEST DUP2 SLOAD DUP2 MSTORE SWAP1 PUSH1 0x1 ADD SWAP1 PUSH1 0x20 ADD DUP1 DUP4 GT PUSH2 0x1E28 JUMPI DUP3 SWAP1 SUB PUSH1 0x1F AND DUP3 ADD SWAP2 JUMPDEST POP POP POP POP POP SWAP6 POP DUP4 DUP1 SLOAD PUSH2 0x1E58 SWAP1 PUSH2 0x3563 JUMP JUMPDEST DUP1 PUSH1 0x1F ADD PUSH1 0x20 DUP1 SWAP2 DIV MUL PUSH1 0x20 ADD PUSH1 0x40 MLOAD SWAP1 DUP2 ADD PUSH1 0x40 MSTORE DUP1 SWAP3 SWAP2 SWAP1 DUP2 DUP2 MSTORE PUSH1 0x20 ADD DUP3 DUP1 SLOAD PUSH2 0x1E84 SWAP1 PUSH2 0x3563 JUMP JUMPDEST DUP1 ISZERO PUSH2 0x1ED1 JUMPI DUP1 PUSH1 0x1F LT PUSH2 0x1EA6 JUMPI PUSH2 0x100 DUP1 DUP4 SLOAD DIV MUL DUP4 MSTORE SWAP2 PUSH1 0x20 ADD SWAP2 PUSH2 0x1ED1 JUMP JUMPDEST DUP3 ADD SWAP2 SWAP1 PUSH1 0x0 MSTORE PUSH1 0x20 PUSH1 0x0 KECCAK256 SWAP1 JUMPDEST DUP2 SLOAD DUP2 MSTORE SWAP1 PUSH1 0x1 ADD SWAP1 PUSH1 0x20 ADD DUP1 DUP4 GT PUSH2 0x1EB4 JUMPI DUP3 SWAP1 SUB PUSH1 0x1F AND DUP3 ADD SWAP2 JUMPDEST POP POP POP POP POP SWAP4 POP DUP3 DUP1 SLOAD PUSH2 0x1EE4 SWAP1 PUSH2 0x3563 JUMP JUMPDEST DUP1 PUSH1 0x1F ADD PUSH1 0x20 DUP1 SWAP2 DIV MUL PUSH1 0x20 ADD PUSH1 0x40 MLOAD SWAP1 DUP2 ADD PUSH1 0x40 MSTORE DUP1 SWAP3 SWAP2 SWAP1 DUP2 DUP2 MSTORE PUSH1 0x20 ADD DUP3 DUP1 SLOAD PUSH2 0x1F10 SWAP1 PUSH2 0x3563 JUMP JUMPDEST DUP1 ISZERO PUSH2 0x1F5D JUMPI DUP1 PUSH1 0x1F LT PUSH2 0x1F32 JUMPI PUSH2 0x100 DUP1 DUP4 SLOAD DIV MUL DUP4 MSTORE SWAP2 PUSH1 0x20 ADD SWAP2 PUSH2 0x1F5D JUMP JUMPDEST DUP3 ADD SWAP2 SWAP1 PUSH1 0x0 MSTORE PUSH1 0x20 PUSH1 0x0 KECCAK256 SWAP1 JUMPDEST DUP2 SLOAD DUP2 MSTORE SWAP1 PUSH1 0x1 ADD SWAP1 PUSH1 0x20 ADD DUP1 DUP4 GT PUSH2 0x1F40 JUMPI DUP3 SWAP1 SUB PUSH1 0x1F AND DUP3 ADD SWAP2 JUMPDEST POP POP POP POP POP SWAP3 POP DUP2 DUP1 SLOAD PUSH2 0x1F70 SWAP1 PUSH2 0x3563 JUMP JUMPDEST DUP1 PUSH1 0x1F ADD PUSH1 0x20 DUP1 SWAP2 DIV MUL PUSH1 0x20 ADD PUSH1 0x40 MLOAD SWAP1 DUP2 ADD PUSH1 0x40 MSTORE DUP1 SWAP3 SWAP2 SWAP1 DUP2 DUP2 MSTORE PUSH1 0x20 ADD DUP3 DUP1 SLOAD PUSH2 0x1F9C SWAP1 PUSH2 0x3563 JUMP JUMPDEST DUP1 ISZERO PUSH2 0x1FE9 JUMPI DUP1 PUSH1 0x1F LT PUSH2 0x1FBE JUMPI PUSH2 0x100 DUP1 DUP4 SLOAD DIV MUL DUP4 MSTORE SWAP2 PUSH1 0x20 ADD SWAP2 PUSH2 0x1FE9 JUMP JUMPDEST DUP3 ADD SWAP2 SWAP1 PUSH1 0x0 MSTORE PUSH1 0x20 PUSH1 0x0 KECCAK256 SWAP1 JUMPDEST DUP2 SLOAD DUP2 MSTORE SWAP1 PUSH1 0x1 ADD SWAP1 PUSH1 0x20 ADD DUP1 DUP4 GT PUSH2 0x1FCC JUMPI DUP3 SWAP1 SUB PUSH1 0x1F AND DUP3 ADD SWAP2 JUMPDEST POP POP POP POP POP SWAP2 POP DUP1 DUP1 SLOAD PUSH2 0x1FFC SWAP1 PUSH2 0x3563 JUMP JUMPDEST DUP1 PUSH1 0x1F ADD PUSH1 0x20 DUP1 SWAP2 DIV MUL PUSH1 0x20 ADD PUSH1 0x40 MLOAD SWAP1 DUP2 ADD PUSH1 0x40 MSTORE DUP1 SWAP3 SWAP2 SWAP1 DUP2 DUP2 MSTORE PUSH1 0x20 ADD DUP3 DUP1 SLOAD PUSH2 0x2028 SWAP1 PUSH2 0x3563 JUMP JUMPDEST DUP1 ISZERO PUSH2 0x2075 JUMPI DUP1 PUSH1 0x1F LT PUSH2 0x204A JUMPI PUSH2 0x100 DUP1 DUP4 SLOAD DIV MUL DUP4 MSTORE SWAP2 PUSH1 0x20 ADD SWAP2 PUSH2 0x2075 JUMP JUMPDEST DUP3 ADD SWAP2 SWAP1 PUSH1 0x0 MSTORE PUSH1 0x20 PUSH1 0x0 KECCAK256 SWAP1 JUMPDEST DUP2 SLOAD DUP2 MSTORE SWAP1 PUSH1 0x1 ADD SWAP1 PUSH1 0x20 ADD DUP1 DUP4 GT PUSH2 0x2058 JUMPI DUP3 SWAP1 SUB PUSH1 0x1F AND DUP3 ADD SWAP2 JUMPDEST POP POP POP POP POP SWAP1 POP SWAP6 POP SWAP6 POP SWAP6 POP SWAP6 POP SWAP6 POP SWAP6 POP SWAP2 SWAP4 SWAP6 POP SWAP2 SWAP4 SWAP6 JUMP JUMPDEST PUSH1 0x1 PUSH1 0x1 PUSH1 0xA0 SHL SUB DUP2 AND PUSH1 0x0 SWAP1 DUP2 MSTORE PUSH1 0x8 PUSH1 0x20 MSTORE PUSH1 0x40 DUP2 KECCAK256 SLOAD PUSH1 0xFF AND DUP1 PUSH2 0x10F5 JUMPI POP PUSH1 0x1 PUSH1 0x1 PUSH1 0xA0 SHL SUB DUP3 AND PUSH1 0x0 SWAP1 DUP2 MSTORE PUSH1 0xA PUSH1 0x20 MSTORE PUSH1 0x40 SWAP1 KECCAK256 SLOAD PUSH1 0xFF AND ISZERO PUSH2 0xFA3 JUMPI POP PUSH1 0x1 SWAP2 SWAP1 POP JUMP JUMPDEST PUSH2 0x20E5 CALLER PUSH2 0x2798 JUMP JUMPDEST PUSH2 0x20EE JUMPI PUSH1 0x0 DUP1 REVERT JUMPDEST PUSH1 0x0 SWAP2 DUP3 MSTORE PUSH1 0xD PUSH1 0x20 MSTORE PUSH1 0x40 SWAP1 SWAP2 KECCAK256 DUP1 SLOAD PUSH1 0x1 PUSH1 0x1 PUSH1 0xA0 SHL SUB NOT AND PUSH1 0x1 PUSH1 0x1 PUSH1 0xA0 SHL SUB SWAP1 SWAP3 AND SWAP2 SWAP1 SWAP2 OR SWAP1 SSTORE JUMP JUMPDEST PUSH1 0x1 PUSH1 0x1 PUSH1 0xA0 SHL SUB DUP2 AND PUSH1 0x0 SWAP1 DUP2 MSTORE PUSH1 0x5 PUSH1 0x20 MSTORE PUSH1 0x40 DUP2 KECCAK256 SLOAD PUSH1 0xFF AND ISZERO PUSH2 0xFA3 JUMPI POP PUSH1 0x1 SWAP2 SWAP1 POP JUMP JUMPDEST CALLER PUSH1 0x0 SWAP1 DUP2 MSTORE PUSH1 0x5 PUSH1 0x20 MSTORE PUSH1 0x40 SWAP1 KECCAK256 SLOAD PUSH1 0xFF AND DUP1 ISZERO PUSH2 0x217A JUMPI POP CALLER PUSH1 0x0 DUP2 DUP2 MSTORE PUSH1 0x2 PUSH1 0x20 MSTORE PUSH1 0x40 SWAP1 KECCAK256 SLOAD PUSH1 0x1 PUSH1 0x1 PUSH1 0xA0 SHL SUB AND EQ JUMPDEST PUSH2 0x2183 JUMPI PUSH1 0x0 DUP1 REVERT JUMPDEST CALLER PUSH1 0x0 SWAP1 DUP2 MSTORE PUSH1 0x2 PUSH1 0x20 MSTORE PUSH1 0x40 SWAP1 KECCAK256 PUSH1 0x1 ADD PUSH2 0x219F DUP7 DUP3 PUSH2 0x35E3 JUMP JUMPDEST POP CALLER PUSH1 0x0 SWAP1 DUP2 MSTORE PUSH1 0x2 PUSH1 0x20 DUP2 SWAP1 MSTORE PUSH1 0x40 SWAP1 SWAP2 KECCAK256 SWAP1 DUP2 ADD DUP6 SWAP1 SSTORE PUSH1 0x3 ADD PUSH2 0x21C5 DUP5 DUP3 PUSH2 0x35E3 JUMP JUMPDEST POP CALLER PUSH1 0x0 SWAP1 DUP2 MSTORE PUSH1 0x2 PUSH1 0x20 MSTORE PUSH1 0x40 SWAP1 KECCAK256 PUSH1 0x4 ADD PUSH2 0x21E2 DUP4 DUP3 PUSH2 0x35E3 JUMP JUMPDEST POP CALLER PUSH1 0x0 SWAP1 DUP2 MSTORE PUSH1 0x2 PUSH1 0x20 MSTORE PUSH1 0x40 SWAP1 KECCAK256 PUSH1 0x5 ADD PUSH2 0x21FF DUP3 DUP3 PUSH2 0x35E3 JUMP JUMPDEST POP POP POP POP POP POP JUMP JUMPDEST PUSH1 0x0 DUP2 DUP2 MSTORE PUSH1 0x10 PUSH1 0x20 MSTORE PUSH1 0x40 DUP2 KECCAK256 SLOAD PUSH1 0xFF AND ISZERO PUSH2 0xFA3 JUMPI POP PUSH1 0x1 SWAP2 SWAP1 POP JUMP JUMPDEST PUSH1 0x12 DUP2 DUP2 SLOAD DUP2 LT PUSH2 0x2236 JUMPI PUSH1 0x0 DUP1 REVERT JUMPDEST PUSH1 0x0 SWAP2 DUP3 MSTORE PUSH1 0x20 SWAP1 SWAP2 KECCAK256 ADD SLOAD PUSH1 0x1 PUSH1 0x1 PUSH1 0xA0 SHL SUB AND SWAP1 POP DUP2 JUMP JUMPDEST PUSH2 0x2259 CALLER PUSH2 0x2798 JUMP JUMPDEST PUSH2 0x2262 JUMPI PUSH1 0x0 DUP1 REVERT JUMPDEST PUSH1 0x1 PUSH1 0x1 PUSH1 0xA0 SHL SUB DUP2 AND PUSH1 0x0 DUP2 DUP2 MSTORE PUSH1 0x8 PUSH1 0x20 SWAP1 DUP2 MSTORE PUSH1 0x40 SWAP2 DUP3 SWAP1 KECCAK256 DUP1 SLOAD PUSH1 0xFF NOT AND PUSH1 0x1 OR SWAP1 SSTORE SWAP1 MLOAD SWAP2 DUP3 MSTORE PUSH32 0x6A6455914F452787EB3985452ACEEDC1000FB545E394EB3B370E3D08958E0A5B SWAP2 ADD PUSH2 0x13ED JUMP JUMPDEST PUSH1 0x0 DUP2 DUP2 MSTORE PUSH1 0x20 DUP2 SWAP1 MSTORE PUSH1 0x40 SWAP1 KECCAK256 PUSH1 0x2 ADD DUP1 SLOAD PUSH1 0x60 SWAP2 SWAP1 PUSH2 0xFC8 SWAP1 PUSH2 0x3563 JUMP JUMPDEST PUSH2 0x22DF CALLER PUSH2 0x2BC5 JUMP JUMPDEST DUP1 ISZERO PUSH2 0x22EF JUMPI POP PUSH2 0x22EF CALLER PUSH2 0x2091 JUMP JUMPDEST PUSH2 0x22F8 JUMPI PUSH1 0x0 DUP1 REVERT JUMPDEST PUSH1 0x0 SWAP1 DUP2 MSTORE PUSH1 0xE PUSH1 0x20 MSTORE PUSH1 0x40 SWAP1 KECCAK256 DUP1 SLOAD PUSH1 0xFF NOT AND PUSH1 0x1 OR SWAP1 SSTORE JUMP JUMPDEST PUSH1 0x60 PUSH1 0x12 DUP1 SLOAD DUP1 PUSH1 0x20 MUL PUSH1 0x20 ADD PUSH1 0x40 MLOAD SWAP1 DUP2 ADD PUSH1 0x40 MSTORE DUP1 SWAP3 SWAP2 SWAP1 DUP2 DUP2 MSTORE PUSH1 0x20 ADD DUP3 DUP1 SLOAD DUP1 ISZERO PUSH2 0x132F JUMPI PUSH1 0x20 MUL DUP3 ADD SWAP2 SWAP1 PUSH1 0x0 MSTORE PUSH1 0x20 PUSH1 0x0 KECCAK256 SWAP1 DUP2 SLOAD PUSH1 0x1 PUSH1 0x1 PUSH1 0xA0 SHL SUB AND DUP2 MSTORE PUSH1 0x1 SWAP1 SWAP2 ADD SWAP1 PUSH1 0x20 ADD DUP1 DUP4 GT PUSH2 0x1311 JUMPI POP POP POP POP POP SWAP1 POP SWAP1 JUMP JUMPDEST PUSH1 0x2 PUSH1 0x20 MSTORE PUSH1 0x0 SWAP1 DUP2 MSTORE PUSH1 0x40 SWAP1 KECCAK256 DUP1 SLOAD PUSH1 0x1 DUP3 ADD DUP1 SLOAD PUSH1 0x1 PUSH1 0x1 PUSH1 0xA0 SHL SUB SWAP1 SWAP3 AND SWAP3 SWAP2 PUSH2 0x239F SWAP1 PUSH2 0x3563 JUMP JUMPDEST DUP1 PUSH1 0x1F ADD PUSH1 0x20 DUP1 SWAP2 DIV MUL PUSH1 0x20 ADD PUSH1 0x40 MLOAD SWAP1 DUP2 ADD PUSH1 0x40 MSTORE DUP1 SWAP3 SWAP2 SWAP1 DUP2 DUP2 MSTORE PUSH1 0x20 ADD DUP3 DUP1 SLOAD PUSH2 0x23CB SWAP1 PUSH2 0x3563 JUMP JUMPDEST DUP1 ISZERO PUSH2 0x2418 JUMPI DUP1 PUSH1 0x1F LT PUSH2 0x23ED JUMPI PUSH2 0x100 DUP1 DUP4 SLOAD DIV MUL DUP4 MSTORE SWAP2 PUSH1 0x20 ADD SWAP2 PUSH2 0x2418 JUMP JUMPDEST DUP3 ADD SWAP2 SWAP1 PUSH1 0x0 MSTORE PUSH1 0x20 PUSH1 0x0 KECCAK256 SWAP1 JUMPDEST DUP2 SLOAD DUP2 MSTORE SWAP1 PUSH1 0x1 ADD SWAP1 PUSH1 0x20 ADD DUP1 DUP4 GT PUSH2 0x23FB JUMPI DUP3 SWAP1 SUB PUSH1 0x1F AND DUP3 ADD SWAP2 JUMPDEST POP POP POP POP POP SWAP1 DUP1 PUSH1 0x2 ADD SLOAD SWAP1 DUP1 PUSH1 0x3 ADD DUP1 SLOAD PUSH2 0x2433 SWAP1 PUSH2 0x3563 JUMP JUMPDEST DUP1 PUSH1 0x1F ADD PUSH1 0x20 DUP1 SWAP2 DIV MUL PUSH1 0x20 ADD PUSH1 0x40 MLOAD SWAP1 DUP2 ADD PUSH1 0x40 MSTORE DUP1 SWAP3 SWAP2 SWAP1 DUP2 DUP2 MSTORE PUSH1 0x20 ADD DUP3 DUP1 SLOAD PUSH2 0x245F SWAP1 PUSH2 0x3563 JUMP JUMPDEST DUP1 ISZERO PUSH2 0x24AC JUMPI DUP1 PUSH1 0x1F LT PUSH2 0x2481 JUMPI PUSH2 0x100 DUP1 DUP4 SLOAD DIV MUL DUP4 MSTORE SWAP2 PUSH1 0x20 ADD SWAP2 PUSH2 0x24AC JUMP JUMPDEST DUP3 ADD SWAP2 SWAP1 PUSH1 0x0 MSTORE PUSH1 0x20 PUSH1 0x0 KECCAK256 SWAP1 JUMPDEST DUP2 SLOAD DUP2 MSTORE SWAP1 PUSH1 0x1 ADD SWAP1 PUSH1 0x20 ADD DUP1 DUP4 GT PUSH2 0x248F JUMPI DUP3 SWAP1 SUB PUSH1 0x1F AND DUP3 ADD SWAP2 JUMPDEST POP POP POP POP POP SWAP1 DUP1 PUSH1 0x4 ADD DUP1 SLOAD PUSH2 0x24C1 SWAP1 PUSH2 0x3563 JUMP JUMPDEST DUP1 PUSH1 0x1F ADD PUSH1 0x20 DUP1 SWAP2 DIV MUL PUSH1 0x20 ADD PUSH1 0x40 MLOAD SWAP1 DUP2 ADD PUSH1 0x40 MSTORE DUP1 SWAP3 SWAP2 SWAP1 DUP2 DUP2 MSTORE PUSH1 0x20 ADD DUP3 DUP1 SLOAD PUSH2 0x24ED SWAP1 PUSH2 0x3563 JUMP JUMPDEST DUP1 ISZERO PUSH2 0x253A JUMPI DUP1 PUSH1 0x1F LT PUSH2 0x250F JUMPI PUSH2 0x100 DUP1 DUP4 SLOAD DIV MUL DUP4 MSTORE SWAP2 PUSH1 0x20 ADD SWAP2 PUSH2 0x253A JUMP JUMPDEST DUP3 ADD SWAP2 SWAP1 PUSH1 0x0 MSTORE PUSH1 0x20 PUSH1 0x0 KECCAK256 SWAP1 JUMPDEST DUP2 SLOAD DUP2 MSTORE SWAP1 PUSH1 0x1 ADD SWAP1 PUSH1 0x20 ADD DUP1 DUP4 GT PUSH2 0x251D JUMPI DUP3 SWAP1 SUB PUSH1 0x1F AND DUP3 ADD SWAP2 JUMPDEST POP POP POP POP POP SWAP1 DUP1 PUSH1 0x5 ADD DUP1 SLOAD PUSH2 0x254F SWAP1 PUSH2 0x3563 JUMP JUMPDEST DUP1 PUSH1 0x1F ADD PUSH1 0x20 DUP1 SWAP2 DIV MUL PUSH1 0x20 ADD PUSH1 0x40 MLOAD SWAP1 DUP2 ADD PUSH1 0x40 MSTORE DUP1 SWAP3 SWAP2 SWAP1 DUP2 DUP2 MSTORE PUSH1 0x20 ADD DUP3 DUP1 SLOAD PUSH2 0x257B SWAP1 PUSH2 0x3563 JUMP JUMPDEST DUP1 ISZERO PUSH2 0x25C8 JUMPI DUP1 PUSH1 0x1F LT PUSH2 0x259D JUMPI PUSH2 0x100 DUP1 DUP4 SLOAD DIV MUL DUP4 MSTORE SWAP2 PUSH1 0x20 ADD SWAP2 PUSH2 0x25C8 JUMP JUMPDEST DUP3 ADD SWAP2 SWAP1 PUSH1 0x0 MSTORE PUSH1 0x20 PUSH1 0x0 KECCAK256 SWAP1 JUMPDEST DUP2 SLOAD DUP2 MSTORE SWAP1 PUSH1 0x1 ADD SWAP1 PUSH1 0x20 ADD DUP1 DUP4 GT PUSH2 0x25AB JUMPI DUP3 SWAP1 SUB PUSH1 0x1F AND DUP3 ADD SWAP2 JUMPDEST POP POP POP POP POP SWAP1 DUP1 PUSH1 0x6 ADD DUP1 SLOAD PUSH2 0x25DD SWAP1 PUSH2 0x3563 JUMP JUMPDEST DUP1 PUSH1 0x1F ADD PUSH1 0x20 DUP1 SWAP2 DIV MUL PUSH1 0x20 ADD PUSH1 0x40 MLOAD SWAP1 DUP2 ADD PUSH1 0x40 MSTORE DUP1 SWAP3 SWAP2 SWAP1 DUP2 DUP2 MSTORE PUSH1 0x20 ADD DUP3 DUP1 SLOAD PUSH2 0x2609 SWAP1 PUSH2 0x3563 JUMP JUMPDEST DUP1 ISZERO PUSH2 0x2656 JUMPI DUP1 PUSH1 0x1F LT PUSH2 0x262B JUMPI PUSH2 0x100 DUP1 DUP4 SLOAD DIV MUL DUP4 MSTORE SWAP2 PUSH1 0x20 ADD SWAP2 PUSH2 0x2656 JUMP JUMPDEST DUP3 ADD SWAP2 SWAP1 PUSH1 0x0 MSTORE PUSH1 0x20 PUSH1 0x0 KECCAK256 SWAP1 JUMPDEST DUP2 SLOAD DUP2 MSTORE SWAP1 PUSH1 0x1 ADD SWAP1 PUSH1 0x20 ADD DUP1 DUP4 GT PUSH2 0x2639 JUMPI DUP3 SWAP1 SUB PUSH1 0x1F AND DUP3 ADD SWAP2 JUMPDEST POP POP POP POP POP SWAP1 POP DUP8 JUMP JUMPDEST PUSH1 0x1 PUSH1 0x20 DUP2 SWAP1 MSTORE PUSH1 0x0 SWAP2 DUP3 MSTORE PUSH1 0x40 SWAP1 SWAP2 KECCAK256 DUP1 SLOAD SWAP2 DUP2 ADD DUP1 SLOAD PUSH2 0x2681 SWAP1 PUSH2 0x3563 JUMP JUMPDEST DUP1 PUSH1 0x1F ADD PUSH1 0x20 DUP1 SWAP2 DIV MUL PUSH1 0x20 ADD PUSH1 0x40 MLOAD SWAP1 DUP2 ADD PUSH1 0x40 MSTORE DUP1 SWAP3 SWAP2 SWAP1 DUP2 DUP2 MSTORE PUSH1 0x20 ADD DUP3 DUP1 SLOAD PUSH2 0x26AD SWAP1 PUSH2 0x3563 JUMP JUMPDEST DUP1 ISZERO PUSH2 0x26FA JUMPI DUP1 PUSH1 0x1F LT PUSH2 0x26CF JUMPI PUSH2 0x100 DUP1 DUP4 SLOAD DIV MUL DUP4 MSTORE SWAP2 PUSH1 0x20 ADD SWAP2 PUSH2 0x26FA JUMP JUMPDEST DUP3 ADD SWAP2 SWAP1 PUSH1 0x0 MSTORE PUSH1 0x20 PUSH1 0x0 KECCAK256 SWAP1 JUMPDEST DUP2 SLOAD DUP2 MSTORE SWAP1 PUSH1 0x1 ADD SWAP1 PUSH1 0x20 ADD DUP1 DUP4 GT PUSH2 0x26DD JUMPI DUP3 SWAP1 SUB PUSH1 0x1F AND DUP3 ADD SWAP2 JUMPDEST POP POP POP POP POP SWAP1 DUP1 PUSH1 0x2 ADD SLOAD SWAP1 DUP1 PUSH1 0x3 ADD DUP1 SLOAD PUSH2 0x2715 SWAP1 PUSH2 0x3563 JUMP JUMPDEST DUP1 PUSH1 0x1F ADD PUSH1 0x20 DUP1 SWAP2 DIV MUL PUSH1 0x20 ADD PUSH1 0x40 MLOAD SWAP1 DUP2 ADD PUSH1 0x40 MSTORE DUP1 SWAP3 SWAP2 SWAP1 DUP2 DUP2 MSTORE PUSH1 0x20 ADD DUP3 DUP1 SLOAD PUSH2 0x2741 SWAP1 PUSH2 0x3563 JUMP JUMPDEST DUP1 ISZERO PUSH2 0x278E JUMPI DUP1 PUSH1 0x1F LT PUSH2 0x2763 JUMPI PUSH2 0x100 DUP1 DUP4 SLOAD DIV MUL DUP4 MSTORE SWAP2 PUSH1 0x20 ADD SWAP2 PUSH2 0x278E JUMP JUMPDEST DUP3 ADD SWAP2 SWAP1 PUSH1 0x0 MSTORE PUSH1 0x20 PUSH1 0x0 KECCAK256 SWAP1 JUMPDEST DUP2 SLOAD DUP2 MSTORE SWAP1 PUSH1 0x1 ADD SWAP1 PUSH1 0x20 ADD DUP1 DUP4 GT PUSH2 0x2771 JUMPI DUP3 SWAP1 SUB PUSH1 0x1F AND DUP3 ADD SWAP2 JUMPDEST POP POP POP POP POP SWAP1 POP DUP5 JUMP JUMPDEST PUSH1 0x11 SLOAD PUSH1 0x0 SWAP1 PUSH1 0x1 PUSH1 0x1 PUSH1 0xA0 SHL SUB DUP1 DUP5 AND SWAP2 AND SUB PUSH2 0x27B8 JUMPI POP PUSH1 0x1 SWAP2 SWAP1 POP JUMP JUMPDEST POP PUSH1 0x0 SWAP2 SWAP1 POP JUMP JUMPDEST PUSH2 0x27C9 CALLER PUSH2 0x2798 JUMP JUMPDEST PUSH2 0x27D2 JUMPI PUSH1 0x0 DUP1 REVERT JUMPDEST PUSH1 0x1 PUSH1 0x1 PUSH1 0xA0 SHL SUB DUP2 AND PUSH1 0x0 DUP2 DUP2 MSTORE PUSH1 0x9 PUSH1 0x20 SWAP1 DUP2 MSTORE PUSH1 0x40 SWAP2 DUP3 SWAP1 KECCAK256 DUP1 SLOAD PUSH1 0xFF NOT AND PUSH1 0x1 OR SWAP1 SSTORE SWAP1 MLOAD SWAP2 DUP3 MSTORE PUSH32 0xAF77F8960CF590E245EC8B6D41C193A5DCACAD8986AE4EB57AC9E5BE7B6AF031 SWAP2 ADD PUSH2 0x13ED JUMP JUMPDEST PUSH1 0x0 PUSH1 0x20 DUP2 SWAP1 MSTORE SWAP1 DUP2 MSTORE PUSH1 0x40 SWAP1 KECCAK256 DUP1 SLOAD PUSH1 0x1 DUP3 ADD SLOAD PUSH1 0x2 DUP4 ADD DUP1 SLOAD SWAP3 SWAP4 SWAP2 SWAP3 PUSH2 0x284E SWAP1 PUSH2 0x3563 JUMP JUMPDEST DUP1 PUSH1 0x1F ADD PUSH1 0x20 DUP1 SWAP2 DIV MUL PUSH1 0x20 ADD PUSH1 0x40 MLOAD SWAP1 DUP2 ADD PUSH1 0x40 MSTORE DUP1 SWAP3 SWAP2 SWAP1 DUP2 DUP2 MSTORE PUSH1 0x20 ADD DUP3 DUP1 SLOAD PUSH2 0x287A SWAP1 PUSH2 0x3563 JUMP JUMPDEST DUP1 ISZERO PUSH2 0x28C7 JUMPI DUP1 PUSH1 0x1F LT PUSH2 0x289C JUMPI PUSH2 0x100 DUP1 DUP4 SLOAD DIV MUL DUP4 MSTORE SWAP2 PUSH1 0x20 ADD SWAP2 PUSH2 0x28C7 JUMP JUMPDEST DUP3 ADD SWAP2 SWAP1 PUSH1 0x0 MSTORE PUSH1 0x20 PUSH1 0x0 KECCAK256 SWAP1 JUMPDEST DUP2 SLOAD DUP2 MSTORE SWAP1 PUSH1 0x1 ADD SWAP1 PUSH1 0x20 ADD DUP1 DUP4 GT PUSH2 0x28AA JUMPI DUP3 SWAP1 SUB PUSH1 0x1F AND DUP3 ADD SWAP2 JUMPDEST POP POP POP POP POP SWAP1 DUP1 PUSH1 0x3 ADD DUP1 SLOAD PUSH2 0x28DC SWAP1 PUSH2 0x3563 JUMP JUMPDEST DUP1 PUSH1 0x1F ADD PUSH1 0x20 DUP1 SWAP2 DIV MUL PUSH1 0x20 ADD PUSH1 0x40 MLOAD SWAP1 DUP2 ADD PUSH1 0x40 MSTORE DUP1 SWAP3 SWAP2 SWAP1 DUP2 DUP2 MSTORE PUSH1 0x20 ADD DUP3 DUP1 SLOAD PUSH2 0x2908 SWAP1 PUSH2 0x3563 JUMP JUMPDEST DUP1 ISZERO PUSH2 0x2955 JUMPI DUP1 PUSH1 0x1F LT PUSH2 0x292A JUMPI PUSH2 0x100 DUP1 DUP4 SLOAD DIV MUL DUP4 MSTORE SWAP2 PUSH1 0x20 ADD SWAP2 PUSH2 0x2955 JUMP JUMPDEST DUP3 ADD SWAP2 SWAP1 PUSH1 0x0 MSTORE PUSH1 0x20 PUSH1 0x0 KECCAK256 SWAP1 JUMPDEST DUP2 SLOAD DUP2 MSTORE SWAP1 PUSH1 0x1 ADD SWAP1 PUSH1 0x20 ADD DUP1 DUP4 GT PUSH2 0x2938 JUMPI DUP3 SWAP1 SUB PUSH1 0x1F AND DUP3 ADD SWAP2 JUMPDEST POP POP POP POP POP SWAP1 DUP1 PUSH1 0x4 ADD SLOAD SWAP1 DUP1 PUSH1 0x5 ADD SLOAD SWAP1 DUP1 PUSH1 0x6 ADD SLOAD SWAP1 DUP1 PUSH1 0x7 ADD DUP1 SLOAD PUSH2 0x297C SWAP1 PUSH2 0x3563 JUMP JUMPDEST DUP1 PUSH1 0x1F ADD PUSH1 0x20 DUP1 SWAP2 DIV MUL PUSH1 0x20 ADD PUSH1 0x40 MLOAD SWAP1 DUP2 ADD PUSH1 0x40 MSTORE DUP1 SWAP3 SWAP2 SWAP1 DUP2 DUP2 MSTORE PUSH1 0x20 ADD DUP3 DUP1 SLOAD PUSH2 0x29A8 SWAP1 PUSH2 0x3563 JUMP JUMPDEST DUP1 ISZERO PUSH2 0x29F5 JUMPI DUP1 PUSH1 0x1F LT PUSH2 0x29CA JUMPI PUSH2 0x100 DUP1 DUP4 SLOAD DIV MUL DUP4 MSTORE SWAP2 PUSH1 0x20 ADD SWAP2 PUSH2 0x29F5 JUMP JUMPDEST DUP3 ADD SWAP2 SWAP1 PUSH1 0x0 MSTORE PUSH1 0x20 PUSH1 0x0 KECCAK256 SWAP1 JUMPDEST DUP2 SLOAD DUP2 MSTORE SWAP1 PUSH1 0x1 ADD SWAP1 PUSH1 0x20 ADD DUP1 DUP4 GT PUSH2 0x29D8 JUMPI DUP3 SWAP1 SUB PUSH1 0x1F AND DUP3 ADD SWAP2 JUMPDEST POP POP POP POP POP SWAP1 DUP1 PUSH1 0x8 ADD DUP1 SLOAD PUSH2 0x2A0A SWAP1 PUSH2 0x3563 JUMP JUMPDEST DUP1 PUSH1 0x1F ADD PUSH1 0x20 DUP1 SWAP2 DIV MUL PUSH1 0x20 ADD PUSH1 0x40 MLOAD SWAP1 DUP2 ADD PUSH1 0x40 MSTORE DUP1 SWAP3 SWAP2 SWAP1 DUP2 DUP2 MSTORE PUSH1 0x20 ADD DUP3 DUP1 SLOAD PUSH2 0x2A36 SWAP1 PUSH2 0x3563 JUMP JUMPDEST DUP1 ISZERO PUSH2 0x2A83 JUMPI DUP1 PUSH1 0x1F LT PUSH2 0x2A58 JUMPI PUSH2 0x100 DUP1 DUP4 SLOAD DIV MUL DUP4 MSTORE SWAP2 PUSH1 0x20 ADD SWAP2 PUSH2 0x2A83 JUMP JUMPDEST DUP3 ADD SWAP2 SWAP1 PUSH1 0x0 MSTORE PUSH1 0x20 PUSH1 0x0 KECCAK256 SWAP1 JUMPDEST DUP2 SLOAD DUP2 MSTORE SWAP1 PUSH1 0x1 ADD SWAP1 PUSH1 0x20 ADD DUP1 DUP4 GT PUSH2 0x2A66 JUMPI DUP3 SWAP1 SUB PUSH1 0x1F AND DUP3 ADD SWAP2 JUMPDEST POP POP POP POP POP SWAP1 POP DUP10 JUMP JUMPDEST PUSH2 0x2A96 CALLER PUSH2 0x2BC5 JUMP JUMPDEST DUP1 ISZERO PUSH2 0x2AA6 JUMPI POP PUSH2 0x2AA6 CALLER PUSH2 0x2091 JUMP JUMPDEST PUSH2 0x2AAF JUMPI PUSH1 0x0 DUP1 REVERT JUMPDEST PUSH1 0x14 DUP1 SLOAD SWAP1 PUSH1 0x0 PUSH2 0x2ABF DUP4 PUSH2 0x36A3 JUMP JUMPDEST SWAP1 SWAP2 SSTORE POP POP PUSH1 0x40 DUP1 MLOAD PUSH2 0x120 DUP2 ADD DUP3 MSTORE PUSH1 0x14 SLOAD DUP1 DUP3 MSTORE PUSH1 0x20 DUP1 DUP4 ADD DUP13 DUP2 MSTORE DUP4 DUP6 ADD DUP13 DUP2 MSTORE PUSH1 0x60 DUP6 ADD DUP13 SWAP1 MSTORE PUSH1 0x80 DUP6 ADD DUP12 SWAP1 MSTORE PUSH1 0xA0 DUP6 ADD DUP11 SWAP1 MSTORE PUSH1 0xC0 DUP6 ADD DUP10 SWAP1 MSTORE PUSH1 0xE0 DUP6 ADD DUP9 SWAP1 MSTORE PUSH2 0x100 DUP6 ADD DUP8 SWAP1 MSTORE PUSH1 0x0 SWAP4 DUP5 MSTORE SWAP2 DUP4 SWAP1 MSTORE SWAP4 SWAP1 SWAP2 KECCAK256 DUP3 MLOAD DUP2 SSTORE SWAP3 MLOAD PUSH1 0x1 DUP5 ADD SSTORE MLOAD SWAP1 SWAP2 SWAP1 PUSH1 0x2 DUP3 ADD SWAP1 PUSH2 0x2B39 SWAP1 DUP3 PUSH2 0x35E3 JUMP JUMPDEST POP PUSH1 0x60 DUP3 ADD MLOAD PUSH1 0x3 DUP3 ADD SWAP1 PUSH2 0x2B4E SWAP1 DUP3 PUSH2 0x35E3 JUMP JUMPDEST POP PUSH1 0x80 DUP3 ADD MLOAD PUSH1 0x4 DUP3 ADD SSTORE PUSH1 0xA0 DUP3 ADD MLOAD PUSH1 0x5 DUP3 ADD SSTORE PUSH1 0xC0 DUP3 ADD MLOAD PUSH1 0x6 DUP3 ADD SSTORE PUSH1 0xE0 DUP3 ADD MLOAD PUSH1 0x7 DUP3 ADD SWAP1 PUSH2 0x2B81 SWAP1 DUP3 PUSH2 0x35E3 JUMP JUMPDEST POP PUSH2 0x100 DUP3 ADD MLOAD PUSH1 0x8 DUP3 ADD SWAP1 PUSH2 0x2B97 SWAP1 DUP3 PUSH2 0x35E3 JUMP JUMPDEST POP POP PUSH1 0x14 SLOAD PUSH1 0x0 SWAP1 DUP2 MSTORE PUSH1 0xD PUSH1 0x20 MSTORE PUSH1 0x40 SWAP1 KECCAK256 DUP1 SLOAD PUSH1 0x1 PUSH1 0x1 PUSH1 0xA0 SHL SUB NOT AND CALLER OR SWAP1 SSTORE POP POP POP POP POP POP POP POP POP JUMP JUMPDEST PUSH1 0x1 PUSH1 0x1 PUSH1 0xA0 SHL SUB DUP2 AND PUSH1 0x0 SWAP1 DUP2 MSTORE PUSH1 0x6 PUSH1 0x20 MSTORE PUSH1 0x40 DUP2 KECCAK256 SLOAD PUSH1 0xFF AND ISZERO PUSH2 0xFA3 JUMPI POP PUSH1 0x1 SWAP2 SWAP1 POP JUMP JUMPDEST PUSH1 0x13 DUP2 DUP2 SLOAD DUP2 LT PUSH2 0x2236 JUMPI PUSH1 0x0 DUP1 REVERT JUMPDEST PUSH2 0x2C07 CALLER PUSH2 0x104D JUMP JUMPDEST DUP1 ISZERO PUSH2 0x2C17 JUMPI POP PUSH2 0x2C17 CALLER PUSH2 0x2091 JUMP JUMPDEST PUSH2 0x2C20 JUMPI PUSH1 0x0 DUP1 REVERT JUMPDEST PUSH1 0x18 DUP1 SLOAD SWAP1 PUSH1 0x0 PUSH2 0x2C30 DUP4 PUSH2 0x36A3 JUMP JUMPDEST SWAP1 SWAP2 SSTORE POP POP PUSH1 0x40 DUP1 MLOAD PUSH1 0x80 DUP2 ADD DUP3 MSTORE PUSH1 0x18 DUP1 SLOAD DUP1 DUP4 MSTORE PUSH1 0x1 PUSH1 0x1 PUSH1 0xA0 SHL SUB DUP7 DUP2 AND PUSH1 0x20 DUP1 DUP7 ADD DUP3 DUP2 MSTORE CALLER DUP8 DUP10 ADD SWAP1 DUP2 MSTORE PUSH1 0x60 DUP9 ADD DUP11 DUP2 MSTORE PUSH1 0x0 SWAP7 DUP8 MSTORE PUSH1 0x4 DUP5 MSTORE DUP10 DUP8 KECCAK256 SWAP9 MLOAD DUP10 SSTORE SWAP2 MLOAD PUSH1 0x1 DUP1 DUP11 ADD DUP1 SLOAD SWAP3 DUP9 AND PUSH1 0x1 PUSH1 0x1 PUSH1 0xA0 SHL SUB NOT SWAP4 DUP5 AND OR SWAP1 SSTORE SWAP2 MLOAD PUSH1 0x2 DUP11 ADD DUP1 SLOAD SWAP2 SWAP1 SWAP8 AND SWAP2 AND OR SWAP1 SWAP5 SSTORE MLOAD PUSH1 0x3 SWAP1 SWAP7 ADD SWAP6 SWAP1 SWAP6 SSTORE DUP4 SLOAD DUP4 MSTORE PUSH1 0xE DUP6 MSTORE DUP6 DUP4 KECCAK256 DUP1 SLOAD PUSH1 0xFF NOT SWAP1 DUP2 AND SWAP1 SWAP2 SSTORE SWAP4 SLOAD DUP4 MSTORE PUSH1 0xF DUP6 MSTORE SWAP2 DUP6 SWAP1 KECCAK256 DUP1 SLOAD SWAP1 SWAP4 AND OR SWAP1 SWAP2 SSTORE SWAP2 MLOAD SWAP2 DUP3 MSTORE PUSH32 0xC67EB70629DA758128CEC22F7E36AD0676066AD4DF9B66E8BA58A30C1AB4075B SWAP2 ADD PUSH1 0x40 MLOAD DUP1 SWAP2 SUB SWAP1 LOG1 POP POP JUMP JUMPDEST PUSH2 0x2D16 CALLER PUSH2 0x2798 JUMP JUMPDEST PUSH2 0x2D1F JUMPI PUSH1 0x0 DUP1 REVERT JUMPDEST PUSH1 0x0 SWAP1 DUP2 MSTORE PUSH1 0xC PUSH1 0x20 MSTORE PUSH1 0x40 SWAP1 KECCAK256 DUP1 SLOAD PUSH1 0xFF NOT AND PUSH1 0x1 OR SWAP1 SSTORE JUMP JUMPDEST PUSH1 0x0 PUSH1 0x20 DUP3 DUP5 SUB SLT ISZERO PUSH2 0x2D4C JUMPI PUSH1 0x0 DUP1 REVERT JUMPDEST POP CALLDATALOAD SWAP2 SWAP1 POP JUMP JUMPDEST PUSH4 0x4E487B71 PUSH1 0xE0 SHL PUSH1 0x0 MSTORE PUSH1 0x41 PUSH1 0x4 MSTORE PUSH1 0x24 PUSH1 0x0 REVERT JUMPDEST PUSH1 0x0 DUP3 PUSH1 0x1F DUP4 ADD SLT PUSH2 0x2D7A JUMPI PUSH1 0x0 DUP1 REVERT JUMPDEST DUP2 CALLDATALOAD PUSH8 0xFFFFFFFFFFFFFFFF DUP1 DUP3 GT ISZERO PUSH2 0x2D95 JUMPI PUSH2 0x2D95 PUSH2 0x2D53 JUMP JUMPDEST PUSH1 0x40 MLOAD PUSH1 0x1F DUP4 ADD PUSH1 0x1F NOT SWAP1 DUP2 AND PUSH1 0x3F ADD AND DUP2 ADD SWAP1 DUP3 DUP3 GT DUP2 DUP4 LT OR ISZERO PUSH2 0x2DBD JUMPI PUSH2 0x2DBD PUSH2 0x2D53 JUMP JUMPDEST DUP2 PUSH1 0x40 MSTORE DUP4 DUP2 MSTORE DUP7 PUSH1 0x20 DUP6 DUP9 ADD ADD GT ISZERO PUSH2 0x2DD6 JUMPI PUSH1 0x0 DUP1 REVERT JUMPDEST DUP4 PUSH1 0x20 DUP8 ADD PUSH1 0x20 DUP4 ADD CALLDATACOPY PUSH1 0x0 PUSH1 0x20 DUP6 DUP4 ADD ADD MSTORE DUP1 SWAP5 POP POP POP POP POP SWAP3 SWAP2 POP POP JUMP JUMPDEST PUSH1 0x0 DUP1 PUSH1 0x0 DUP1 PUSH1 0x0 DUP1 PUSH1 0xC0 DUP8 DUP10 SUB SLT ISZERO PUSH2 0x2E0F JUMPI PUSH1 0x0 DUP1 REVERT JUMPDEST DUP7 CALLDATALOAD PUSH8 0xFFFFFFFFFFFFFFFF DUP1 DUP3 GT ISZERO PUSH2 0x2E27 JUMPI PUSH1 0x0 DUP1 REVERT JUMPDEST PUSH2 0x2E33 DUP11 DUP4 DUP12 ADD PUSH2 0x2D69 JUMP JUMPDEST SWAP8 POP PUSH1 0x20 DUP10 ADD CALLDATALOAD SWAP7 POP PUSH1 0x40 DUP10 ADD CALLDATALOAD SWAP2 POP DUP1 DUP3 GT ISZERO PUSH2 0x2E50 JUMPI PUSH1 0x0 DUP1 REVERT JUMPDEST PUSH2 0x2E5C DUP11 DUP4 DUP12 ADD PUSH2 0x2D69 JUMP JUMPDEST SWAP6 POP PUSH1 0x60 DUP10 ADD CALLDATALOAD SWAP2 POP DUP1 DUP3 GT ISZERO PUSH2 0x2E72 JUMPI PUSH1 0x0 DUP1 REVERT JUMPDEST PUSH2 0x2E7E DUP11 DUP4 DUP12 ADD PUSH2 0x2D69 JUMP JUMPDEST SWAP5 POP PUSH1 0x80 DUP10 ADD CALLDATALOAD SWAP2 POP DUP1 DUP3 GT ISZERO PUSH2 0x2E94 JUMPI PUSH1 0x0 DUP1 REVERT JUMPDEST PUSH2 0x2EA0 DUP11 DUP4 DUP12 ADD PUSH2 0x2D69 JUMP JUMPDEST SWAP4 POP PUSH1 0xA0 DUP10 ADD CALLDATALOAD SWAP2 POP DUP1 DUP3 GT ISZERO PUSH2 0x2EB6 JUMPI PUSH1 0x0 DUP1 REVERT JUMPDEST POP PUSH2 0x2EC3 DUP10 DUP3 DUP11 ADD PUSH2 0x2D69 JUMP JUMPDEST SWAP2 POP POP SWAP3 SWAP6 POP SWAP3 SWAP6 POP SWAP3 SWAP6 JUMP JUMPDEST PUSH1 0x0 DUP2 MLOAD DUP1 DUP5 MSTORE PUSH1 0x0 JUMPDEST DUP2 DUP2 LT ISZERO PUSH2 0x2EF6 JUMPI PUSH1 0x20 DUP2 DUP6 ADD DUP2 ADD MLOAD DUP7 DUP4 ADD DUP3 ADD MSTORE ADD PUSH2 0x2EDA JUMP JUMPDEST POP PUSH1 0x0 PUSH1 0x20 DUP3 DUP7 ADD ADD MSTORE PUSH1 0x20 PUSH1 0x1F NOT PUSH1 0x1F DUP4 ADD AND DUP6 ADD ADD SWAP2 POP POP SWAP3 SWAP2 POP POP JUMP JUMPDEST PUSH1 0x20 DUP2 MSTORE PUSH1 0x0 PUSH2 0x2F29 PUSH1 0x20 DUP4 ADD DUP5 PUSH2 0x2ED0 JUMP JUMPDEST SWAP4 SWAP3 POP POP POP JUMP JUMPDEST PUSH1 0x1 PUSH1 0x1 PUSH1 0xA0 SHL SUB DUP2 AND DUP2 EQ PUSH2 0x2F45 JUMPI PUSH1 0x0 DUP1 REVERT JUMPDEST POP JUMP JUMPDEST PUSH1 0x0 PUSH1 0x20 DUP3 DUP5 SUB SLT ISZERO PUSH2 0x2F5A JUMPI PUSH1 0x0 DUP1 REVERT JUMPDEST DUP2 CALLDATALOAD PUSH2 0x2F29 DUP2 PUSH2 0x2F30 JUMP JUMPDEST PUSH1 0x0 DUP1 PUSH1 0x0 DUP1 PUSH1 0x0 DUP1 PUSH1 0x0 PUSH1 0xE0 DUP9 DUP11 SUB SLT ISZERO PUSH2 0x2F80 JUMPI PUSH1 0x0 DUP1 REVERT JUMPDEST DUP8 CALLDATALOAD PUSH8 0xFFFFFFFFFFFFFFFF DUP1 DUP3 GT ISZERO PUSH2 0x2F98 JUMPI PUSH1 0x0 DUP1 REVERT JUMPDEST PUSH2 0x2FA4 DUP12 DUP4 DUP13 ADD PUSH2 0x2D69 JUMP JUMPDEST SWAP9 POP PUSH1 0x20 DUP11 ADD CALLDATALOAD SWAP8 POP PUSH1 0x40 DUP11 ADD CALLDATALOAD SWAP2 POP DUP1 DUP3 GT ISZERO PUSH2 0x2FC1 JUMPI PUSH1 0x0 DUP1 REVERT JUMPDEST PUSH2 0x2FCD DUP12 DUP4 DUP13 ADD PUSH2 0x2D69 JUMP JUMPDEST SWAP7 POP PUSH1 0x60 DUP11 ADD CALLDATALOAD SWAP2 POP DUP1 DUP3 GT ISZERO PUSH2 0x2FE3 JUMPI PUSH1 0x0 DUP1 REVERT JUMPDEST PUSH2 0x2FEF DUP12 DUP4 DUP13 ADD PUSH2 0x2D69 JUMP JUMPDEST SWAP6 POP PUSH1 0x80 DUP11 ADD CALLDATALOAD SWAP2 POP DUP1 DUP3 GT ISZERO PUSH2 0x3005 JUMPI PUSH1 0x0 DUP1 REVERT JUMPDEST PUSH2 0x3011 DUP12 DUP4 DUP13 ADD PUSH2 0x2D69 JUMP JUMPDEST SWAP5 POP PUSH1 0xA0 DUP11 ADD CALLDATALOAD SWAP2 POP DUP1 DUP3 GT ISZERO PUSH2 0x3027 JUMPI PUSH1 0x0 DUP1 REVERT JUMPDEST PUSH2 0x3033 DUP12 DUP4 DUP13 ADD PUSH2 0x2D69 JUMP JUMPDEST SWAP4 POP PUSH1 0xC0 DUP11 ADD CALLDATALOAD SWAP2 POP DUP1 DUP3 GT ISZERO PUSH2 0x3049 JUMPI PUSH1 0x0 DUP1 REVERT JUMPDEST POP PUSH2 0x3056 DUP11 DUP3 DUP12 ADD PUSH2 0x2D69 JUMP JUMPDEST SWAP2 POP POP SWAP3 SWAP6 SWAP9 SWAP2 SWAP5 SWAP8 POP SWAP3 SWAP6 POP JUMP JUMPDEST PUSH1 0x20 DUP1 DUP3 MSTORE DUP3 MLOAD DUP3 DUP3 ADD DUP2 SWAP1 MSTORE PUSH1 0x0 SWAP2 SWAP1 DUP5 DUP3 ADD SWAP1 PUSH1 0x40 DUP6 ADD SWAP1 DUP5 JUMPDEST DUP2 DUP2 LT ISZERO PUSH2 0x30A6 JUMPI DUP4 MLOAD PUSH1 0x1 PUSH1 0x1 PUSH1 0xA0 SHL SUB AND DUP4 MSTORE SWAP3 DUP5 ADD SWAP3 SWAP2 DUP5 ADD SWAP2 PUSH1 0x1 ADD PUSH2 0x3081 JUMP JUMPDEST POP SWAP1 SWAP7 SWAP6 POP POP POP POP POP POP JUMP JUMPDEST PUSH1 0x0 DUP1 PUSH1 0x40 DUP4 DUP6 SUB SLT ISZERO PUSH2 0x30C5 JUMPI PUSH1 0x0 DUP1 REVERT JUMPDEST DUP3 CALLDATALOAD PUSH2 0x30D0 DUP2 PUSH2 0x2F30 JUMP JUMPDEST SWAP5 PUSH1 0x20 SWAP4 SWAP1 SWAP4 ADD CALLDATALOAD SWAP4 POP POP POP JUMP JUMPDEST PUSH1 0xE0 DUP2 MSTORE PUSH1 0x0 PUSH2 0x30F1 PUSH1 0xE0 DUP4 ADD DUP11 PUSH2 0x2ED0 JUMP JUMPDEST DUP3 DUP2 SUB PUSH1 0x20 DUP5 ADD MSTORE PUSH2 0x3103 DUP2 DUP11 PUSH2 0x2ED0 JUMP JUMPDEST SWAP1 POP DUP3 DUP2 SUB PUSH1 0x40 DUP5 ADD MSTORE PUSH2 0x3117 DUP2 DUP10 PUSH2 0x2ED0 JUMP JUMPDEST SWAP1 POP DUP3 DUP2 SUB PUSH1 0x60 DUP5 ADD MSTORE PUSH2 0x312B DUP2 DUP9 PUSH2 0x2ED0 JUMP JUMPDEST SWAP1 POP DUP3 DUP2 SUB PUSH1 0x80 DUP5 ADD MSTORE PUSH2 0x313F DUP2 DUP8 PUSH2 0x2ED0 JUMP JUMPDEST SWAP1 POP DUP5 PUSH1 0xA0 DUP5 ADD MSTORE DUP3 DUP2 SUB PUSH1 0xC0 DUP5 ADD MSTORE PUSH2 0x3159 DUP2 DUP6 PUSH2 0x2ED0 JUMP JUMPDEST SWAP11 SWAP10 POP POP POP POP POP POP POP POP POP POP JUMP JUMPDEST PUSH1 0x0 PUSH2 0x100 PUSH1 0x1 PUSH1 0x1 PUSH1 0xA0 SHL SUB DUP12 AND DUP4 MSTORE DUP1 PUSH1 0x20 DUP5 ADD MSTORE PUSH2 0x318A DUP2 DUP5 ADD DUP12 PUSH2 0x2ED0 JUMP JUMPDEST SWAP1 POP DUP9 PUSH1 0x40 DUP5 ADD MSTORE DUP3 DUP2 SUB PUSH1 0x60 DUP5 ADD MSTORE PUSH2 0x31A4 DUP2 DUP10 PUSH2 0x2ED0 JUMP JUMPDEST SWAP1 POP DUP3 DUP2 SUB PUSH1 0x80 DUP5 ADD MSTORE PUSH2 0x31B8 DUP2 DUP9 PUSH2 0x2ED0 JUMP JUMPDEST SWAP1 POP DUP3 DUP2 SUB PUSH1 0xA0 DUP5 ADD MSTORE PUSH2 0x31CC DUP2 DUP8 PUSH2 0x2ED0 JUMP JUMPDEST SWAP1 POP DUP3 DUP2 SUB PUSH1 0xC0 DUP5 ADD MSTORE PUSH2 0x31E0 DUP2 DUP7 PUSH2 0x2ED0 JUMP JUMPDEST SWAP1 POP DUP3 DUP2 SUB PUSH1 0xE0 DUP5 ADD MSTORE PUSH2 0x31F4 DUP2 DUP6 PUSH2 0x2ED0 JUMP JUMPDEST SWAP12 SWAP11 POP POP POP POP POP POP POP POP POP POP POP JUMP JUMPDEST PUSH1 0xC0 DUP2 MSTORE PUSH1 0x0 PUSH2 0x3216 PUSH1 0xC0 DUP4 ADD DUP10 PUSH2 0x2ED0 JUMP JUMPDEST DUP8 PUSH1 0x20 DUP5 ADD MSTORE DUP3 DUP2 SUB PUSH1 0x40 DUP5 ADD MSTORE PUSH2 0x322E DUP2 DUP9 PUSH2 0x2ED0 JUMP JUMPDEST SWAP1 POP DUP3 DUP2 SUB PUSH1 0x60 DUP5 ADD MSTORE PUSH2 0x3242 DUP2 DUP8 PUSH2 0x2ED0 JUMP JUMPDEST SWAP1 POP DUP3 DUP2 SUB PUSH1 0x80 DUP5 ADD MSTORE PUSH2 0x3256 DUP2 DUP7 PUSH2 0x2ED0 JUMP JUMPDEST SWAP1 POP DUP3 DUP2 SUB PUSH1 0xA0 DUP5 ADD MSTORE PUSH2 0x326A DUP2 DUP6 PUSH2 0x2ED0 JUMP JUMPDEST SWAP10 SWAP9 POP POP POP POP POP POP POP POP POP JUMP JUMPDEST PUSH1 0x0 DUP1 PUSH1 0x40 DUP4 DUP6 SUB SLT ISZERO PUSH2 0x328A JUMPI PUSH1 0x0 DUP1 REVERT JUMPDEST DUP3 CALLDATALOAD SWAP2 POP PUSH1 0x20 DUP4 ADD CALLDATALOAD PUSH2 0x329C DUP2 PUSH2 0x2F30 JUMP JUMPDEST DUP1 SWAP2 POP POP SWAP3 POP SWAP3 SWAP1 POP JUMP JUMPDEST PUSH1 0x0 DUP1 PUSH1 0x0 DUP1 PUSH1 0x0 PUSH1 0xA0 DUP7 DUP9 SUB SLT ISZERO PUSH2 0x32BF JUMPI PUSH1 0x0 DUP1 REVERT JUMPDEST DUP6 CALLDATALOAD PUSH8 0xFFFFFFFFFFFFFFFF DUP1 DUP3 GT ISZERO PUSH2 0x32D7 JUMPI PUSH1 0x0 DUP1 REVERT JUMPDEST PUSH2 0x32E3 DUP10 DUP4 DUP11 ADD PUSH2 0x2D69 JUMP JUMPDEST SWAP7 POP PUSH1 0x20 DUP9 ADD CALLDATALOAD SWAP6 POP PUSH1 0x40 DUP9 ADD CALLDATALOAD SWAP2 POP DUP1 DUP3 GT ISZERO PUSH2 0x3300 JUMPI PUSH1 0x0 DUP1 REVERT JUMPDEST PUSH2 0x330C DUP10 DUP4 DUP11 ADD PUSH2 0x2D69 JUMP JUMPDEST SWAP5 POP PUSH1 0x60 DUP9 ADD CALLDATALOAD SWAP2 POP DUP1 DUP3 GT ISZERO PUSH2 0x3322 JUMPI PUSH1 0x0 DUP1 REVERT JUMPDEST PUSH2 0x332E DUP10 DUP4 DUP11 ADD PUSH2 0x2D69 JUMP JUMPDEST SWAP4 POP PUSH1 0x80 DUP9 ADD CALLDATALOAD SWAP2 POP DUP1 DUP3 GT ISZERO PUSH2 0x3344 JUMPI PUSH1 0x0 DUP1 REVERT JUMPDEST POP PUSH2 0x3351 DUP9 DUP3 DUP10 ADD PUSH2 0x2D69 JUMP JUMPDEST SWAP2 POP POP SWAP3 SWAP6 POP SWAP3 SWAP6 SWAP1 SWAP4 POP JUMP JUMPDEST PUSH1 0x1 PUSH1 0x1 PUSH1 0xA0 SHL SUB DUP9 AND DUP2 MSTORE PUSH1 0xE0 PUSH1 0x20 DUP3 ADD MSTORE PUSH1 0x0 PUSH2 0x3380 PUSH1 0xE0 DUP4 ADD DUP10 PUSH2 0x2ED0 JUMP JUMPDEST DUP8 PUSH1 0x40 DUP5 ADD MSTORE DUP3 DUP2 SUB PUSH1 0x60 DUP5 ADD MSTORE PUSH2 0x3398 DUP2 DUP9 PUSH2 0x2ED0 JUMP JUMPDEST SWAP1 POP DUP3 DUP2 SUB PUSH1 0x80 DUP5 ADD MSTORE PUSH2 0x33AC DUP2 DUP8 PUSH2 0x2ED0 JUMP JUMPDEST SWAP1 POP DUP3 DUP2 SUB PUSH1 0xA0 DUP5 ADD MSTORE PUSH2 0x33C0 DUP2 DUP7 PUSH2 0x2ED0 JUMP JUMPDEST SWAP1 POP DUP3 DUP2 SUB PUSH1 0xC0 DUP5 ADD MSTORE PUSH2 0x3159 DUP2 DUP6 PUSH2 0x2ED0 JUMP JUMPDEST DUP5 DUP2 MSTORE PUSH1 0x80 PUSH1 0x20 DUP3 ADD MSTORE PUSH1 0x0 PUSH2 0x33ED PUSH1 0x80 DUP4 ADD DUP7 PUSH2 0x2ED0 JUMP JUMPDEST DUP5 PUSH1 0x40 DUP5 ADD MSTORE DUP3 DUP2 SUB PUSH1 0x60 DUP5 ADD MSTORE PUSH2 0x3405 DUP2 DUP6 PUSH2 0x2ED0 JUMP JUMPDEST SWAP8 SWAP7 POP POP POP POP POP POP POP JUMP JUMPDEST PUSH1 0x0 PUSH2 0x120 DUP12 DUP4 MSTORE DUP11 PUSH1 0x20 DUP5 ADD MSTORE DUP1 PUSH1 0x40 DUP5 ADD MSTORE PUSH2 0x3430 DUP2 DUP5 ADD DUP12 PUSH2 0x2ED0 JUMP JUMPDEST SWAP1 POP DUP3 DUP2 SUB PUSH1 0x60 DUP5 ADD MSTORE PUSH2 0x3444 DUP2 DUP11 PUSH2 0x2ED0 JUMP JUMPDEST SWAP1 POP DUP8 PUSH1 0x80 DUP5 ADD MSTORE DUP7 PUSH1 0xA0 DUP5 ADD MSTORE DUP6 PUSH1 0xC0 DUP5 ADD MSTORE DUP3 DUP2 SUB PUSH1 0xE0 DUP5 ADD MSTORE PUSH2 0x346A DUP2 DUP7 PUSH2 0x2ED0 JUMP JUMPDEST SWAP1 POP DUP3 DUP2 SUB PUSH2 0x100 DUP5 ADD MSTORE PUSH2 0x347F DUP2 DUP6 PUSH2 0x2ED0 JUMP JUMPDEST SWAP13 SWAP12 POP POP POP POP POP POP POP POP POP POP POP POP JUMP JUMPDEST PUSH1 0x0 DUP1 PUSH1 0x0 DUP1 PUSH1 0x0 DUP1 PUSH1 0x0 DUP1 PUSH2 0x100 DUP10 DUP12 SUB SLT ISZERO PUSH2 0x34AC JUMPI PUSH1 0x0 DUP1 REVERT JUMPDEST DUP9 CALLDATALOAD SWAP8 POP PUSH1 0x20 DUP10 ADD CALLDATALOAD PUSH8 0xFFFFFFFFFFFFFFFF DUP1 DUP3 GT ISZERO PUSH2 0x34CB JUMPI PUSH1 0x0 DUP1 REVERT JUMPDEST PUSH2 0x34D7 DUP13 DUP4 DUP14 ADD PUSH2 0x2D69 JUMP JUMPDEST SWAP9 POP PUSH1 0x40 DUP12 ADD CALLDATALOAD SWAP2 POP DUP1 DUP3 GT ISZERO PUSH2 0x34ED JUMPI PUSH1 0x0 DUP1 REVERT JUMPDEST PUSH2 0x34F9 DUP13 DUP4 DUP14 ADD PUSH2 0x2D69 JUMP JUMPDEST SWAP8 POP PUSH1 0x60 DUP12 ADD CALLDATALOAD SWAP7 POP PUSH1 0x80 DUP12 ADD CALLDATALOAD SWAP6 POP PUSH1 0xA0 DUP12 ADD CALLDATALOAD SWAP5 POP PUSH1 0xC0 DUP12 ADD CALLDATALOAD SWAP2 POP DUP1 DUP3 GT ISZERO PUSH2 0x3524 JUMPI PUSH1 0x0 DUP1 REVERT JUMPDEST PUSH2 0x3530 DUP13 DUP4 DUP14 ADD PUSH2 0x2D69 JUMP JUMPDEST SWAP4 POP PUSH1 0xE0 DUP12 ADD CALLDATALOAD SWAP2 POP DUP1 DUP3 GT ISZERO PUSH2 0x3546 JUMPI PUSH1 0x0 DUP1 REVERT JUMPDEST POP PUSH2 0x3553 DUP12 DUP3 DUP13 ADD PUSH2 0x2D69 JUMP JUMPDEST SWAP2 POP POP SWAP3 SWAP6 SWAP9 POP SWAP3 SWAP6 SWAP9 SWAP1 SWAP4 SWAP7 POP JUMP JUMPDEST PUSH1 0x1 DUP2 DUP2 SHR SWAP1 DUP3 AND DUP1 PUSH2 0x3577 JUMPI PUSH1 0x7F DUP3 AND SWAP2 POP JUMPDEST PUSH1 0x20 DUP3 LT DUP2 SUB PUSH2 0x3597 JUMPI PUSH4 0x4E487B71 PUSH1 0xE0 SHL PUSH1 0x0 MSTORE PUSH1 0x22 PUSH1 0x4 MSTORE PUSH1 0x24 PUSH1 0x0 REVERT JUMPDEST POP SWAP2 SWAP1 POP JUMP JUMPDEST PUSH1 0x1F DUP3 GT ISZERO PUSH2 0x1386 JUMPI PUSH1 0x0 DUP2 DUP2 MSTORE PUSH1 0x20 DUP2 KECCAK256 PUSH1 0x1F DUP6 ADD PUSH1 0x5 SHR DUP2 ADD PUSH1 0x20 DUP7 LT ISZERO PUSH2 0x35C4 JUMPI POP DUP1 JUMPDEST PUSH1 0x1F DUP6 ADD PUSH1 0x5 SHR DUP3 ADD SWAP2 POP JUMPDEST DUP2 DUP2 LT ISZERO PUSH2 0x21FF JUMPI DUP3 DUP2 SSTORE PUSH1 0x1 ADD PUSH2 0x35D0 JUMP JUMPDEST DUP2 MLOAD PUSH8 0xFFFFFFFFFFFFFFFF DUP2 GT ISZERO PUSH2 0x35FD JUMPI PUSH2 0x35FD PUSH2 0x2D53 JUMP JUMPDEST PUSH2 0x3611 DUP2 PUSH2 0x360B DUP5 SLOAD PUSH2 0x3563 JUMP JUMPDEST DUP5 PUSH2 0x359D JUMP JUMPDEST PUSH1 0x20 DUP1 PUSH1 0x1F DUP4 GT PUSH1 0x1 DUP2 EQ PUSH2 0x3646 JUMPI PUSH1 0x0 DUP5 ISZERO PUSH2 0x362E JUMPI POP DUP6 DUP4 ADD MLOAD JUMPDEST PUSH1 0x0 NOT PUSH1 0x3 DUP7 SWAP1 SHL SHR NOT AND PUSH1 0x1 DUP6 SWAP1 SHL OR DUP6 SSTORE PUSH2 0x21FF JUMP JUMPDEST PUSH1 0x0 DUP6 DUP2 MSTORE PUSH1 0x20 DUP2 KECCAK256 PUSH1 0x1F NOT DUP7 AND SWAP2 JUMPDEST DUP3 DUP2 LT ISZERO PUSH2 0x3675 JUMPI DUP9 DUP7 ADD MLOAD DUP3 SSTORE SWAP5 DUP5 ADD SWAP5 PUSH1 0x1 SWAP1 SWAP2 ADD SWAP1 DUP5 ADD PUSH2 0x3656 JUMP JUMPDEST POP DUP6 DUP3 LT ISZERO PUSH2 0x3693 JUMPI DUP8 DUP6 ADD MLOAD PUSH1 0x0 NOT PUSH1 0x3 DUP9 SWAP1 SHL PUSH1 0xF8 AND SHR NOT AND DUP2 SSTORE JUMPDEST POP POP POP POP POP PUSH1 0x1 SWAP1 DUP2 SHL ADD SWAP1 SSTORE POP JUMP JUMPDEST PUSH1 0x0 PUSH1 0x1 DUP3 ADD PUSH2 0x36C3 JUMPI PUSH4 0x4E487B71 PUSH1 0xE0 SHL PUSH1 0x0 MSTORE PUSH1 0x11 PUSH1 0x4 MSTORE PUSH1 0x24 PUSH1 0x0 REVERT JUMPDEST POP PUSH1 0x1 ADD SWAP1 JUMP INVALID LOG2 PUSH5 0x6970667358 0x22 SLT KECCAK256 SMOD STATICCALL SHL SMOD RETURN 0x4A DUP5 SDIV NUMBER 0xA6 CALLER 0xE5 0xC5 0xB8 SSTORE 0x2F CALLDATASIZE STATICCALL SELFDESTRUCT PUSH17 0xE45D8499B1F3BE3C7C51972664736F6C63 NUMBER STOP ADDMOD SGT STOP CALLER "},"methodIdentifiers":{"BuyerMapping(address)":"ab517074","BuyerRejection(address)":"989376b4","BuyerVerification(address)":"a6dc41fb","InspectorMapping(uint256)":"def936c3","LandOwner(uint256)":"9dc1bfa9","LandOwnershipTransfer(uint256,address)":"bed403c7","LandVerification(uint256)":"83546501","Land_Inspector()":"170f3909","PaymentReceived(uint256)":"1a07f76e","RegisteredAddressMapping(address)":"f58f85b5","RegisteredBuyerMapping(address)":"a47d4c02","RegisteredSellerMapping(address)":"601e7c34","RequestStatus(uint256)":"89d21354","RequestedLands(uint256)":"4daa9dae","RequestsMapping(uint256)":"b0a5dcd3","SellerMapping(address)":"dec091ad","SellerRejection(address)":"63f17143","SellerVerification(address)":"e4b26115","addLand(uint256,string,string,uint256,uint256,uint256,string,string)":"e530c400","approveRequest(uint256)":"d7d1bbdb","buyers(uint256)":"f2aa8218","buyersCount()":"ba49a08c","getArea(uint256)":"6490c7a8","getBuyer()":"603daf9a","getBuyerDetails(address)":"68cfe6ee","getBuyersCount()":"f0d3a9df","getCity(uint256)":"d7130651","getDocument(uint256)":"3f9b250a","getImage(uint256)":"2607aafa","getLandOwner(uint256)":"1869a38b","getLandsCount()":"16d9d666","getPID(uint256)":"07d56ac0","getPrice(uint256)":"e7572230","getRequestDetails(uint256)":"f34d4c63","getRequestsCount()":"3410452a","getSeller()":"dbd0e1b6","getSellerDetails(address)":"b3c8fe85","getSellersCount()":"dd9d122d","getState(uint256)":"44c9af28","getSurveyNumber(uint256)":"a4a0f6c0","inspectorsCount()":"941e2426","isApproved(uint256)":"7910867b","isBuyer(address)":"2a55feec","isLandInspector(address)":"e165af87","isLandVerified(uint256)":"6cbf6cf8","isPaid(uint256)":"cd392a83","isRegistered(address)":"c3c5a547","isRejected(address)":"48a46bd3","isRequested(uint256)":"155fec72","isSeller(address)":"ee95feaf","isVerified(address)":"b9209e33","lands(uint256)":"e261f1e5","landsCount()":"1c9afd0f","payment(address,uint256)":"67a09c23","registerBuyer(string,uint256,string,string,string,string,string)":"4e2cba09","registerSeller(string,uint256,string,string,string,string)":"93383648","rejectBuyer(address)":"8965cde1","rejectSeller(address)":"e1ecc794","requestLand(address,uint256)":"f3f0c218","requestsCount()":"fbfa4b7f","sellers(uint256)":"cee26ed5","sellersCount()":"9ae9711e","updateBuyer(string,uint256,string,string,string,string)":"11ce462c","updateSeller(string,uint256,string,string,string)":"c560b4e5","verifyBuyer(address)":"6814800b","verifyLand(uint256)":"f9c43bdf","verifySeller(address)":"d1760e60"}}}}}